{
  "contracts/UniswapV2Pair.sol": {
    "UniswapV2Pair": {
      "abi": [
        {
          "inputs": [
            {
              "internalType": "address",
              "name": "_token0",
              "type": "address"
            },
            {
              "internalType": "address",
              "name": "_token1",
              "type": "address"
            }
          ],
          "stateMutability": "nonpayable",
          "type": "constructor"
        },
        {
          "anonymous": false,
          "inputs": [
            {
              "indexed": true,
              "internalType": "address",
              "name": "sender",
              "type": "address"
            },
            {
              "indexed": false,
              "internalType": "uint256",
              "name": "amount0",
              "type": "uint256"
            },
            {
              "indexed": false,
              "internalType": "uint256",
              "name": "amount1",
              "type": "uint256"
            }
          ],
          "name": "Mint",
          "type": "event"
        },
        {
          "anonymous": false,
          "inputs": [
            {
              "indexed": true,
              "internalType": "address",
              "name": "sender",
              "type": "address"
            },
            {
              "indexed": false,
              "internalType": "uint256",
              "name": "amount0In",
              "type": "uint256"
            },
            {
              "indexed": false,
              "internalType": "uint256",
              "name": "amount1In",
              "type": "uint256"
            },
            {
              "indexed": false,
              "internalType": "uint256",
              "name": "amount0Out",
              "type": "uint256"
            },
            {
              "indexed": false,
              "internalType": "uint256",
              "name": "amount1Out",
              "type": "uint256"
            },
            {
              "indexed": true,
              "internalType": "address",
              "name": "to",
              "type": "address"
            }
          ],
          "name": "Swap",
          "type": "event"
        },
        {
          "inputs": [
            {
              "internalType": "address",
              "name": "",
              "type": "address"
            }
          ],
          "name": "balanceOf",
          "outputs": [
            {
              "internalType": "uint256",
              "name": "",
              "type": "uint256"
            }
          ],
          "stateMutability": "view",
          "type": "function"
        },
        {
          "inputs": [],
          "name": "getReserves",
          "outputs": [
            {
              "internalType": "uint112",
              "name": "_reserve0",
              "type": "uint112"
            },
            {
              "internalType": "uint112",
              "name": "_reserve1",
              "type": "uint112"
            }
          ],
          "stateMutability": "view",
          "type": "function"
        },
        {
          "inputs": [
            {
              "internalType": "address",
              "name": "to",
              "type": "address"
            }
          ],
          "name": "mint",
          "outputs": [
            {
              "internalType": "uint256",
              "name": "liquidity",
              "type": "uint256"
            }
          ],
          "stateMutability": "nonpayable",
          "type": "function"
        },
        {
          "inputs": [
            {
              "internalType": "uint256",
              "name": "amount0Out",
              "type": "uint256"
            },
            {
              "internalType": "uint256",
              "name": "amount1Out",
              "type": "uint256"
            },
            {
              "internalType": "address",
              "name": "to",
              "type": "address"
            }
          ],
          "name": "swap",
          "outputs": [],
          "stateMutability": "nonpayable",
          "type": "function"
        },
        {
          "inputs": [],
          "name": "token0",
          "outputs": [
            {
              "internalType": "address",
              "name": "",
              "type": "address"
            }
          ],
          "stateMutability": "view",
          "type": "function"
        },
        {
          "inputs": [],
          "name": "token1",
          "outputs": [
            {
              "internalType": "address",
              "name": "",
              "type": "address"
            }
          ],
          "stateMutability": "view",
          "type": "function"
        },
        {
          "inputs": [],
          "name": "totalSupply",
          "outputs": [
            {
              "internalType": "uint256",
              "name": "",
              "type": "uint256"
            }
          ],
          "stateMutability": "view",
          "type": "function"
        }
      ],
      "evm": {
        "assembly": "// RO data = 0/0 bytes\n// RW data = 160/65744 bytes\n// Stack size = 32768 bytes\n\n// Instructions = 6210\n// Code size = 21678 bytes\n\n      : @0 (gas: 2)\n     0: a1 = i32 [0x200a8]\n     5: jump @41 if a1 == 0\n      : @1 (gas: 4)\n     9: a0 = 0x300d0\n    14: i32 a0 = a0 + 0\n    16: ecalli 13 // 'set_immutable_data'\n    18: jump @41\n      : @2 (gas: 8)\n    21: sp = sp + 0xfffffffffffffff0\n    24: u64 [sp + 0x8] = ra\n    27: u64 [sp] = s0\n    29: a2 = a1\n    31: s0 = a0\n    33: a1 = 0x20\n    36: a0 = a2\n    38: ra = 2, jump @12\n      : @3 [@dyn 1] (gas: 100)\n    43: a1 = u8 [a0 + 0x1]\n    46: a2 = u8 [a0]\n    48: a3 = u8 [a0 + 0x2]\n    51: a4 = u8 [a0 + 0x3]\n    54: a1 = a1 << 0x8\n    57: a1 = a1 | a2\n    60: a3 = a3 << 0x10\n    63: a4 = a4 << 0x18\n    66: a3 = a3 | a4\n    69: a1 = a1 | a3\n    72: a2 = u8 [a0 + 0x5]\n    75: a3 = u8 [a0 + 0x4]\n    78: a4 = u8 [a0 + 0x6]\n    81: a5 = u8 [a0 + 0x7]\n    84: a2 = a2 << 0x8\n    87: a2 = a2 | a3\n    90: a4 = a4 << 0x10\n    93: a5 = a5 << 0x18\n    96: a4 = a4 | a5\n    99: a2 = a2 | a4\n   102: a2 = a2 << 0x20\n   105: t0 = a2 | a1\n   108: a2 = u8 [a0 + 0x9]\n   111: a3 = u8 [a0 + 0x8]\n   114: a4 = u8 [a0 + 0xa]\n   117: a5 = u8 [a0 + 0xb]\n   120: a2 = a2 << 0x8\n   123: a2 = a2 | a3\n   126: a4 = a4 << 0x10\n   129: a5 = a5 << 0x18\n   132: a4 = a4 | a5\n   135: a2 = a2 | a4\n   138: a3 = u8 [a0 + 0xd]\n   141: a4 = u8 [a0 + 0xc]\n   144: a5 = u8 [a0 + 0xe]\n   147: a1 = u8 [a0 + 0xf]\n   150: a3 = a3 << 0x8\n   153: a3 = a3 | a4\n   156: a5 = a5 << 0x10\n   159: a1 = a1 << 0x18\n   162: a1 = a1 | a5\n   165: a1 = a1 | a3\n   168: a1 = a1 << 0x20\n   171: t1 = a1 | a2\n   174: a1 = u8 [a0 + 0x11]\n   177: a3 = u8 [a0 + 0x10]\n   180: a4 = u8 [a0 + 0x12]\n   183: a5 = u8 [a0 + 0x13]\n   186: a1 = a1 << 0x8\n   189: a1 = a1 | a3\n   192: a4 = a4 << 0x10\n   195: a5 = a5 << 0x18\n   198: a4 = a4 | a5\n   201: a1 = a1 | a4\n   204: a3 = u8 [a0 + 0x15]\n   207: a4 = u8 [a0 + 0x14]\n   210: a5 = u8 [a0 + 0x16]\n   213: a2 = u8 [a0 + 0x17]\n   216: a3 = a3 << 0x8\n   219: a3 = a3 | a4\n   222: a5 = a5 << 0x10\n   225: a2 = a2 << 0x18\n   228: a2 = a2 | a5\n   231: a2 = a2 | a3\n   234: a2 = a2 << 0x20\n   237: a3 = a2 | a1\n   240: a1 = u8 [a0 + 0x19]\n   243: a2 = u8 [a0 + 0x18]\n   246: a4 = u8 [a0 + 0x1a]\n   249: a5 = u8 [a0 + 0x1b]\n   252: a1 = a1 << 0x8\n   255: a1 = a1 | a2\n   258: a4 = a4 << 0x10\n   261: a5 = a5 << 0x18\n   264: a4 = a4 | a5\n   267: a1 = a1 | a4\n   270: a2 = u8 [a0 + 0x1d]\n   273: a4 = u8 [a0 + 0x1c]\n   276: a5 = u8 [a0 + 0x1e]\n   279: a0 = u8 [a0 + 0x1f]\n   282: a2 = a2 << 0x8\n   285: a2 = a2 | a4\n   288: a5 = a5 << 0x10\n   291: a0 = a0 << 0x18\n   294: a0 = a0 | a5\n   297: a0 = a0 | a2\n   300: a0 = a0 << 0x20\n   303: a0 = a0 | a1\n   306: a0 = reverse a0\n   308: a1 = reverse a3\n   310: a2 = reverse t1\n   312: a3 = reverse t0\n   314: u64 [s0 + 0x18] = a3\n   317: u64 [s0 + 0x10] = a2\n   320: u64 [s0 + 0x8] = a1\n   323: u64 [s0] = a0\n   325: ra = u64 [sp + 0x8]\n   328: s0 = u64 [sp]\n   330: sp = sp + 0x10\n   333: ret\n      : @4 (gas: 12)\n   335: sp = sp + 0xffffffffffffffd8\n   338: u64 [sp + 0x20] = ra\n   341: u64 [sp + 0x18] = s0\n   344: u64 [sp + 0x10] = s1\n   347: a2 = u64 [a1]\n   349: u64 [sp + 0x8] = a2\n   352: a2 = u64 [a1 + 0x8]\n   355: u64 [sp] = a2\n   357: s0 = u64 [a1 + 0x10]\n   360: s1 = u64 [a1 + 0x18]\n   363: a1 = 0x20\n   366: ra = 4, jump @12\n      : @5 [@dyn 2] (gas: 71)\n   371: a1 = reverse s1\n   373: a2 = reverse s0\n   375: a3 = u64 [sp]\n   377: a3 = reverse a3\n   379: a4 = u64 [sp + 0x8]\n   382: a4 = reverse a4\n   384: u8 [a0 + 0x18] = a4\n   387: u8 [a0 + 0x10] = a3\n   390: u8 [a0 + 0x8] = a2\n   393: u8 [a0] = a1\n   395: a5 = a4 >> 0x38\n   398: u8 [a0 + 0x1f] = a5\n   401: a5 = a4 >> 0x30\n   404: u8 [a0 + 0x1e] = a5\n   407: a5 = a4 >> 0x28\n   410: u8 [a0 + 0x1d] = a5\n   413: a5 = a4 >> 0x20\n   416: u8 [a0 + 0x1c] = a5\n   419: a5 = a4 >> 0x18\n   422: u8 [a0 + 0x1b] = a5\n   425: a5 = a4 >> 0x10\n   428: u8 [a0 + 0x1a] = a5\n   431: a4 = a4 >> 0x8\n   434: u8 [a0 + 0x19] = a4\n   437: a4 = a3 >> 0x38\n   440: u8 [a0 + 0x17] = a4\n   443: a4 = a3 >> 0x30\n   446: u8 [a0 + 0x16] = a4\n   449: a4 = a3 >> 0x28\n   452: u8 [a0 + 0x15] = a4\n   455: a4 = a3 >> 0x20\n   458: u8 [a0 + 0x14] = a4\n   461: a4 = a3 >> 0x18\n   464: u8 [a0 + 0x13] = a4\n   467: a4 = a3 >> 0x10\n   470: u8 [a0 + 0x12] = a4\n   473: a3 = a3 >> 0x8\n   476: u8 [a0 + 0x11] = a3\n   479: a3 = a2 >> 0x38\n   482: u8 [a0 + 0xf] = a3\n   485: a3 = a2 >> 0x30\n   488: u8 [a0 + 0xe] = a3\n   491: a3 = a2 >> 0x28\n   494: u8 [a0 + 0xd] = a3\n   497: a3 = a2 >> 0x20\n   500: u8 [a0 + 0xc] = a3\n   503: a3 = a2 >> 0x18\n   506: u8 [a0 + 0xb] = a3\n   509: a3 = a2 >> 0x10\n   512: u8 [a0 + 0xa] = a3\n   515: a2 = a2 >> 0x8\n   518: u8 [a0 + 0x9] = a2\n   521: a2 = a1 >> 0x38\n   524: u8 [a0 + 0x7] = a2\n   527: a2 = a1 >> 0x30\n   530: u8 [a0 + 0x6] = a2\n   533: a2 = a1 >> 0x28\n   536: u8 [a0 + 0x5] = a2\n   539: a2 = a1 >> 0x20\n   542: u8 [a0 + 0x4] = a2\n   545: a2 = a1 >> 0x18\n   548: u8 [a0 + 0x3] = a2\n   551: a2 = a1 >> 0x10\n   554: u8 [a0 + 0x2] = a2\n   557: a1 = a1 >> 0x8\n   560: u8 [a0 + 0x1] = a1\n   563: ra = u64 [sp + 0x20]\n   566: s0 = u64 [sp + 0x18]\n   569: s1 = u64 [sp + 0x10]\n   572: sp = sp + 0x28\n   575: ret\n      : @6 (gas: 43)\n   577: sp = sp + 0xffffffffffffffa0\n   580: u64 [sp + 0x58] = ra\n   583: u64 [sp + 0x50] = s0\n   586: u64 [sp + 0x48] = s1\n   589: s0 = sp + 0x60\n   592: sp = sp & 0xffffffffffffffe0\n   595: s1 = a0\n   597: a0 = u64 [a1 + 0x18]\n   600: a2 = u64 [a1 + 0x10]\n   603: a3 = u64 [a1 + 0x8]\n   606: a1 = u64 [a1]\n   608: a0 = reverse a0\n   610: a2 = reverse a2\n   612: a3 = reverse a3\n   614: a1 = reverse a1\n   616: u64 [sp + 0x18] = a1\n   619: u64 [sp + 0x10] = a3\n   622: u64 [sp + 0x8] = a2\n   625: u64 [sp] = a0\n   627: u64 [sp + 56] = 0\n   630: u64 [sp + 48] = 0\n   633: u64 [sp + 40] = 0\n   636: u64 [sp + 32] = 0\n   639: u32 [sp + 64] = 0x20\n   643: i32 a1 = sp + 0\n   645: i32 a3 = sp + 0x20\n   648: i32 a4 = sp + 0x40\n   651: a2 = 0xffffffffffffffff\n   654: a0 = 0\n   656: ecalli 7 // 'get_storage'\n   658: a0 = u64 [sp + 0x38]\n   661: a1 = u64 [sp + 0x30]\n   664: a2 = u64 [sp + 0x28]\n   667: a3 = u64 [sp + 0x20]\n   670: a0 = reverse a0\n   672: a1 = reverse a1\n   674: a2 = reverse a2\n   676: a3 = reverse a3\n   678: u64 [s1 + 0x18] = a3\n   681: u64 [s1 + 0x10] = a2\n   684: u64 [s1 + 0x8] = a1\n   687: u64 [s1] = a0\n   689: t0 = 6, jump @676\n      : @7 [@dyn 3] (gas: 1)\n   694: ret\n      : @8 (gas: 40)\n   696: sp = sp + 0xffffffffffffffa0\n   699: u64 [sp + 0x58] = ra\n   702: u64 [sp + 0x50] = s0\n   705: s0 = sp + 0x60\n   708: sp = sp & 0xffffffffffffffe0\n   711: t0 = u64 [a0]\n   713: a3 = u64 [a0 + 0x8]\n   716: a4 = u64 [a0 + 0x10]\n   719: a0 = u64 [a0 + 0x18]\n   722: t1 = u64 [a1]\n   724: a2 = u64 [a1 + 0x8]\n   727: a5 = u64 [a1 + 0x10]\n   730: a1 = u64 [a1 + 0x18]\n   733: t2 = reverse a0\n   735: a4 = reverse a4\n   737: a3 = reverse a3\n   739: a0 = reverse t0\n   741: t0 = reverse a1\n   743: a5 = reverse a5\n   745: a2 = reverse a2\n   747: a1 = reverse t1\n   749: u64 [sp + 0x18] = a0\n   752: u64 [sp + 0x10] = a3\n   755: u64 [sp + 0x8] = a4\n   758: u64 [sp] = t2\n   760: u64 [sp + 0x38] = a1\n   763: u64 [sp + 0x30] = a2\n   766: u64 [sp + 0x28] = a5\n   769: u64 [sp + 0x20] = t0\n   772: i32 a1 = sp + 0\n   774: i32 a3 = sp + 0x20\n   777: a2 = 0xffffffffffffffff\n   780: a4 = 0x20\n   783: a0 = 0\n   785: ecalli 14 // 'set_storage'\n   787: sp = s0 + 0xffffffffffffffa0\n   790: ra = u64 [sp + 0x58]\n   793: s0 = u64 [sp + 0x50]\n   796: sp = sp + 0x60\n   799: ret\n      : @9 [@dyn 4] (gas: 35)\n   801: a1 = u64 [sp]\n   803: a1 = reverse a1\n   805: a2 = u64 [sp + 0x8]\n   808: a2 = reverse a2\n   810: a3 = u64 [sp + 0x10]\n   813: a3 = reverse a3\n   815: a4 = u64 [sp + 0x18]\n   818: a4 = reverse a4\n   820: u64 [sp + 0x58] = a4\n   823: u64 [sp + 0x50] = a3\n   826: u64 [sp + 0x48] = a2\n   829: u64 [sp + 0x40] = a1\n   832: a1 = u64 [sp + 0x20]\n   835: a1 = reverse a1\n   837: a2 = u64 [sp + 0x28]\n   840: a2 = reverse a2\n   842: a3 = u64 [sp + 0x30]\n   845: a3 = reverse a3\n   847: a4 = u64 [sp + 0x38]\n   850: a4 = reverse a4\n   852: u64 [sp + 0x78] = a4\n   855: u64 [sp + 0x70] = a3\n   858: u64 [sp + 0x68] = a2\n   861: u64 [sp + 0x60] = a1\n   864: i32 a2 = a0 + 0\n   866: i32 a3 = s1 + 0\n   868: i32 a0 = sp + 0x40\n   871: a1 = 0x2\n   874: ecalli 6 // 'deposit_event'\n   876: sp = s0 + 0xffffffffffffff60\n   880: ra = u64 [sp + 0x98]\n   884: s0 = u64 [sp + 0x90]\n   888: s1 = u64 [sp + 0x88]\n   892: sp = sp + 0xa0\n   896: ret\n      : @10 [@dyn 5] (gas: 2)\n   898: u64 [sp + 0x38] = a1\n   901: ra = 12, jump @12\n      : @11 [@dyn 6] (gas: 46)\n   906: a1 = reverse s1\n   908: u64 [sp + 0x78] = a1\n   911: a1 = u64 [sp]\n   913: a1 = reverse a1\n   915: u64 [sp + 0x70] = a1\n   918: a1 = u64 [sp + 0x8]\n   921: a1 = reverse a1\n   923: u64 [sp + 0x68] = a1\n   926: a1 = u64 [sp + 0x10]\n   929: a1 = reverse a1\n   931: u64 [sp + 0x60] = a1\n   934: a1 = u64 [sp + 0x18]\n   937: a1 = reverse a1\n   939: u64 [sp + 0x98] = a1\n   943: a1 = u64 [sp + 0x20]\n   946: a1 = reverse a1\n   948: u64 [sp + 0x90] = a1\n   952: a1 = u64 [sp + 0x28]\n   955: a1 = reverse a1\n   957: u64 [sp + 0x88] = a1\n   961: a1 = u64 [sp + 0x30]\n   964: a1 = reverse a1\n   966: u64 [sp + 0x80] = a1\n   970: a1 = u64 [sp + 0x40]\n   973: a1 = reverse a1\n   975: u64 [sp + 0xb8] = a1\n   979: a1 = u64 [sp + 0x48]\n   982: a1 = reverse a1\n   984: u64 [sp + 0xb0] = a1\n   988: a1 = u64 [sp + 0x50]\n   991: a1 = reverse a1\n   993: u64 [sp + 0xa8] = a1\n   997: a1 = u64 [sp + 0x58]\n  1000: a1 = reverse a1\n  1002: u64 [sp + 0xa0] = a1\n  1006: i32 a2 = a0 + 0\n  1008: a3 = i32 [sp + 0x38]\n  1011: i32 a0 = sp + 0x60\n  1014: a1 = 0x3\n  1017: ecalli 6 // 'deposit_event'\n  1019: sp = s0 + 0xffffffffffffff20\n  1023: ra = u64 [sp + 0xd8]\n  1027: s0 = u64 [sp + 0xd0]\n  1031: s1 = u64 [sp + 0xc8]\n  1035: sp = sp + 0xe0\n  1039: ret\n      : @12 (gas: 2)\n  1041: i32 a2 = a0 >> 0x10\n  1044: jump @17 if a2 != 0\n      : @13 (gas: 4)\n  1047: a1 = a1 + a0\n  1050: i32 a1 = a1 + 0x1f\n  1053: a1 = a1 & 0xffffffffffffffe0\n  1056: jump @17 if a1 >u 65536\n      : @14 (gas: 3)\n  1062: a2 = 0x200a4\n  1067: a3 = i32 [0x200a4]\n  1072: jump @16 if a3 >=u a1\n      : @15 (gas: 2)\n  1075: u32 [0x200a4] = a1\n  1080: fallthrough\n      : @16 (gas: 4)\n  1081: a1 = 0x200b0\n  1086: i32 a0 = a0 + 0\n  1088: a0 = a0 + a1\n  1091: ret\n      : @17 (gas: 1)\n  1093: trap\n      : @18 (gas: 6)\n  1094: sp = sp + 0xfffffffffffffff0\n  1097: u64 [sp + 0x8] = ra\n  1100: u64 [sp] = s0\n  1102: s0 = a0 & 0x1\n  1105: ecalli 4 // 'call_data_size'\n  1107: fallthrough\n      : @19 (gas: 2)\n  1108: u32 [0x200a0] = a0\n  1113: jump @21 if s0 == 0\n      : @20 (gas: 1)\n  1116: ra = 14, jump @22\n      : @21 [@dyn 7] (gas: 1)\n  1120: ra = 16, jump @44\n      : @22 [@dyn 8] (gas: 14)\n  1125: sp = sp + 0xfffffffffffffdc0\n  1129: a0 = sp + 0x200\n  1133: u64 [a0 + 0x38] = ra\n  1136: u64 [a0 + 0x30] = s0\n  1139: u64 [a0 + 0x28] = s1\n  1142: s0 = sp + 0x240\n  1146: sp = sp & 0xffffffffffffffe0\n  1149: u64 [sp + 344] = 0\n  1153: u64 [sp + 336] = 0\n  1157: u64 [sp + 328] = 0\n  1161: u64 [sp + 320] = 0\n  1165: i32 a0 = sp + 0x140\n  1169: ecalli 15 // 'value_transferred'\n  1171: fallthrough\n      : @23 (gas: 8)\n  1172: a0 = u64 [sp + 0x150]\n  1176: a1 = u64 [sp + 0x158]\n  1180: a2 = u64 [sp + 0x148]\n  1184: a3 = u64 [sp + 0x140]\n  1188: a1 = a1 | a2\n  1191: a0 = a0 | a3\n  1194: a0 = a0 | a1\n  1197: jump @37 if a0 != 0\n      : @24 (gas: 15)\n  1201: s1 = i32 [0x200a0]\n  1206: a0 = s1 << 0x20\n  1209: a0 = a0 >> 0x20\n  1212: a0 = a0 + 0x1f\n  1215: a0 = a0 & 0xffffffffffffffe0\n  1218: a1 = a0 + 0x80\n  1222: a0 = a1 <u a0\n  1225: u64 [sp + 312] = 0\n  1229: u64 [sp + 0x120] = a1\n  1233: u64 [sp + 0x128] = a0\n  1237: a0 = 0 if a0 != 0\n  1239: u64 [sp + 0x130] = a0\n  1243: a0 = 0x40\n  1246: a1 = sp + 0x120\n  1250: ra = 18, jump @4\n      : @25 [@dyn 9] (gas: 3)\n  1255: a0 = 0x80\n  1259: a1 = s1\n  1261: ra = 20, jump @12\n      : @26 [@dyn 10] (gas: 5)\n  1266: i32 a0 = a0 + 0\n  1268: a1 = s1\n  1270: a2 = 0\n  1272: ecalli 2 // 'call_data_copy'\n  1274: fallthrough\n      : @27 (gas: 1)\n  1275: jump @38 if s1 <u 64\n      : @28 (gas: 7)\n  1280: u64 [sp + 248] = 0\n  1284: u64 [sp + 240] = 0\n  1288: u64 [sp + 224] = 0x80\n  1294: a0 = sp + 0x100\n  1298: a1 = sp + 0xe0\n  1302: u64 [sp + 232] = 0\n  1306: ra = 22, jump @546\n      : @29 [@dyn 11] (gas: 12)\n  1311: a0 = u64 [sp + 0x100]\n  1315: u64 [sp + 0x20] = a0\n  1318: a0 = u64 [sp + 0x108]\n  1322: u64 [sp + 0x18] = a0\n  1325: s1 = u32 [sp + 0x110]\n  1329: u64 [sp + 184] = 0\n  1333: u64 [sp + 176] = 0\n  1337: u64 [sp + 160] = 0xa0\n  1343: a0 = sp + 0xc0\n  1347: a1 = sp + 0xa0\n  1351: u64 [sp + 168] = 0\n  1355: ra = 24, jump @546\n      : @30 [@dyn 12] (gas: 13)\n  1360: a0 = u64 [sp + 0xc0]\n  1364: u64 [sp + 0x38] = a0\n  1367: a0 = u64 [sp + 0xc8]\n  1371: u64 [sp + 0x30] = a0\n  1374: a0 = u32 [sp + 0xd0]\n  1378: u64 [sp + 0x28] = a0\n  1381: u64 [sp + 376] = 0\n  1385: u64 [sp + 368] = 0\n  1389: u64 [sp + 360] = 0\n  1393: u64 [sp + 352] = 0\n  1397: a0 = sp + 0x80\n  1401: a1 = sp + 0x160\n  1405: ra = 26, jump @6\n      : @31 [@dyn 13] (gas: 17)\n  1410: a0 = u32 [sp + 0x94]\n  1414: a0 = a0 << 0x20\n  1417: a1 = u64 [sp + 0x98]\n  1421: a0 = a0 | s1\n  1424: u64 [sp + 408] = 0\n  1428: u64 [sp + 400] = 0\n  1432: u64 [sp + 392] = 0\n  1436: u64 [sp + 384] = 0\n  1440: a2 = u64 [sp + 0x18]\n  1443: u64 [sp + 0x1a8] = a2\n  1447: a2 = u64 [sp + 0x20]\n  1450: u64 [sp + 0x1a0] = a2\n  1454: u64 [sp + 0x1b8] = a1\n  1458: u64 [sp + 0x1b0] = a0\n  1462: a0 = sp + 0x180\n  1466: a1 = sp + 0x1a0\n  1470: ra = 28, jump @8\n      : @32 [@dyn 14] (gas: 8)\n  1475: u64 [sp + 472] = 0\n  1479: u64 [sp + 464] = 0\n  1483: u64 [sp + 456] = 0\n  1487: s1 = 0x1\n  1490: u64 [sp + 0x1c0] = s1\n  1494: a0 = sp + 0x60\n  1497: a1 = sp + 0x1c0\n  1501: ra = 30, jump @6\n      : @33 [@dyn 15] (gas: 19)\n  1506: a0 = u32 [sp + 0x74]\n  1509: a0 = a0 << 0x20\n  1512: a1 = u64 [sp + 0x78]\n  1515: a2 = u64 [sp + 0x28]\n  1518: a0 = a0 | a2\n  1521: u64 [sp + 504] = 0\n  1525: u64 [sp + 496] = 0\n  1529: u64 [sp + 488] = 0\n  1533: u64 [sp + 0x1e0] = s1\n  1537: a2 = u64 [sp + 0x30]\n  1540: a3 = sp + 0x200\n  1544: u64 [a3 + 0x8] = a2\n  1547: a2 = u64 [sp + 0x38]\n  1550: u64 [a3] = a2\n  1552: u64 [a3 + 0x18] = a1\n  1555: u64 [a3 + 0x10] = a0\n  1558: a0 = sp + 0x1e0\n  1562: a1 = sp + 0x200\n  1566: ra = 32, jump @8\n      : @34 [@dyn 16] (gas: 3)\n  1571: a0 = sp + 0x40\n  1574: a1 = 0x40\n  1577: ra = 34, jump @2\n      : @35 [@dyn 17] (gas: 12)\n  1582: a0 = u64 [sp + 0x58]\n  1585: a1 = u64 [sp + 0x50]\n  1588: a2 = u64 [sp + 0x48]\n  1591: s1 = u64 [sp + 0x40]\n  1594: a0 = a0 | a2\n  1597: a2 = s1 | a1\n  1600: a2 = a2 | a0\n  1603: a2 = a2 >> 0x20\n  1606: a0 = a0 | a1\n  1609: a0 = a0 << 0x20\n  1612: a0 = a0 | a2\n  1615: jump @39 if a0 == 0\n      : @36 (gas: 1)\n  1618: trap\n      : @37 (gas: 4)\n  1619: a1 = 0x200b0\n  1624: i32 a1 = a1 + 0\n  1626: a0 = 0x1\n  1629: jump @43\n      : @38 (gas: 4)\n  1631: a1 = 0x200b0\n  1636: i32 a1 = a1 + 0\n  1638: a0 = 0x1\n  1641: jump @43\n      : @39 (gas: 3)\n  1643: a0 = s1\n  1645: a1 = 0\n  1647: ra = 36, jump @12\n      : @40 [@dyn 18] (gas: 5)\n  1652: i32 a0 = a0 + 0\n  1654: a1 = 0\n  1656: a2 = 0\n  1658: ecalli 2 // 'call_data_copy'\n  1660: jump @0\n      : @41 (gas: 3)\n  1663: a0 = s1\n  1665: a1 = 0\n  1667: ra = 38, jump @12\n      : @42 [@dyn 19] (gas: 6)\n  1672: i32 a1 = a0 + 0\n  1674: a0 = 0\n  1676: a2 = 0\n  1678: ra = 0x28\n  1681: ecalli 12 // 'seal_return'\n  1683: jump @44\n      : @43 (gas: 4)\n  1685: a2 = 0\n  1687: ra = 0x28\n  1690: ecalli 12 // 'seal_return'\n  1692: fallthrough\n      : @44 [@dyn 20] (gas: 16)\n  1693: sp = sp + 0xfffffffffffffe10\n  1697: u64 [sp + 0x1e8] = ra\n  1701: u64 [sp + 0x1e0] = s0\n  1705: u64 [sp + 0x1d8] = s1\n  1709: s0 = sp + 0x1f0\n  1713: sp = sp + 0xffffffffffffe010\n  1717: sp = sp & 0xffffffffffffffe0\n  1720: s1 = sp\n  1722: a2 = s1 + 0x18d8\n  1726: u64 [a2 + 448] = 0\n  1730: u64 [a2 + 440] = 0\n  1734: u64 [a2 + 424] = 0x80\n  1740: a0 = 0x40\n  1743: a1 = s1 + 0x1a80\n  1747: u64 [a2 + 432] = 0\n  1751: ra = 42, jump @4\n      : @45 [@dyn 21] (gas: 4)\n  1756: a0 = 0x200a0\n  1761: u64 [s1 + 0x138] = a0\n  1765: a0 = i32 [0x200a0]\n  1770: jump @47 if a0 >=u 4\n      : @46 (gas: 1)\n  1774: jump @499\n      : @47 (gas: 6)\n  1777: a0 = s1 + 0x2000\n  1781: i32 a0 = a0 + 0xfffffffffffffaa0\n  1785: a1 = 0\n  1787: ra = 0x2c\n  1790: ecalli 3 // 'call_data_load'\n  1792: fallthrough\n      : @48 [@dyn 22] (gas: 3)\n  1793: a2 = s1 + 0x18d8\n  1797: a0 = i32 [a2 + 0x1e4]\n  1801: jump @50 if a0 != 3524403367\n      : @49 (gas: 1)\n  1808: jump @192\n      : @50 (gas: 1)\n  1811: jump @85 if a0 == 234755713\n      : @51 (gas: 1)\n  1819: jump @53 if a0 != 404098525\n      : @52 (gas: 1)\n  1826: jump @164\n      : @53 (gas: 1)\n  1829: jump @95 if a0 == 1784838210\n      : @54 (gas: 1)\n  1837: jump @56 if a0 == 1838834698\n      : @55 (gas: 1)\n  1844: jump @174\n      : @56 (gas: 8)\n  1847: u64 [a2 + 1344] = 0\n  1851: u64 [a2 + 1336] = 0\n  1855: u64 [a2 + 1328] = 0\n  1859: u64 [a2 + 1320] = 0\n  1863: a0 = s1 + 0x2000\n  1867: i32 a0 = a0 + 0xfffffffffffffe00\n  1871: ecalli 15 // 'value_transferred'\n  1873: fallthrough\n      : @57 (gas: 10)\n  1874: a3 = s1 + 0x18d8\n  1878: a4 = a3 + 0x500\n  1882: a0 = u64 [a4 + 0x38]\n  1885: a1 = u64 [a4 + 0x40]\n  1888: a2 = u64 [a4 + 0x30]\n  1891: a3 = u64 [a4 + 0x28]\n  1894: a1 = a1 | a2\n  1897: a0 = a0 | a3\n  1900: a0 = a0 | a1\n  1903: jump @59 if a0 == 0\n      : @58 (gas: 1)\n  1906: jump @486\n      : @59 (gas: 3)\n  1909: a0 = u64 [s1 + 0x138]\n  1913: a0 = i32 [a0]\n  1915: jump @61 if a0 >u 99\n      : @60 (gas: 1)\n  1919: jump @487\n      : @61 (gas: 34)\n  1922: a0 = s1 + 0x2000\n  1926: i32 a0 = a0 + 0xfffffffffffffe20\n  1930: a1 = 0x4\n  1933: ecalli 3 // 'call_data_load'\n  1935: a1 = s1 + 0x18d8\n  1939: a2 = a1 + 0x500\n  1943: a0 = u64 [a2 + 0x60]\n  1946: u64 [s1 + 0x138] = a0\n  1950: a0 = u64 [a2 + 0x58]\n  1953: u64 [s1 + 0x130] = a0\n  1957: a0 = u64 [a2 + 0x50]\n  1960: u64 [s1 + 0x128] = a0\n  1964: a0 = u64 [a2 + 0x48]\n  1967: u64 [s1 + 0x120] = a0\n  1971: a0 = s1 + 0x2000\n  1975: i32 a0 = a0 + 0xfffffffffffffe40\n  1979: a1 = 0x24\n  1982: ecalli 3 // 'call_data_load'\n  1984: a1 = s1 + 0x18d8\n  1988: a2 = a1 + 0x500\n  1992: a0 = u64 [a2 + 0x80]\n  1996: a1 = s1 + 0x100\n  2000: u64 [a1 + 0x18] = a0\n  2003: a0 = u64 [a2 + 0x78]\n  2006: u64 [a1 + 0x10] = a0\n  2009: a0 = u64 [a2 + 0x70]\n  2012: u64 [a1 + 0x8] = a0\n  2015: a0 = u64 [a2 + 0x68]\n  2018: u64 [a1] = a0\n  2020: a0 = s1 + 0x2000\n  2024: i32 a0 = a0 + 0xfffffffffffffe60\n  2028: a1 = 0x44\n  2031: ecalli 3 // 'call_data_load'\n  2033: fallthrough\n      : @62 (gas: 13)\n  2034: a0 = s1 + 0x18d8\n  2038: a1 = u64 [a0 + 0x598]\n  2042: a2 = u64 [a0 + 0x5a0]\n  2046: a0 = 0x100000000\n  2056: a0 = a0 ^ a1\n  2059: a0 = a0 | a2\n  2062: u64 [s1 + 0xf8] = a1\n  2066: a1 = a1 >> 0x20\n  2069: a1 = a1 <u 0x1\n  2072: u64 [s1 + 0xd0] = a2\n  2076: a1 = 0 if a2 != 0\n  2078: a1 = 0 if a0 == 0\n  2080: jump @64 if a1 != 0\n      : @63 (gas: 1)\n  2083: jump @488\n      : @64 (gas: 17)\n  2086: t2 = u64 [s1 + 0x128]\n  2090: t0 = u64 [s1 + 0x108]\n  2094: a0 = t2 | t0\n  2097: ra = u64 [s1 + 0x120]\n  2101: a1 = u64 [s1 + 0x100]\n  2105: a3 = ra | a1\n  2108: t1 = u64 [s1 + 0x130]\n  2112: a1 = s1 + 0x100\n  2116: a2 = u64 [a1 + 0x10]\n  2119: a2 = t1 | a2\n  2122: a5 = a3 | a2\n  2125: a3 = u64 [a1 + 0x38]\n  2128: a4 = u64 [a1 + 0x18]\n  2131: a2 = a3 | a4\n  2134: a0 = a0 | a2\n  2137: a0 = a0 | a5\n  2140: jump @66 if a0 != 0\n      : @65 (gas: 1)\n  2143: jump @202\n      : @66 (gas: 15)\n  2146: a0 = 0xffffffff\n  2156: u64 [s1 + 0xd8] = a0\n  2160: t0 = s1 + 0x18d8\n  2164: a0 = u64 [t0 + 0x590]\n  2168: u64 [s1 + 0xe8] = a0\n  2172: a0 = u64 [t0 + 0x588]\n  2176: u64 [s1 + 0xf0] = a0\n  2180: a0 = u64 [s1 + 0xf8]\n  2184: a0 = a0 << 0x20\n  2187: a0 = a0 >> 0x20\n  2190: u64 [s1 + 0xe0] = a0\n  2194: a0 = 0xffffffffffff\n  2204: u64 [s1 + 0xc8] = a0\n  2208: a0 = s1 + 0x1880\n  2212: ra = 46, jump @560\n      : @67 [@dyn 23] (gas: 42)\n  2217: a3 = s1 + 0x10b8\n  2221: a1 = a3 + 0x700\n  2225: a0 = u64 [a1 + 0xd0]\n  2229: a2 = u64 [a1 + 0xc8]\n  2233: a4 = u64 [a1 + 0xe8]\n  2237: t1 = u64 [a3 + 0x7f0]\n  2241: t0 = a3\n  2243: a5 = u64 [s1 + 0xc8]\n  2247: a3 = a0 & a5\n  2250: u64 [s1 + 0xa8] = a2\n  2254: a0 = u64 [s1 + 0x120]\n  2258: a0 = a0 <u a2\n  2261: a2 = u64 [s1 + 0x128]\n  2265: a1 = a2 ^ a3\n  2268: u64 [s1 + 0xa0] = a3\n  2272: a3 = a2 <u a3\n  2275: a3 = a0 if a1 == 0\n  2278: a2 = t1 & a5\n  2281: u64 [s1 + 0x98] = a4\n  2285: a5 = s1 + 0x100\n  2289: a0 = u64 [a5]\n  2291: a0 = a0 <u a4\n  2294: a4 = u64 [a5 + 0x8]\n  2297: a1 = a4 ^ a2\n  2300: u64 [s1 + 0x90] = a2\n  2304: a2 = a4 <u a2\n  2307: a2 = a0 if a1 == 0\n  2310: a0 = u64 [a5 + 0x38]\n  2313: a1 = u64 [a5 + 0x30]\n  2316: a0 = a0 | a1\n  2319: a3 = 0 if a0 != 0\n  2321: a0 = u64 [a5 + 0x18]\n  2324: a1 = u64 [a5 + 0x10]\n  2327: a0 = a0 | a1\n  2330: a2 = 0 if a0 != 0\n  2332: a2 = a2 & a3\n  2335: u64 [t0 + 1984] = 0\n  2339: u64 [t0 + 1976] = 0\n  2343: u64 [t0 + 0x7a8] = a2\n  2347: a0 = s1 + 0x1860\n  2351: u64 [t0 + 1968] = 0\n  2355: ra = 48, jump @621\n      : @68 [@dyn 24] (gas: 8)\n  2360: a0 = s1 + 0x18d8\n  2364: u64 [a0 + 1472] = 0\n  2368: u64 [a0 + 1464] = 0\n  2372: u64 [a0 + 1456] = 0\n  2376: u64 [a0 + 1448] = 0\n  2380: a0 = s1 + 0x1840\n  2384: a1 = s1 + 0x1e80\n  2388: ra = 50, jump @6\n      : @69 [@dyn 25] (gas: 21)\n  2393: t0 = u64 [s1 + 0xe0]\n  2397: a3 = u64 [s1 + 0xe8]\n  2401: a2 = u64 [s1 + 0xf0]\n  2405: a4 = s1 + 0x10b8\n  2409: a0 = u64 [a4 + 0x790]\n  2413: a1 = u64 [a4 + 0x788]\n  2417: a5 = u64 [a4 + 0x798]\n  2421: u64 [s1 + 0xb8] = a0\n  2425: a4 = 0xffffffffffffffff\n  2428: a0 = a0 & a4\n  2431: u64 [s1 + 0xc0] = a1\n  2435: a1 = a1 & a4\n  2438: a1 = a1 ^ a2\n  2441: a0 = a0 ^ a3\n  2444: a0 = a0 | a1\n  2447: u64 [s1 + 0xb0] = a5\n  2451: a1 = u64 [s1 + 0xd8]\n  2455: a1 = a1 & a5\n  2458: a1 = t0 ^ a1\n  2461: a0 = a0 | a1\n  2464: jump @73 if a0 == 0\n      : @70 (gas: 8)\n  2467: a1 = s1 + 0x18d8\n  2471: u64 [a1 + 1504] = 0\n  2475: u64 [a1 + 1496] = 0\n  2479: u64 [a1 + 1488] = 0\n  2483: u64 [a1 + 1480] = 0x1\n  2488: a0 = s1 + 0x1820\n  2492: a1 = s1 + 0x1ea0\n  2496: ra = 52, jump @6\n      : @71 [@dyn 26] (gas: 18)\n  2501: a2 = s1 + 0x10b8\n  2505: a3 = a2 + 0x700\n  2509: a0 = u64 [a3 + 0x70]\n  2512: a1 = u64 [a3 + 0x68]\n  2515: a2 = u64 [a3 + 0x78]\n  2518: a0 = a0 & 0xffffffffffffffff\n  2521: a1 = a1 & 0xffffffffffffffff\n  2524: a3 = u64 [s1 + 0xd8]\n  2528: a2 = a2 & a3\n  2531: a3 = u64 [s1 + 0xe0]\n  2535: a2 = a2 ^ a3\n  2538: a3 = u64 [s1 + 0xf0]\n  2542: a1 = a1 ^ a3\n  2545: a3 = u64 [s1 + 0xe8]\n  2549: a0 = a0 ^ a3\n  2552: a0 = a0 | a1\n  2555: a0 = a0 | a2\n  2558: jump @73 if a0 == 0\n      : @72 (gas: 1)\n  2561: jump @227\n      : @73 (gas: 4)\n  2564: a0 = s1 + 0x7ff\n  2568: a0 = a0 + 0x3c1\n  2572: a1 = 0x40\n  2575: ra = 54, jump @2\n      : @74 [@dyn 27] (gas: 15)\n  2580: a2 = s1 + 0x7ff\n  2584: a2 = a2 + 0xb9\n  2588: t0 = u64 [a2 + 0x320]\n  2592: a1 = a2 + 0x300\n  2596: a5 = u64 [a1 + 0x18]\n  2599: a4 = u64 [a1 + 0x10]\n  2602: a0 = u64 [a1 + 0x8]\n  2605: a3 = a4 | t0\n  2608: a1 = a0 | a5\n  2611: a1 = a1 | a3\n  2614: a1 = a1 >> 0x20\n  2617: a3 = a3 | a5\n  2620: a3 = a3 << 0x20\n  2623: a1 = a1 | a3\n  2626: jump @76 if a1 == 0\n      : @75 (gas: 1)\n  2629: jump @201\n      : @76 (gas: 12)\n  2632: u64 [a2 + 760] = 0\n  2636: u64 [a2 + 752] = 0\n  2640: u64 [a2 + 744] = 0\n  2644: a3 = 0x8c379a000000000\n  2654: a1 = s1 + 0x7ff\n  2658: a1 = a1 + 0x3a1\n  2662: u64 [a2 + 0x300] = a3\n  2666: u64 [s1 + 0x138] = a0\n  2670: u64 [s1 + 0x130] = a4\n  2674: u64 [s1 + 0x120] = t0\n  2678: u64 [s1 + 0x128] = a5\n  2682: ra = 56, jump @4\n      : @77 [@dyn 28] (gas: 1)\n  2687: t0 = 58, jump @664\n      : @78 [@dyn 29] (gas: 1)\n  2692: jump @80 if a0 != 0\n      : @79 (gas: 1)\n  2695: jump @201\n      : @80 (gas: 12)\n  2698: i32 a0 = a1 + 0x4\n  2701: a2 = s1 + 0x7ff\n  2705: a2 = a2 + 0xb9\n  2709: u64 [a2 + 736] = 0\n  2713: u64 [a2 + 728] = 0\n  2717: u64 [a2 + 712] = 0x20\n  2722: a1 = s1 + 0x7ff\n  2726: a1 = a1 + 0x381\n  2730: u64 [a2 + 720] = 0\n  2734: u64 [s1 + 0x128] = a3\n  2738: u64 [s1 + 0x120] = a4\n  2742: ra = 60, jump @4\n      : @81 [@dyn 30] (gas: 10)\n  2747: a4 = s1 + 0x100\n  2751: a3 = u64 [a4 + 0x28]\n  2754: a2 = u64 [a4 + 0x30]\n  2757: a1 = u64 [a4 + 0x38]\n  2760: a0 = u64 [a4 + 0x20]\n  2763: a0 = a0 + 0xffffffffffffffdc\n  2766: a0 = a1 <u a0\n  2769: a0 = 0 if a2 != 0\n  2771: a0 = 0 if a3 != 0\n  2773: jump @201 if a0 == 0\n      : @82 (gas: 10)\n  2777: i32 a0 = a1 + 0x24\n  2780: a3 = s1 + 0x7ff\n  2784: a3 = a3 + 0xb9\n  2788: u64 [a3 + 704] = 0\n  2792: u64 [a3 + 696] = 0\n  2796: u64 [a3 + 680] = 0xa\n  2801: a1 = s1 + 0x7ff\n  2805: a1 = a1 + 0x361\n  2809: u64 [a3 + 688] = 0\n  2813: ra = 62, jump @4\n      : @83 [@dyn 31] (gas: 9)\n  2818: a3 = s1 + 0x100\n  2822: a2 = u64 [a3 + 0x38]\n  2825: a0 = 0xffffffbc\n  2835: a0 = a2 <u a0\n  2838: a1 = u64 [a3 + 0x30]\n  2841: a0 = 0 if a1 != 0\n  2843: a1 = u64 [a3 + 0x28]\n  2846: a0 = 0 if a1 != 0\n  2848: jump @201 if a0 == 0\n      : @84 (gas: 13)\n  2852: i32 a0 = a2 + 0x44\n  2855: a1 = u64 [0x20060]\n  2860: a3 = s1 + 0x7ff\n  2864: a3 = a3 + 0xb9\n  2868: u64 [a3 + 656] = 0\n  2872: u64 [a3 + 0x2a0] = a1\n  2876: a1 = 0x544f000000000000\n  2886: u64 [a3 + 0x298] = a1\n  2890: a1 = s1 + 0x7ff\n  2894: a1 = a1 + 0x341\n  2898: u64 [a3 + 648] = 0\n  2902: ra = 0xb8\n  2906: jump @4\n      : @85 (gas: 10)\n  2909: u64 [a2 + 544] = 0\n  2913: u64 [a2 + 536] = 0\n  2917: u64 [a2 + 528] = 0\n  2921: u64 [a2 + 520] = 0\n  2925: a0 = s1 + 0x2000\n  2929: i32 a0 = a0 + 0xfffffffffffffae0\n  2933: ra = 0x40\n  2936: ecalli 15 // 'value_transferred'\n  2938: t0 = 0x42\n  2941: jump @678\n      : @86 [@dyn 32] (gas: 1)\n  2944: t0 = 66, jump @678\n      : @87 [@dyn 33] (gas: 8)\n  2949: a0 = u64 [a4 + 0x18]\n  2952: a1 = u64 [a4 + 0x20]\n  2955: a2 = u64 [a4 + 0x10]\n  2958: a3 = u64 [a4 + 0x8]\n  2961: a1 = a1 | a2\n  2964: a0 = a0 | a3\n  2967: a0 = a0 | a1\n  2970: jump @89 if a0 == 0\n      : @88 (gas: 1)\n  2973: jump @489\n      : @89 (gas: 3)\n  2976: a0 = u64 [s1 + 0x138]\n  2980: a0 = i32 [a0]\n  2982: jump @91 if a0 >u 3\n      : @90 (gas: 1)\n  2986: jump @490\n      : @91 (gas: 8)\n  2989: a0 = s1 + 0x18d8\n  2993: u64 [a0 + 576] = 0\n  2997: u64 [a0 + 568] = 0\n  3001: u64 [a0 + 560] = 0\n  3005: u64 [a0 + 552] = 0\n  3009: a0 = s1 + 0x200\n  3013: a1 = s1 + 0x1b00\n  3017: ra = 68, jump @6\n      : @92 [@dyn 34] (gas: 10)\n  3022: a1 = s1 + 0x200\n  3026: a0 = u64 [a1 + 0x10]\n  3029: u64 [s1 + 0x128] = a0\n  3033: a0 = u64 [a1 + 0x8]\n  3036: u64 [s1 + 0x138] = a0\n  3040: a0 = u64 [a1]\n  3042: u64 [s1 + 0x130] = a0\n  3046: a0 = s1 + 0x1e0\n  3050: a1 = 0x40\n  3053: ra = 70, jump @2\n      : @93 [@dyn 35] (gas: 13)\n  3058: a4 = s1 + 0x100\n  3062: a3 = u64 [a4 + 0xf8]\n  3066: a1 = u64 [a4 + 0xf0]\n  3070: a2 = u64 [a4 + 0xe8]\n  3074: a0 = u64 [a4 + 0xe0]\n  3078: a3 = a3 | a2\n  3081: a2 = a0 | a1\n  3084: a2 = a2 | a3\n  3087: a2 = a2 >> 0x20\n  3090: a1 = a1 | a3\n  3093: a1 = a1 << 0x20\n  3096: a1 = a1 | a2\n  3099: jump @201 if a1 != 0\n      : @94 (gas: 14)\n  3103: a3 = s1 + 0x100\n  3107: a1 = u64 [a3 + 0x28]\n  3110: a1 = a1 << 0x20\n  3113: a2 = a1 >> 0x20\n  3116: u64 [s1 + 472] = 0\n  3120: a1 = u64 [a3 + 0x30]\n  3123: u64 [a3 + 0xc0] = a1\n  3127: a1 = u64 [a3 + 0x38]\n  3130: u64 [a3 + 0xc8] = a1\n  3134: a1 = s1 + 0x1c0\n  3138: u64 [a3 + 0xd0] = a2\n  3142: u64 [s1 + 0x138] = a0\n  3146: ra = 0x1d6\n  3150: jump @4\n      : @95 (gas: 10)\n  3153: u64 [a2 + 672] = 0\n  3157: u64 [a2 + 664] = 0\n  3161: u64 [a2 + 656] = 0\n  3165: u64 [a2 + 648] = 0\n  3169: a0 = s1 + 0x2000\n  3173: i32 a0 = a0 + 0xfffffffffffffb60\n  3177: ra = 0x48\n  3180: ecalli 15 // 'value_transferred'\n  3182: t0 = 0x4a\n  3185: jump @678\n      : @96 [@dyn 36] (gas: 1)\n  3188: t0 = 74, jump @678\n      : @97 [@dyn 37] (gas: 8)\n  3193: a0 = u64 [a4 + 0x98]\n  3197: a1 = u64 [a4 + 0xa0]\n  3201: a2 = u64 [a4 + 0x90]\n  3205: a3 = u64 [a4 + 0x88]\n  3209: a1 = a1 | a2\n  3212: a0 = a0 | a3\n  3215: a0 = a0 | a1\n  3218: jump @99 if a0 == 0\n      : @98 (gas: 1)\n  3221: jump @491\n      : @99 (gas: 3)\n  3224: a0 = u64 [s1 + 0x138]\n  3228: a0 = i32 [a0]\n  3230: jump @101 if a0 >u 35\n      : @100 (gas: 1)\n  3234: jump @492\n      : @101 (gas: 3)\n  3237: a0 = s1 + 0x7ff\n  3241: a0 = a0 + 0x321\n  3245: ra = 76, jump @554\n      : @102 [@dyn 38] (gas: 12)\n  3250: a1 = s1 + 0x7ff\n  3254: a1 = a1 + 0xb9\n  3258: a2 = a1 + 0x200\n  3262: a0 = u64 [a2 + 0x78]\n  3265: u64 [s1 + 0xd8] = a0\n  3269: a0 = u64 [a2 + 0x70]\n  3272: u64 [s1 + 0xe0] = a0\n  3276: a0 = u64 [a2 + 0x68]\n  3279: u64 [s1 + 0xe8] = a0\n  3283: a0 = s1 + 0x7ff\n  3287: a0 = a0 + 0x2e1\n  3291: ra = 78, jump @560\n      : @103 [@dyn 39] (gas: 20)\n  3296: a1 = s1 + 0x7ff\n  3300: a1 = a1 + 0xb9\n  3304: a2 = a1 + 0x200\n  3308: a0 = u64 [a2 + 0x30]\n  3311: u64 [s1 + 0xc8] = a0\n  3315: a0 = u64 [a2 + 0x28]\n  3318: u64 [s1 + 0xf8] = a0\n  3322: a0 = u64 [a2 + 0x50]\n  3325: u64 [s1 + 0xd0] = a0\n  3329: a0 = u64 [a2 + 0x48]\n  3332: u64 [s1 + 0x100] = a0\n  3336: a0 = s1 + 0x18d8\n  3340: u64 [a0 + 704] = 0\n  3344: u64 [a0 + 696] = 0\n  3348: u64 [a0 + 688] = 0\n  3352: u64 [a0 + 680] = 0\n  3356: a0 = s1 + 0x7ff\n  3360: a0 = a0 + 0x2c1\n  3364: a1 = s1 + 0x1b80\n  3368: ra = 80, jump @6\n      : @104 [@dyn 40] (gas: 14)\n  3373: a1 = s1 + 0x7ff\n  3377: a1 = a1 + 0xb9\n  3381: a2 = a1 + 0x200\n  3385: a0 = u64 [a2 + 0x18]\n  3388: a1 = s1 + 0x100\n  3392: u64 [a1 + 0x28] = a0\n  3395: a0 = u64 [a2 + 0x10]\n  3398: u64 [a1 + 0x20] = a0\n  3401: a0 = u64 [a2 + 0x8]\n  3404: u64 [a1 + 0x30] = a0\n  3407: a0 = s1 + 0x7ff\n  3411: a0 = a0 + 0x2a1\n  3415: a1 = 0x40\n  3418: ra = 82, jump @2\n      : @105 [@dyn 41] (gas: 15)\n  3423: a2 = s1 + 0x7ff\n  3427: a2 = a2 + 0xb9\n  3431: t0 = u64 [a2 + 0x200]\n  3435: a1 = a2 + 0x100\n  3439: a5 = u64 [a1 + 0xf8]\n  3443: a4 = u64 [a1 + 0xf0]\n  3447: a0 = u64 [a1 + 0xe8]\n  3451: a3 = a4 | t0\n  3454: a1 = a0 | a5\n  3457: a1 = a1 | a3\n  3460: a1 = a1 >> 0x20\n  3463: a3 = a3 | a5\n  3466: a3 = a3 << 0x20\n  3469: a1 = a1 | a3\n  3472: jump @201 if a1 != 0\n      : @106 (gas: 12)\n  3476: u64 [a2 + 472] = 0\n  3480: u64 [a2 + 464] = 0\n  3484: u64 [a2 + 456] = 0\n  3488: a3 = 0x70a0823100000000\n  3498: a1 = s1 + 0x7ff\n  3502: a1 = a1 + 0x281\n  3506: u64 [a2 + 0x1e0] = a3\n  3510: u64 [s1 + 0x138] = a0\n  3514: u64 [s1 + 0x118] = t0\n  3518: u64 [s1 + 0x110] = a5\n  3522: u64 [s1 + 0x108] = a4\n  3526: ra = 84, jump @4\n      : @107 [@dyn 42] (gas: 7)\n  3531: a0 = 0x300b0\n  3536: u64 [s1 + 0xf0] = a0\n  3540: i32 a0 = a0 + 0\n  3542: u64 [s1 + 0xc0] = a0\n  3546: ra = 0x56\n  3549: ecalli 0 // 'address'\n  3550: fallthrough\n      : @108 [@dyn 43] (gas: 4)\n  3551: a3 = s1 + 0x100\n  3555: a4 = u64 [a3 + 0x38]\n  3558: a0 = u64 [a3 + 0x18]\n  3561: t0 = 88, jump @672\n      : @109 [@dyn 44] (gas: 1)\n  3566: jump @201 if a1 == 0\n      : @110 (gas: 5)\n  3570: a2 = u64 [s1 + 0xf0]\n  3574: a1 = u64 [a2 + 0x8]\n  3577: a0 = 0x2400000000\n  3587: u64 [s1 + 0xb8] = a0\n  3591: t0 = 90, jump @662\n      : @111 [@dyn 45] (gas: 10)\n  3596: a5 = s1 + 0x7ff\n  3600: a5 = a5 + 0xb9\n  3604: u64 [a5 + 448] = 0\n  3608: a4 = a5 + 0x100\n  3612: u64 [a4 + 0xb8] = a2\n  3616: u64 [a4 + 0xb0] = a1\n  3620: a1 = s1 + 0x7ff\n  3624: a1 = a1 + 0x261\n  3628: u64 [a4 + 0xa8] = a3\n  3632: ra = 92, jump @4\n      : @112 [@dyn 46] (gas: 3)\n  3637: ra = 0x5e\n  3640: ecalli 9 // 'ref_time_left'\n  3642: fallthrough\n      : @113 [@dyn 47] (gas: 9)\n  3643: a0 = u64 [s1 + 0x120]\n  3647: a0 = reverse a0\n  3649: a1 = a0 << 0x20\n  3652: a2 = u64 [s1 + 0x128]\n  3656: a2 = reverse a2\n  3658: a2 = a2 >> 0x20\n  3661: a1 = a1 | a2\n  3664: a2 = u64 [s1 + 0x130]\n  3668: t0 = 96, jump @666\n      : @114 [@dyn 48] (gas: 7)\n  3673: u64 [a0 + 736] = 0\n  3677: u64 [a0 + 728] = 0\n  3681: u64 [a0 + 720] = 0\n  3685: u64 [a0 + 712] = 0\n  3689: a1 = 0x24\n  3692: a0 = u64 [s1 + 0x138]\n  3696: ra = 98, jump @12\n      : @115 [@dyn 49] (gas: 4)\n  3701: u64 [s1 + 0x130] = a0\n  3705: a1 = 0x20\n  3708: a0 = u64 [s1 + 0x138]\n  3712: ra = 100, jump @12\n      : @116 [@dyn 50] (gas: 33)\n  3717: a1 = s1 + 0x18d8\n  3721: u32 [a1 + 744] = 0x20\n  3726: u64 [a1 + 800] = 0\n  3730: u64 [a1 + 792] = 0\n  3734: u64 [a1 + 784] = 0\n  3738: u64 [a1 + 776] = 0\n  3742: a1 = u64 [s1 + 0xf0]\n  3746: a1 = a1 << 0x20\n  3749: a1 = a1 >> 0x20\n  3752: a2 = 0x1800000000\n  3762: t0 = a1 | a2\n  3765: a1 = s1 + 0x1ba0\n  3769: a1 = a1 << 0x20\n  3772: a1 = a1 >> 0x20\n  3775: a2 = s1 + 0x1be0\n  3779: a2 = a2 << 0x20\n  3782: a3 = a2 | a1\n  3785: a1 = u64 [s1 + 0x130]\n  3789: a1 = a1 << 0x20\n  3792: a1 = a1 >> 0x20\n  3795: a4 = u64 [s1 + 0xb8]\n  3799: a4 = a4 | a1\n  3802: a0 = a0 << 0x20\n  3805: a0 = a0 >> 0x20\n  3808: a1 = s1 + 0x1bc0\n  3812: a1 = a1 << 0x20\n  3815: a5 = a1 | a0\n  3818: a1 = 0xffffffffffffffff\n  3821: a2 = 0xffffffffffffffff\n  3824: u64 [s1 + 0x130] = t0\n  3828: a0 = t0\n  3830: ecalli 1 // 'call'\n  3832: fallthrough\n      : @117 (gas: 1)\n  3833: jump @214 if a0 != 0\n      : @118 (gas: 2)\n  3837: ecalli 11 // 'return_data_size'\n  3839: fallthrough\n      : @119 (gas: 2)\n  3840: a5 = 0x20\n  3843: jump @121 if a0 >=u a5\n      : @120 (gas: 3)\n  3846: ecalli 11 // 'return_data_size'\n  3848: a5 = a0\n  3850: fallthrough\n      : @121 (gas: 22)\n  3851: a2 = s1 + 0x7ff\n  3855: a2 = a2 + 0xb9\n  3859: a3 = u64 [s1 + 0x138]\n  3863: t0 = u64 [s1 + 0x118]\n  3867: a0 = u64 [s1 + 0x110]\n  3871: a1 = u64 [s1 + 0x108]\n  3875: u64 [s1 + 288] = 0\n  3879: u64 [s1 + 0x128] = a5\n  3883: a4 = a2 + 0x100\n  3887: u64 [a4 + 0x48] = a5\n  3890: u64 [a4 + 0x68] = a3\n  3893: u64 [a2 + 336] = 0\n  3897: u64 [a4 + 0x70] = a1\n  3900: u64 [a2 + 344] = 0\n  3904: u64 [a4 + 0x78] = a0\n  3907: u64 [a2 + 352] = 0\n  3911: a0 = s1 + 0x7ff\n  3915: a0 = a0 + 0x221\n  3919: a1 = s1 + 0x7ff\n  3923: a1 = a1 + 0x201\n  3927: u64 [a2 + 0x180] = t0\n  3931: ra = 102, jump @563\n      : @122 [@dyn 51] (gas: 4)\n  3936: a3 = u64 [s1 + 0x120]\n  3940: a0 = a3 >u 0\n  3942: a1 = u64 [s1 + 0x128]\n  3946: t0 = 104, jump @658\n      : @123 [@dyn 52] (gas: 1)\n  3951: jump @125 if a2 != 0\n      : @124 (gas: 1)\n  3954: jump @511\n      : @125 (gas: 4)\n  3957: a0 = s1 + 0x7ff\n  3961: a0 = a0 + 0x1e1\n  3965: a1 = u64 [s1 + 0x138]\n  3969: ra = 106, jump @2\n      : @126 [@dyn 53] (gas: 20)\n  3974: a1 = s1 + 0x7ff\n  3978: a1 = a1 + 0xb9\n  3982: a2 = a1 + 0x100\n  3986: a0 = u64 [a2 + 0x40]\n  3989: u64 [s1 + 0x98] = a0\n  3993: a0 = u64 [a2 + 0x38]\n  3996: u64 [s1 + 0xa0] = a0\n  4000: a0 = u64 [a2 + 0x30]\n  4003: u64 [s1 + 0xb0] = a0\n  4007: a0 = u64 [a2 + 0x28]\n  4010: u64 [s1 + 0xa8] = a0\n  4014: a0 = s1 + 0x18d8\n  4018: u64 [a0 + 864] = 0\n  4022: u64 [a0 + 856] = 0\n  4026: u64 [a0 + 848] = 0\n  4030: u64 [a0 + 840] = 0x1\n  4035: a0 = s1 + 0x7ff\n  4039: a0 = a0 + 0x1c1\n  4043: a1 = s1 + 0x1c20\n  4047: ra = 108, jump @6\n      : @127 [@dyn 54] (gas: 14)\n  4052: a1 = s1 + 0x7ff\n  4056: a1 = a1 + 0xb9\n  4060: a2 = a1 + 0x100\n  4064: a0 = u64 [a2 + 0x18]\n  4067: a1 = s1 + 0x100\n  4071: u64 [a1 + 0x20] = a0\n  4074: a0 = u64 [a2 + 0x10]\n  4077: u64 [a1 + 0x18] = a0\n  4080: a0 = u64 [a2 + 0x8]\n  4083: u64 [a1 + 0x28] = a0\n  4086: a0 = s1 + 0x7ff\n  4090: a0 = a0 + 0x1a1\n  4094: a1 = 0x40\n  4097: ra = 110, jump @2\n      : @128 [@dyn 55] (gas: 15)\n  4102: t0 = s1 + 0x7ff\n  4106: t0 = t0 + 0xb9\n  4110: a3 = u64 [t0 + 0x100]\n  4114: a1 = t0\n  4116: a4 = u64 [a1 + 0xf8]\n  4120: a5 = u64 [a1 + 0xf0]\n  4124: a0 = u64 [a1 + 0xe8]\n  4128: a2 = a5 | a3\n  4131: a1 = a0 | a4\n  4134: a1 = a1 | a2\n  4137: a1 = a1 >> 0x20\n  4140: a2 = a2 | a4\n  4143: a2 = a2 << 0x20\n  4146: a1 = a1 | a2\n  4149: jump @201 if a1 != 0\n      : @129 (gas: 12)\n  4153: u64 [t0 + 216] = 0\n  4157: u64 [t0 + 208] = 0\n  4161: u64 [t0 + 200] = 0\n  4165: u64 [s1 + 0x90] = a3\n  4169: a3 = 0x70a0823100000000\n  4179: a1 = s1 + 0x7ff\n  4183: a1 = a1 + 0x181\n  4187: u64 [t0 + 0xe0] = a3\n  4191: u64 [s1 + 0x138] = a0\n  4195: u64 [s1 + 0x110] = a4\n  4199: u64 [s1 + 0x108] = a5\n  4203: ra = 112, jump @4\n      : @130 [@dyn 56] (gas: 4)\n  4208: a0 = u64 [s1 + 0xc0]\n  4212: ra = 0x72\n  4215: ecalli 0 // 'address'\n  4216: fallthrough\n      : @131 [@dyn 57] (gas: 4)\n  4217: a3 = s1 + 0x100\n  4221: a4 = u64 [a3 + 0x38]\n  4224: a0 = u64 [s1 + 0x90]\n  4228: t0 = 116, jump @672\n      : @132 [@dyn 58] (gas: 1)\n  4233: jump @201 if a1 == 0\n      : @133 (gas: 2)\n  4237: a2 = u64 [s1 + 0xf0]\n  4241: t0 = 118, jump @663\n      : @134 [@dyn 59] (gas: 9)\n  4246: a5 = s1 + 0x7ff\n  4250: a5 = a5 + 0xb9\n  4254: u64 [a5 + 192] = 0\n  4258: u64 [a5 + 0xb8] = a1\n  4262: u64 [a5 + 0xb0] = a2\n  4266: a1 = s1 + 0x7ff\n  4270: a1 = a1 + 0x161\n  4274: u64 [a5 + 0xa8] = a3\n  4278: ra = 120, jump @4\n      : @135 [@dyn 60] (gas: 3)\n  4283: ra = 0x7a\n  4286: ecalli 9 // 'ref_time_left'\n  4288: fallthrough\n      : @136 [@dyn 61] (gas: 9)\n  4289: a0 = u64 [s1 + 0x118]\n  4293: a0 = reverse a0\n  4295: a1 = a0 << 0x20\n  4298: a2 = u64 [s1 + 0x120]\n  4302: a2 = reverse a2\n  4304: a2 = a2 >> 0x20\n  4307: a1 = a1 | a2\n  4310: a2 = u64 [s1 + 0x128]\n  4314: t0 = 124, jump @666\n      : @137 [@dyn 62] (gas: 7)\n  4319: u64 [a0 + 896] = 0\n  4323: u64 [a0 + 888] = 0\n  4327: u64 [a0 + 880] = 0\n  4331: u64 [a0 + 872] = 0\n  4335: a1 = 0x24\n  4338: a0 = u64 [s1 + 0x138]\n  4342: ra = 126, jump @12\n      : @138 [@dyn 63] (gas: 4)\n  4347: u64 [s1 + 0x128] = a0\n  4351: a1 = 0x20\n  4354: a0 = u64 [s1 + 0x138]\n  4358: ra = 128, jump @12\n      : @139 [@dyn 64] (gas: 27)\n  4364: a1 = s1 + 0x18d8\n  4368: u32 [a1 + 904] = 0x20\n  4373: u64 [a1 + 960] = 0\n  4377: u64 [a1 + 952] = 0\n  4381: u64 [a1 + 944] = 0\n  4385: u64 [a1 + 936] = 0\n  4389: a1 = s1 + 0x1c40\n  4393: a1 = a1 << 0x20\n  4396: a1 = a1 >> 0x20\n  4399: a2 = s1 + 0x1c80\n  4403: a2 = a2 << 0x20\n  4406: a3 = a2 | a1\n  4409: a1 = u64 [s1 + 0x128]\n  4413: a1 = a1 << 0x20\n  4416: a1 = a1 >> 0x20\n  4419: a4 = u64 [s1 + 0xb8]\n  4423: a4 = a4 | a1\n  4426: a0 = a0 << 0x20\n  4429: a0 = a0 >> 0x20\n  4432: a1 = s1 + 0x1c60\n  4436: a1 = a1 << 0x20\n  4439: a5 = a1 | a0\n  4442: a1 = 0xffffffffffffffff\n  4445: a2 = 0xffffffffffffffff\n  4448: a0 = u64 [s1 + 0x130]\n  4452: ecalli 1 // 'call'\n  4454: fallthrough\n      : @140 (gas: 1)\n  4455: jump @142 if a0 == 0\n      : @141 (gas: 1)\n  4458: jump @328\n      : @142 (gas: 2)\n  4461: ecalli 11 // 'return_data_size'\n  4463: fallthrough\n      : @143 (gas: 2)\n  4464: a4 = 0x20\n  4467: jump @145 if a0 >=u a4\n      : @144 (gas: 3)\n  4470: ecalli 11 // 'return_data_size'\n  4472: a4 = a0\n  4474: fallthrough\n      : @145 (gas: 21)\n  4475: a2 = s1 + 0x7ff\n  4479: a2 = a2 + 0xb9\n  4483: a3 = u64 [s1 + 0x138]\n  4487: a0 = u64 [s1 + 0x110]\n  4491: a1 = u64 [s1 + 0x108]\n  4495: u64 [s1 + 296] = 0\n  4499: u64 [s1 + 0x130] = a4\n  4503: u64 [a2 + 0x48] = a4\n  4506: u64 [a2 + 0x68] = a3\n  4509: u64 [a2 + 80] = 0\n  4512: u64 [a2 + 0x70] = a1\n  4515: u64 [a2 + 88] = 0\n  4518: u64 [a2 + 0x78] = a0\n  4521: u64 [a2 + 96] = 0\n  4524: a0 = s1 + 0x7ff\n  4528: a0 = a0 + 0x121\n  4532: a1 = s1 + 0x7ff\n  4536: a1 = a1 + 0x101\n  4540: a4 = u64 [s1 + 0x90]\n  4544: u64 [a2 + 0x80] = a4\n  4548: ra = 130, jump @563\n      : @146 [@dyn 65] (gas: 4)\n  4554: a3 = u64 [s1 + 0x128]\n  4558: a0 = a3 >u 0\n  4560: a1 = u64 [s1 + 0x130]\n  4564: t0 = 132, jump @658\n      : @147 [@dyn 66] (gas: 1)\n  4570: jump @149 if a2 != 0\n      : @148 (gas: 1)\n  4573: jump @519\n      : @149 (gas: 6)\n  4576: a0 = 0xffffffffffff\n  4586: u64 [s1 + 0xb8] = a0\n  4590: a0 = s1 + 0x7ff\n  4594: a0 = a0 + 0xe1\n  4598: a1 = u64 [s1 + 0x138]\n  4602: ra = 134, jump @2\n      : @150 [@dyn 67] (gas: 40)\n  4608: a2 = s1 + 0x7ff\n  4612: a2 = a2 + 0xb9\n  4616: a0 = u64 [a2 + 0x40]\n  4619: u64 [s1 + 0x130] = a0\n  4623: a0 = u64 [a2 + 0x38]\n  4626: u64 [s1 + 0x138] = a0\n  4630: a0 = u64 [a2 + 0x30]\n  4633: u64 [s1 + 0x90] = a0\n  4637: a0 = u64 [a2 + 0x28]\n  4640: u64 [s1 + 0x88] = a0\n  4644: a0 = u64 [s1 + 0xc8]\n  4648: a1 = u64 [s1 + 0xb8]\n  4652: a0 = a0 & a1\n  4655: a1 = s1 + 0x1000\n  4659: u64 [a1 + 4294965400] = 0\n  4663: a1 = s1 + 0x1000\n  4667: u64 [a1 + 4294965392] = 0\n  4671: u64 [s1 + 0x128] = a0\n  4675: a1 = s1 + 0x1000\n  4679: u64 [a1 + 0xfffffffffffff888] = a0\n  4683: a0 = u64 [s1 + 0xf8]\n  4687: a1 = s1 + 0x1000\n  4691: u64 [a1 + 0xfffffffffffff880] = a0\n  4695: a0 = u64 [s1 + 0x98]\n  4699: u64 [a2] = a0\n  4701: a0 = u64 [s1 + 0xa0]\n  4705: u64 [a2 + 0xfffffffffffffff8] = a0\n  4708: a0 = u64 [s1 + 0xb0]\n  4712: a1 = s1 + 0x1000\n  4716: u64 [a1 + 0xfffffffffffff8a8] = a0\n  4720: a0 = s1 + 0x7ff\n  4724: a0 = a0 + 0xc1\n  4728: a1 = s1 + 0x7ff\n  4732: a1 = a1 + 0xa1\n  4736: a2 = s1 + 0x7ff\n  4740: a2 = a2 + 0x81\n  4744: a3 = u64 [s1 + 0xa8]\n  4748: a4 = s1 + 0x1000\n  4752: u64 [a4 + 0xfffffffffffff8a0] = a3\n  4756: ra = 136, jump @573\n      : @151 [@dyn 68] (gas: 43)\n  4762: a1 = s1 + 0x7ff\n  4766: a1 = a1 + 0xb9\n  4770: a0 = u64 [a1 + 0x20]\n  4773: u64 [s1 + 0xc8] = a0\n  4777: a0 = u64 [a1 + 0x18]\n  4780: u64 [s1 + 0xa0] = a0\n  4784: a0 = u64 [a1 + 0x10]\n  4787: u64 [s1 + 0x98] = a0\n  4791: a0 = u64 [a1 + 0x8]\n  4794: u64 [s1 + 0x80] = a0\n  4798: a0 = u64 [s1 + 0xd0]\n  4802: a1 = u64 [s1 + 0xb8]\n  4806: a0 = a0 & a1\n  4809: a1 = s1 + 0x1000\n  4813: u64 [a1 + 4294965304] = 0\n  4817: a1 = s1 + 0x1000\n  4821: u64 [a1 + 4294965296] = 0\n  4825: a2 = s1 + 0x100\n  4829: u64 [a2 + 0x18] = a0\n  4832: a1 = s1 + 0x1000\n  4836: u64 [a1 + 0xfffffffffffff828] = a0\n  4840: a0 = u64 [a2]\n  4842: a1 = s1 + 0x1000\n  4846: u64 [a1 + 0xfffffffffffff820] = a0\n  4850: a0 = u64 [a2 + 0x30]\n  4853: a1 = s1 + 0x1000\n  4857: u64 [a1 + 0xfffffffffffff858] = a0\n  4861: a0 = u64 [a2 + 0x38]\n  4864: a1 = s1 + 0x1000\n  4868: u64 [a1 + 0xfffffffffffff850] = a0\n  4872: a0 = u64 [s1 + 0x90]\n  4876: a1 = s1 + 0x1000\n  4880: u64 [a1 + 0xfffffffffffff848] = a0\n  4884: a0 = s1 + 0x7ff\n  4888: a0 = a0 + 0x61\n  4891: a1 = s1 + 0x7ff\n  4895: a1 = a1 + 0x41\n  4898: a2 = s1 + 0x7ff\n  4902: a2 = a2 + 0x21\n  4905: a3 = u64 [s1 + 0x88]\n  4909: a4 = s1 + 0x1000\n  4913: u64 [a4 + 0xfffffffffffff840] = a3\n  4917: ra = 138, jump @573\n      : @152 [@dyn 69] (gas: 21)\n  4923: a0 = s1 + 0x1000\n  4927: a0 = u64 [a0 + 0xfffffffffffff878]\n  4931: u64 [s1 + 0xd0] = a0\n  4935: a0 = s1 + 0x1000\n  4939: a0 = u64 [a0 + 0xfffffffffffff870]\n  4943: u64 [s1 + 0x78] = a0\n  4946: a0 = s1 + 0x1000\n  4950: a0 = u64 [a0 + 0xfffffffffffff868]\n  4954: u64 [s1 + 0x70] = a0\n  4957: a0 = s1 + 0x1000\n  4961: a0 = u64 [a0 + 0xfffffffffffff860]\n  4965: u64 [s1 + 0x68] = a0\n  4968: a1 = s1 + 0x18d8\n  4972: u64 [a1 + 1024] = 0\n  4976: u64 [a1 + 1016] = 0\n  4980: u64 [a1 + 1008] = 0\n  4984: u64 [a1 + 1000] = 0x3\n  4989: a0 = s1 + 0x7ff\n  4993: a0 = a0 + 0x1\n  4996: a1 = s1 + 0x1cc0\n  5000: ra = 140, jump @6\n      : @153 [@dyn 70] (gas: 12)\n  5006: a0 = s1 + 0x1000\n  5010: a5 = u64 [a0 + 0xfffffffffffff818]\n  5014: a0 = s1 + 0x1000\n  5018: a4 = u64 [a0 + 0xfffffffffffff810]\n  5022: a0 = s1 + 0x1000\n  5026: a3 = u64 [a0 + 0xfffffffffffff808]\n  5030: a0 = s1 + 0x1000\n  5034: a2 = u64 [a0 + 0xfffffffffffff800]\n  5038: a0 = a3 | a5\n  5041: a1 = a2 | a4\n  5044: a0 = a0 | a1\n  5047: jump @155 if a0 == 0\n      : @154 (gas: 1)\n  5050: jump @338\n      : @155 (gas: 20)\n  5053: a0 = u64 [s1 + 0x68]\n  5056: u64 [s1 + 0x620] = a0\n  5060: a0 = u64 [s1 + 0x80]\n  5064: u64 [s1 + 0x640] = a0\n  5068: a0 = u64 [s1 + 0x70]\n  5071: u64 [s1 + 0x628] = a0\n  5075: a0 = u64 [s1 + 0x98]\n  5079: u64 [s1 + 0x648] = a0\n  5083: a0 = u64 [s1 + 0x78]\n  5086: u64 [s1 + 0x630] = a0\n  5090: a0 = u64 [s1 + 0xa0]\n  5094: u64 [s1 + 0x650] = a0\n  5098: a0 = u64 [s1 + 0xd0]\n  5102: u64 [s1 + 0x638] = a0\n  5106: a0 = s1 + 0x660\n  5110: a1 = s1 + 0x640\n  5114: a2 = s1 + 0x620\n  5118: a3 = u64 [s1 + 0xc8]\n  5122: u64 [s1 + 0x658] = a3\n  5126: ra = 142, jump @580\n      : @156 [@dyn 71] (gas: 9)\n  5132: a4 = u64 [s1 + 0x678]\n  5136: t1 = u64 [s1 + 0x670]\n  5140: t0 = u64 [s1 + 0x660]\n  5144: a5 = u64 [s1 + 0x668]\n  5148: a0 = t1 | a4\n  5151: a1 = t0 <u 0x4\n  5154: a1 = 0 if a5 != 0\n  5156: a1 = 0 if a0 != 0\n  5158: jump @158 if a1 == 0\n      : @157 (gas: 1)\n  5161: jump @520\n      : @158 (gas: 28)\n  5164: a0 = t1 >> 0x1\n  5167: a1 = a4 << 0x3f\n  5170: a0 = a0 | a1\n  5173: a1 = a5 >> 0x1\n  5176: a2 = t1 << 0x3f\n  5179: a1 = a1 | a2\n  5182: a2 = t0 >> 0x1\n  5185: a3 = a5 << 0x3f\n  5188: a2 = a2 | a3\n  5191: t2 = a4 >> 0x1\n  5194: a3 = a2 + 0x1\n  5197: a2 = a3 <u 0x1\n  5200: a1 = a1 + a2\n  5203: a2 = s1 + 0x100\n  5207: u64 [a2 + 0x30] = a3\n  5210: u64 [a2 + 0x28] = a1\n  5213: a1 = a1 | a3\n  5216: a1 = a1 <u 0x1\n  5219: a1 = a1 + a0\n  5222: u64 [a2 + 0x38] = a1\n  5225: a0 = a1 <u a0\n  5228: a0 = a0 + t2\n  5231: u64 [s1 + 0x100] = t0\n  5235: u64 [s1 + 0xf8] = a5\n  5239: u64 [s1 + 0x108] = t1\n  5243: u64 [a2 + 0x10] = a4\n  5246: a2 = a4\n  5248: fallthrough\n      : @159 (gas: 20)\n  5249: a1 = u64 [s1 + 0x130]\n  5253: ra = t0\n  5255: a4 = a1 <u t0\n  5258: a3 = u64 [s1 + 0x128]\n  5262: a1 = a3 ^ a5\n  5265: t2 = a5\n  5267: a3 = a3 <u a5\n  5270: a3 = a4 if a1 == 0\n  5273: a1 = u64 [s1 + 0x138]\n  5277: a4 = a1 <u t1\n  5280: a5 = a0 ^ a2\n  5283: t0 = t1\n  5285: t1 = a0\n  5287: u64 [s1 + 0x118] = a2\n  5291: a0 = a0 <u a2\n  5294: a0 = a4 if a5 == 0\n  5297: a4 = a1 ^ t0\n  5300: a4 = a4 | a5\n  5303: a0 = a3 if a4 == 0\n  5306: jump @161 if a0 != 0\n      : @160 (gas: 1)\n  5309: jump @343\n      : @161 (gas: 20)\n  5312: a0 = u64 [s1 + 0x130]\n  5316: u64 [s1 + 0x320] = a0\n  5320: a0 = u64 [s1 + 0x100]\n  5324: u64 [s1 + 0x340] = a0\n  5328: a0 = u64 [s1 + 0x128]\n  5332: u64 [s1 + 0x328] = a0\n  5336: a0 = u64 [s1 + 0xf8]\n  5340: u64 [s1 + 0x348] = a0\n  5344: a0 = u64 [s1 + 0x138]\n  5348: u64 [s1 + 0x330] = a0\n  5352: a0 = u64 [s1 + 0x108]\n  5356: u64 [s1 + 0x350] = a0\n  5360: u64 [s1 + 0x120] = t1\n  5364: u64 [s1 + 0x338] = t1\n  5368: a0 = s1 + 0x360\n  5372: a1 = s1 + 0x340\n  5376: a2 = s1 + 0x320\n  5380: a3 = u64 [s1 + 0x110]\n  5384: u64 [s1 + 0x358] = a3\n  5388: ra = 144, jump @588\n      : @162 [@dyn 72] (gas: 21)\n  5394: a3 = u64 [s1 + 0x360]\n  5398: a0 = u64 [s1 + 0x368]\n  5402: a1 = u64 [s1 + 0x370]\n  5406: a2 = u64 [s1 + 0x378]\n  5410: a4 = u64 [s1 + 0x120]\n  5414: a5 = s1 + 0x200\n  5418: u64 [a5 + 0xd8] = a4\n  5422: a4 = u64 [s1 + 0x138]\n  5426: u64 [a5 + 0xd0] = a4\n  5430: a4 = u64 [s1 + 0x128]\n  5434: u64 [a5 + 0xc8] = a4\n  5438: a4 = u64 [s1 + 0x130]\n  5442: u64 [a5 + 0xc0] = a4\n  5446: u64 [a5 + 0xf8] = a2\n  5450: u64 [a5 + 0xf0] = a1\n  5454: u64 [a5 + 0xe8] = a0\n  5458: a0 = s1 + 0x300\n  5462: a1 = s1 + 0x2e0\n  5466: a2 = s1 + 0x2c0\n  5470: u64 [a5 + 0xe0] = a3\n  5474: ra = 146, jump @613\n      : @163 [@dyn 73] (gas: 23)\n  5480: a4 = s1 + 0x300\n  5484: a0 = u64 [a4 + 0x18]\n  5487: a1 = u64 [a4 + 0x10]\n  5490: a2 = u64 [a4]\n  5492: a3 = u64 [a4 + 0x8]\n  5495: a4 = a0 << 0x3f\n  5498: a5 = a1 >> 0x1\n  5501: a4 = a4 | a5\n  5504: a1 = a1 << 0x3f\n  5507: a5 = a3 >> 0x1\n  5510: a1 = a1 | a5\n  5513: a3 = a3 << 0x3f\n  5516: a2 = a2 >> 0x1\n  5519: a3 = a3 | a2\n  5522: a0 = a0 >> 0x1\n  5525: t0 = u64 [s1 + 0x130]\n  5529: a5 = u64 [s1 + 0x128]\n  5533: t1 = u64 [s1 + 0x138]\n  5537: a2 = u64 [s1 + 0x120]\n  5541: u64 [s1 + 0x130] = a3\n  5545: u64 [s1 + 0x128] = a1\n  5549: u64 [s1 + 0x138] = a4\n  5553: jump @159\n      : @164 (gas: 10)\n  5556: u64 [a2 + 608] = 0\n  5560: u64 [a2 + 600] = 0\n  5564: u64 [a2 + 592] = 0\n  5568: u64 [a2 + 584] = 0\n  5572: a0 = s1 + 0x2000\n  5576: i32 a0 = a0 + 0xfffffffffffffb20\n  5580: ra = 0x94\n  5584: ecalli 15 // 'value_transferred'\n  5586: t0 = 0x96\n  5590: jump @678\n      : @165 [@dyn 74] (gas: 1)\n  5593: t0 = 150, jump @678\n      : @166 [@dyn 75] (gas: 8)\n  5599: a0 = u64 [a4 + 0x58]\n  5602: a1 = u64 [a4 + 0x60]\n  5605: a2 = u64 [a4 + 0x50]\n  5608: a3 = u64 [a4 + 0x48]\n  5611: a1 = a1 | a2\n  5614: a0 = a0 | a3\n  5617: a0 = a0 | a1\n  5620: jump @168 if a0 == 0\n      : @167 (gas: 1)\n  5623: jump @493\n      : @168 (gas: 3)\n  5626: a0 = u64 [s1 + 0x138]\n  5630: a1 = i32 [a0]\n  5632: jump @170 if a1 >u 3\n      : @169 (gas: 1)\n  5636: jump @494\n      : @170 (gas: 8)\n  5639: a1 = s1 + 0x18d8\n  5643: u64 [a1 + 640] = 0\n  5647: u64 [a1 + 632] = 0\n  5651: u64 [a1 + 624] = 0\n  5655: u64 [a1 + 616] = 0x3\n  5660: a0 = s1 + 0x260\n  5664: a1 = s1 + 0x1b40\n  5668: ra = 152, jump @6\n      : @171 [@dyn 76] (gas: 12)\n  5674: a0 = u64 [s1 + 0x278]\n  5678: a1 = s1 + 0x100\n  5682: u64 [a1 + 0x38] = a0\n  5685: a0 = u64 [s1 + 0x270]\n  5689: u64 [a1 + 0x30] = a0\n  5692: a0 = u64 [s1 + 0x268]\n  5696: u64 [a1 + 0x28] = a0\n  5699: a0 = u64 [s1 + 0x260]\n  5703: u64 [a1 + 0x20] = a0\n  5706: a0 = s1 + 0x240\n  5710: a1 = 0x40\n  5713: ra = 154, jump @2\n      : @172 [@dyn 77] (gas: 13)\n  5719: a4 = s1 + 0x200\n  5723: a0 = u64 [a4 + 0x58]\n  5726: a1 = u64 [a4 + 0x50]\n  5729: a2 = u64 [a4 + 0x48]\n  5732: a3 = u64 [a4 + 0x40]\n  5735: a0 = a0 | a2\n  5738: a2 = a3 | a1\n  5741: a2 = a2 | a0\n  5744: a2 = a2 >> 0x20\n  5747: a0 = a0 | a1\n  5750: a0 = a0 << 0x20\n  5753: a0 = a0 | a2\n  5756: jump @201 if a0 != 0\n      : @173 (gas: 15)\n  5760: a2 = s1 + 0x100\n  5764: a0 = u64 [a2 + 0x20]\n  5767: a4 = s1 + 0x200\n  5771: u64 [a4 + 0x20] = a0\n  5774: a0 = u64 [a2 + 0x28]\n  5777: u64 [a4 + 0x28] = a0\n  5780: a0 = u64 [a2 + 0x30]\n  5783: u64 [a4 + 0x30] = a0\n  5786: a1 = s1 + 0x220\n  5790: a0 = u64 [a2 + 0x38]\n  5793: u64 [a4 + 0x38] = a0\n  5796: a0 = a3\n  5798: u64 [s1 + 0x138] = a3\n  5802: ra = 0x1d6\n  5806: jump @4\n      : @174 (gas: 1)\n  5809: jump @176 if a0 == 1889567281\n      : @175 (gas: 1)\n  5816: jump @495\n      : @176 (gas: 9)\n  5819: a0 = s1 + 0x20f8\n  5823: u64 [a0 + 96] = 0\n  5826: u64 [a0 + 88] = 0\n  5829: u64 [a0 + 80] = 0\n  5832: u64 [a0 + 72] = 0\n  5835: a0 = s1 + 0x2000\n  5839: i32 a0 = a0 + 0x140\n  5843: ecalli 15 // 'value_transferred'\n  5845: fallthrough\n      : @177 (gas: 9)\n  5846: a3 = s1 + 0x20f8\n  5850: a0 = u64 [a3 + 0x58]\n  5853: a1 = u64 [a3 + 0x60]\n  5856: a2 = u64 [a3 + 0x50]\n  5859: a3 = u64 [a3 + 0x48]\n  5862: a1 = a1 | a2\n  5865: a0 = a0 | a3\n  5868: a0 = a0 | a1\n  5871: jump @179 if a0 == 0\n      : @178 (gas: 1)\n  5874: jump @502\n      : @179 (gas: 3)\n  5877: a0 = u64 [s1 + 0x138]\n  5881: a0 = i32 [a0]\n  5883: jump @181 if a0 >u 35\n      : @180 (gas: 1)\n  5887: jump @503\n      : @181 (gas: 2)\n  5890: a0 = s1 + 0x1a00\n  5894: ra = 156, jump @554\n      : @182 [@dyn 78] (gas: 12)\n  5900: a3 = s1 + 0x18d8\n  5904: a4 = a3 + 0x100\n  5908: a0 = u64 [a4 + 0x28]\n  5911: a1 = u64 [a4 + 0x30]\n  5914: a2 = u32 [a3 + 0x138]\n  5918: u64 [a3 + 288] = 0\n  5922: u64 [a4 + 0x18] = a2\n  5925: u64 [a4 + 0x10] = a1\n  5928: a1 = s1 + 0x19e0\n  5932: u64 [a4 + 0x8] = a0\n  5935: a0 = 0\n  5937: ra = 158, jump @4\n      : @183 [@dyn 79] (gas: 9)\n  5943: a1 = s1 + 0x18d8\n  5947: u64 [a1 + 256] = 0\n  5951: u64 [a1 + 248] = 0\n  5955: u64 [a1 + 232] = 0x4\n  5960: a2 = a1\n  5962: a0 = 0x20\n  5965: a1 = s1 + 0x19c0\n  5969: u64 [a2 + 240] = 0\n  5973: ra = 160, jump @4\n      : @184 [@dyn 80] (gas: 2)\n  5979: a1 = i32 [0x200a4]\n  5984: jump @186 if a1 >u 63\n      : @185 (gas: 2)\n  5988: u32 [0x200a4] = 0x40\n  5994: fallthrough\n      : @186 (gas: 13)\n  5995: a0 = sp + 0xffffffffffffffe0\n  5998: a2 = a0 & 0xffffffffffffffe0\n  6001: u64 [s1 + 0x138] = a2\n  6005: sp = a2\n  6007: a0 = 0x200b0\n  6012: i32 a0 = a0 + 0\n  6014: i32 a2 = a2 + 0\n  6016: a1 = 0x40\n  6019: ra = 0xa2\n  6023: ecalli 8 // 'hash_keccak_256'\n  6025: a3 = u64 [s1 + 0x138]\n  6029: t0 = 0xa4\n  6033: jump @670\n      : @187 [@dyn 81] (gas: 2)\n  6036: a3 = u64 [s1 + 0x138]\n  6040: t0 = 164, jump @670\n      : @188 [@dyn 82] (gas: 9)\n  6046: i32 a4 = a4 + 0xf8\n  6050: a4 = a4 + s1\n  6053: u64 [a4 + 0x80] = a3\n  6057: u64 [a4 + 0x78] = a2\n  6060: u64 [a4 + 0x70] = a1\n  6063: u64 [a4 + 0x68] = a0\n  6066: a0 = s1 + 0x19a0\n  6070: a1 = s1 + 0x2160\n  6074: ra = 166, jump @6\n      : @189 [@dyn 83] (gas: 13)\n  6080: a1 = s1 + 0x18d8\n  6084: a0 = u64 [a1 + 0xe0]\n  6088: a2 = s1 + 0x100\n  6092: u64 [a2 + 0x38] = a0\n  6095: a0 = u64 [a1 + 0xd8]\n  6099: u64 [a2 + 0x30] = a0\n  6102: a0 = u64 [a1 + 0xd0]\n  6106: u64 [a2 + 0x28] = a0\n  6109: a0 = u64 [a1 + 0xc8]\n  6113: u64 [a2 + 0x20] = a0\n  6116: a0 = s1 + 0x1980\n  6120: a1 = 0x40\n  6123: ra = 168, jump @2\n      : @190 [@dyn 84] (gas: 13)\n  6129: a3 = s1 + 0x18d8\n  6133: a0 = u64 [a3 + 0xc0]\n  6137: a1 = u64 [a3 + 0xb8]\n  6141: a2 = u64 [a3 + 0xb0]\n  6145: a4 = u64 [a3 + 0xa8]\n  6149: a0 = a0 | a2\n  6152: a2 = a4 | a1\n  6155: a2 = a2 | a0\n  6158: a2 = a2 >> 0x20\n  6161: a0 = a0 | a1\n  6164: a0 = a0 << 0x20\n  6167: a0 = a0 | a2\n  6170: jump @201 if a0 != 0\n      : @191 (gas: 14)\n  6174: a2 = s1 + 0x100\n  6178: a0 = u64 [a2 + 0x20]\n  6181: u64 [a3 + 0x88] = a0\n  6185: a0 = u64 [a2 + 0x28]\n  6188: u64 [a3 + 0x90] = a0\n  6192: a0 = u64 [a2 + 0x30]\n  6195: u64 [a3 + 0x98] = a0\n  6199: a1 = s1 + 0x1960\n  6203: a0 = u64 [a2 + 0x38]\n  6206: u64 [a3 + 0xa0] = a0\n  6210: a0 = a4\n  6212: u64 [a2 + 0x38] = a4\n  6215: ra = 0x1d6\n  6219: jump @4\n      : @192 (gas: 9)\n  6222: a0 = s1 + 0x20f8\n  6226: u64 [a0 + 160] = 0\n  6230: u64 [a0 + 152] = 0\n  6234: u64 [a0 + 144] = 0\n  6238: u64 [a0 + 136] = 0\n  6242: a0 = s1 + 0x2000\n  6246: i32 a0 = a0 + 0x180\n  6250: ecalli 15 // 'value_transferred'\n  6252: fallthrough\n      : @193 (gas: 9)\n  6253: a3 = s1 + 0x20f8\n  6257: a0 = u64 [a3 + 0x98]\n  6261: a1 = u64 [a3 + 0xa0]\n  6265: a2 = u64 [a3 + 0x90]\n  6269: a3 = u64 [a3 + 0x88]\n  6273: a1 = a1 | a2\n  6276: a0 = a0 | a3\n  6279: a0 = a0 | a1\n  6282: jump @195 if a0 == 0\n      : @194 (gas: 1)\n  6285: jump @504\n      : @195 (gas: 3)\n  6288: a0 = u64 [s1 + 0x138]\n  6292: a0 = i32 [a0]\n  6294: jump @197 if a0 >u 3\n      : @196 (gas: 1)\n  6298: jump @505\n      : @197 (gas: 8)\n  6301: a1 = s1 + 0x20f8\n  6305: u64 [a1 + 192] = 0\n  6309: u64 [a1 + 184] = 0\n  6313: u64 [a1 + 176] = 0\n  6317: u64 [a1 + 168] = 0x1\n  6322: a0 = s1 + 0x1a60\n  6326: a1 = s1 + 0x21a0\n  6330: ra = 170, jump @6\n      : @198 [@dyn 85] (gas: 12)\n  6336: a1 = s1 + 0x18d8\n  6340: a2 = a1 + 0x100\n  6344: a0 = u64 [a2 + 0x98]\n  6348: a1 = s1 + 0x100\n  6352: u64 [a1 + 0x28] = a0\n  6355: a0 = u64 [a2 + 0x90]\n  6359: u64 [a1 + 0x38] = a0\n  6362: a0 = u64 [a2 + 0x88]\n  6366: u64 [a1 + 0x30] = a0\n  6369: a0 = s1 + 0x1a40\n  6373: a1 = 0x40\n  6376: ra = 172, jump @2\n      : @199 [@dyn 86] (gas: 14)\n  6382: a3 = s1 + 0x18d8\n  6386: a5 = a3 + 0x100\n  6390: a4 = u64 [a5 + 0x80]\n  6394: a1 = u64 [a5 + 0x78]\n  6397: a2 = u64 [a5 + 0x70]\n  6400: a0 = u64 [a5 + 0x68]\n  6403: a4 = a4 | a2\n  6406: a2 = a0 | a1\n  6409: a2 = a2 | a4\n  6412: a2 = a2 >> 0x20\n  6415: a1 = a1 | a4\n  6418: a1 = a1 << 0x20\n  6421: a1 = a1 | a2\n  6424: jump @201 if a1 != 0\n      : @200 (gas: 1)\n  6427: jump @506\n      : @201 (gas: 1)\n  6430: trap\n      : @202 (gas: 3)\n  6431: a0 = s1 + 0x1940\n  6435: a1 = 0x40\n  6438: ra = 174, jump @2\n      : @203 [@dyn 87] (gas: 13)\n  6444: a2 = s1 + 0x18d8\n  6448: t0 = u64 [a2 + 0x80]\n  6452: a5 = u64 [a2 + 0x78]\n  6455: a4 = u64 [a2 + 0x70]\n  6458: a0 = u64 [a2 + 0x68]\n  6461: a3 = a4 | t0\n  6464: a1 = a0 | a5\n  6467: a1 = a1 | a3\n  6470: a1 = a1 >> 0x20\n  6473: a3 = a3 | a5\n  6476: a3 = a3 << 0x20\n  6479: a1 = a1 | a3\n  6482: jump @201 if a1 != 0\n      : @204 (gas: 11)\n  6485: u64 [a2 + 88] = 0\n  6488: u64 [a2 + 80] = 0\n  6491: u64 [a2 + 72] = 0\n  6494: a3 = 0x8c379a000000000\n  6504: a1 = s1 + 0x1920\n  6508: u64 [a2 + 0x60] = a3\n  6511: u64 [s1 + 0x138] = a0\n  6515: u64 [s1 + 0x130] = a4\n  6519: u64 [s1 + 0x120] = t0\n  6523: u64 [s1 + 0x128] = a5\n  6527: ra = 176, jump @4\n      : @205 [@dyn 88] (gas: 1)\n  6533: t0 = 178, jump @664\n      : @206 [@dyn 89] (gas: 1)\n  6539: jump @201 if a0 == 0\n      : @207 (gas: 11)\n  6542: i32 a0 = a1 + 0x4\n  6545: a2 = s1 + 0x18d8\n  6549: a5 = 0\n  6551: u64 [a2 + 64] = 0\n  6554: u64 [a2 + 56] = 0\n  6557: u64 [a2 + 40] = 0x20\n  6561: a1 = s1 + 0x1900\n  6565: u64 [a2 + 48] = 0\n  6568: u64 [s1 + 0x128] = a3\n  6572: u64 [s1 + 0x120] = a4\n  6576: ra = 180, jump @4\n      : @208 [@dyn 90] (gas: 10)\n  6582: a2 = s1 + 0x100\n  6586: a4 = u64 [a2 + 0x28]\n  6589: a3 = u64 [a2 + 0x30]\n  6592: a1 = u64 [a2 + 0x38]\n  6595: a0 = u64 [a2 + 0x20]\n  6598: a0 = a0 + 0xffffffffffffffdc\n  6601: a0 = a1 <u a0\n  6604: a0 = 0 if a3 != 0\n  6606: a0 = 0 if a4 != 0\n  6608: jump @201 if a0 == 0\n      : @209 (gas: 8)\n  6612: i32 a0 = a1 + 0x24\n  6615: a2 = s1 + 0x18d8\n  6619: u64 [a2 + 32] = 0\n  6622: u64 [a2 + 24] = 0\n  6625: u64 [a2 + 8] = 0x1a\n  6629: a1 = s1 + 0x18e0\n  6633: u64 [a2 + 16] = 0\n  6636: ra = 182, jump @4\n      : @210 [@dyn 91] (gas: 9)\n  6642: a2 = s1 + 0x100\n  6646: a3 = u64 [a2 + 0x38]\n  6649: a0 = 0xffffffbc\n  6659: a0 = a3 <u a0\n  6662: a1 = u64 [a2 + 0x30]\n  6665: a0 = 0 if a1 != 0\n  6667: a1 = u64 [a2 + 0x28]\n  6670: a0 = 0 if a1 != 0\n  6672: jump @201 if a0 == 0\n      : @211 (gas: 13)\n  6676: i32 a0 = a3 + 0x44\n  6679: a1 = u64 [0x20000]\n  6684: a2 = u64 [0x20008]\n  6689: a3 = u64 [0x20010]\n  6694: a4 = s1 + 0x18d8\n  6698: u64 [a4] = a1\n  6700: a5 = a4 + 0xffffffffffffff00\n  6704: u64 [a5 + 0xf8] = a2\n  6708: u64 [a5 + 0xf0] = a3\n  6712: a2 = 0x4e54000000000000\n  6722: a1 = s1 + 0x18c0\n  6726: u64 [a5 + 0xe8] = a2\n  6730: ra = 184, jump @4\n      : @212 [@dyn 92] (gas: 3)\n  6736: a1 = 0x64\n  6739: a0 = u64 [s1 + 0x138]\n  6743: ra = 186, jump @12\n      : @213 [@dyn 93] (gas: 5)\n  6749: i32 a1 = a0 + 0\n  6751: a0 = 0x1\n  6754: a2 = 0x64\n  6757: ecalli 12 // 'seal_return'\n  6759: fallthrough\n      : @214 (gas: 4)\n  6760: a0 = s1 + 0x7ff\n  6764: a0 = a0 + 0x241\n  6768: a1 = 0x40\n  6771: ra = 188, jump @2\n      : @215 [@dyn 94] (gas: 15)\n  6777: a0 = s1 + 0x7ff\n  6781: a0 = a0 + 0xb9\n  6785: a2 = a0 + 0x100\n  6789: a1 = u64 [a2 + 0xa0]\n  6793: u64 [s1 + 0x130] = a1\n  6797: a1 = u64 [a2 + 0x98]\n  6801: u64 [s1 + 0x128] = a1\n  6805: a1 = u64 [a2 + 0x90]\n  6809: u64 [s1 + 0x120] = a1\n  6813: a0 = u64 [a2 + 0x88]\n  6817: u64 [s1 + 0x138] = a0\n  6821: ra = 0xbe\n  6825: ecalli 11 // 'return_data_size'\n  6827: t0 = 0xc0\n  6831: jump @661\n      : @216 [@dyn 95] (gas: 1)\n  6834: t0 = 192, jump @661\n      : @217 [@dyn 96] (gas: 1)\n  6840: jump @201 if a1 != 0\n      : @218 (gas: 3)\n  6844: a2 = a0\n  6846: a0 = a0 >> 0x20\n  6849: jump @201 if a0 != 0\n      : @219 (gas: 1)\n  6853: t0 = 194, jump @668\n      : @220 [@dyn 97] (gas: 1)\n  6859: ra = 196, jump @12\n      : @221 [@dyn 98] (gas: 11)\n  6865: a1 = s1 + 0x18d8\n  6869: a2 = u64 [s1 + 0x128]\n  6873: u32 [a1 + 0x328] = a2\n  6877: i32 a0 = a0 + 0\n  6879: a1 = s1 + 0x2000\n  6883: i32 a1 = a1 + 0xfffffffffffffc00\n  6887: a2 = 0\n  6889: ecalli 10 // 'return_data_copy'\n  6891: a0 = s1 + 0x18d8\n  6895: a0 = i32 [a0 + 0x328]\n  6899: fallthrough\n      : @222 (gas: 2)\n  6900: a1 = u64 [s1 + 0x130]\n  6904: jump @201 if a0 <u a1\n      : @223 (gas: 2)\n  6908: ecalli 11 // 'return_data_size'\n  6910: fallthrough\n      : @224 (gas: 3)\n  6911: a1 = a0\n  6913: a0 = a0 >> 0x20\n  6916: jump @201 if a0 != 0\n      : @225 (gas: 3)\n  6920: a0 = u64 [s1 + 0x138]\n  6924: u64 [s1 + 0x130] = a1\n  6928: ra = 198, jump @12\n      : @226 [@dyn 99] (gas: 7)\n  6934: i32 a1 = a0 + 0\n  6936: a2 = i32 [s1 + 0x130]\n  6940: a0 = 0x1\n  6943: ecalli 12 // 'seal_return'\n  6945: a0 = s1 + 0x180\n  6949: ra = 0x1da\n  6953: jump @560\n      : @227 (gas: 9)\n  6956: a3 = s1 + 0x100\n  6960: a0 = u64 [a3 + 0x30]\n  6963: a1 = u64 [a3 + 0x20]\n  6966: a0 = a0 | a1\n  6969: a1 = u64 [a3 + 0x38]\n  6972: a2 = u64 [a3 + 0x28]\n  6975: a1 = a1 | a2\n  6978: a0 = a0 | a1\n  6981: jump @242 if a0 == 0\n      : @228 (gas: 3)\n  6985: a0 = s1 + 0x1800\n  6989: a1 = 0x40\n  6992: ra = 200, jump @2\n      : @229 [@dyn 100] (gas: 23)\n  6998: t2 = s1 + 0x10b8\n  7002: t0 = u64 [t2 + 0x748]\n  7006: a3 = u64 [t2 + 0x760]\n  7010: t1 = u64 [t2 + 0x750]\n  7014: a4 = u64 [t2 + 0x758]\n  7018: a5 = t0 + 0x20\n  7021: a0 = a5 <u t0\n  7024: a1 = t1 + a0\n  7027: a2 = a1 <u t1\n  7030: a2 = a0 if a0 == 0\n  7033: a2 = a2 + a4\n  7036: u64 [s1 + 0x80] = a4\n  7040: a0 = a2 <u a4\n  7043: u64 [s1 + 0x88] = a3\n  7047: a0 = a0 + a3\n  7050: a3 = a5 | a2\n  7053: a0 = a0 | a1\n  7056: a3 = a3 | a0\n  7059: a3 = a3 >> 0x20\n  7062: a0 = a0 | a2\n  7065: a0 = a0 << 0x20\n  7068: a0 = a0 | a3\n  7071: jump @201 if a0 != 0\n      : @230 (gas: 11)\n  7075: u64 [t2 + 1848] = 0\n  7079: u64 [t2 + 1840] = 0\n  7083: u64 [t2 + 1832] = 0\n  7087: a0 = 0xa9059cbb00000000\n  7097: a1 = s1 + 0x17e0\n  7101: u64 [t2 + 0x740] = a0\n  7105: u64 [s1 + 0x70] = a5\n  7108: a0 = a5\n  7110: u64 [s1 + 0xd8] = t0\n  7114: u64 [s1 + 0x78] = t1\n  7117: ra = 202, jump @4\n      : @231 [@dyn 101] (gas: 40)\n  7123: a0 = u64 [s1 + 0xd8]\n  7127: a0 = a0 + 0x24\n  7130: a1 = u64 [s1 + 0xd8]\n  7134: a1 = a0 <u a1\n  7137: a2 = u64 [s1 + 0x78]\n  7140: a2 = a2 + a1\n  7143: a3 = u64 [s1 + 0x78]\n  7146: a3 = a2 <u a3\n  7149: a3 = a1 if a1 == 0\n  7152: a1 = u64 [s1 + 0x80]\n  7156: a3 = a3 + a1\n  7159: a1 = a3 <u a1\n  7162: a4 = u64 [s1 + 0x88]\n  7166: a1 = a1 + a4\n  7169: a4 = u64 [s1 + 0x138]\n  7173: a5 = s1 + 0x10b8\n  7177: u64 [a5 + 0x6c0] = a4\n  7181: a4 = u64 [s1 + 0x130]\n  7185: u64 [a5 + 0x6b8] = a4\n  7189: a4 = u64 [s1 + 0x128]\n  7193: u64 [a5 + 0x6b0] = a4\n  7197: a4 = u64 [s1 + 0x120]\n  7201: u64 [a5 + 0x6a8] = a4\n  7205: a4 = u64 [s1 + 0xd0]\n  7209: u64 [a5 + 0x6e0] = a4\n  7213: a4 = u64 [s1 + 0xf8]\n  7217: u64 [a5 + 0x6d8] = a4\n  7221: a4 = u64 [s1 + 0xe8]\n  7225: u64 [a5 + 0x6d0] = a4\n  7229: u64 [a5 + 0x6f0] = a2\n  7233: u64 [a5 + 0x6e8] = a0\n  7237: u64 [a5 + 0x6f8] = a3\n  7241: u64 [a5 + 0x700] = a1\n  7245: a0 = s1 + 0x17c0\n  7249: a1 = s1 + 0x17a0\n  7253: a2 = s1 + 0x1780\n  7257: a3 = s1 + 0x1760\n  7261: a4 = u64 [s1 + 0xf0]\n  7265: u64 [a5 + 0x6c8] = a4\n  7269: ra = 204, jump @635\n      : @232 [@dyn 102] (gas: 12)\n  7275: a5 = u64 [s1 + 0x78]\n  7278: a4 = u64 [s1 + 0xd8]\n  7282: a2 = u64 [s1 + 0x80]\n  7286: a0 = a4 | a2\n  7289: a1 = u64 [s1 + 0x88]\n  7293: a1 = a1 | a5\n  7296: a0 = a0 | a1\n  7299: a0 = a0 >> 0x20\n  7302: a1 = a1 | a2\n  7305: a1 = a1 << 0x20\n  7308: a0 = a0 | a1\n  7311: jump @201 if a0 != 0\n      : @233 (gas: 51)\n  7315: a0 = s1 + 0x10b8\n  7319: t2 = u64 [a0 + 0x708]\n  7323: a2 = a0 + 0x700\n  7327: a3 = u64 [a2 + 0x10]\n  7330: a1 = u64 [a2 + 0x20]\n  7333: u64 [s1 + 0x68] = a1\n  7336: a1 = u64 [a2 + 0x18]\n  7339: ra = t2 <u a4\n  7342: a0 = a3 ^ a5\n  7345: a2 = a3 <u a5\n  7348: a2 = ra if a0 == 0\n  7351: a0 = u64 [s1 + 0x80]\n  7355: t1 = a1 - a0\n  7358: t0 = t1 <u a2\n  7361: a4 = a1 <u a0\n  7364: a0 = u64 [s1 + 0x88]\n  7368: a1 = u64 [s1 + 0x68]\n  7371: a0 = a1 - a0\n  7374: a0 = a0 - a4\n  7377: t0 = a0 - t0\n  7380: u64 [s1 + 0x58] = t0\n  7383: t1 = t1 - a2\n  7386: a0 = a3 - a5\n  7389: a3 = a0 - ra\n  7392: u64 [s1 + 0x60] = a3\n  7395: a0 = u64 [s1 + 0xd8]\n  7399: a1 = t2 - a0\n  7402: u64 [s1 + 0x68] = a1\n  7405: a5 = a1 + 0xffffffffffffffe0\n  7408: a1 = a5 <u a1\n  7411: a2 = a3 + a1\n  7414: a2 = a2 + 0xffffffffffffffff\n  7417: t2 = a2 ^ a3\n  7420: a4 = a2 <u a3\n  7423: a4 = a1 if t2 == 0\n  7426: a3 = t1\n  7428: u64 [s1 + 0x50] = t1\n  7431: a1 = t1 <u 0x1\n  7434: t1 = t0 - a1\n  7437: a1 = a3 + 0xffffffffffffffff\n  7440: a4 = a4 + a1\n  7443: a3 = a4 <u a1\n  7446: t0 = t1 + a3\n  7449: a3 = s1 + 0x10b8\n  7453: a1 = a3 + 0x600\n  7457: u64 [a1 + 0x88] = a5\n  7461: u64 [a1 + 0x90] = a2\n  7465: u64 [a1 + 0x98] = a4\n  7469: a1 = s1 + 0x1740\n  7473: u64 [a3 + 0x6a0] = t0\n  7477: ra = 206, jump @4\n      : @234 [@dyn 103] (gas: 22)\n  7483: a0 = s1 + 0x10b8\n  7487: a1 = u64 [s1 + 0x58]\n  7490: a2 = a0 + 0x600\n  7494: u64 [a2 + 0x60] = a1\n  7497: a1 = u64 [s1 + 0x50]\n  7500: u64 [a2 + 0x58] = a1\n  7503: a1 = u64 [s1 + 0x60]\n  7506: u64 [a2 + 0x50] = a1\n  7509: a1 = u64 [s1 + 0x68]\n  7512: u64 [a2 + 0x48] = a1\n  7515: a1 = u64 [s1 + 0x88]\n  7519: u64 [a2 + 0x80] = a1\n  7523: a1 = u64 [s1 + 0x80]\n  7527: u64 [a2 + 0x78] = a1\n  7530: a1 = u64 [s1 + 0x78]\n  7533: u64 [a2 + 0x70] = a1\n  7536: a3 = a0\n  7538: a0 = s1 + 0x1720\n  7542: a1 = s1 + 0x1700\n  7546: a2 = u64 [s1 + 0xd8]\n  7550: u64 [a3 + 0x668] = a2\n  7554: ra = 208, jump @563\n      : @235 [@dyn 104] (gas: 3)\n  7560: a0 = s1 + 0x16e0\n  7564: a1 = u64 [s1 + 0xd8]\n  7568: ra = 210, jump @2\n      : @236 [@dyn 105] (gas: 12)\n  7574: a1 = s1 + 0x10b8\n  7578: a2 = a1 + 0x600\n  7582: a0 = u64 [a2 + 0x40]\n  7585: u64 [s1 + 0x88] = a0\n  7589: a0 = u64 [a2 + 0x38]\n  7592: u64 [s1 + 0x80] = a0\n  7596: a0 = u64 [a2 + 0x30]\n  7599: u64 [s1 + 0x78] = a0\n  7602: a0 = u64 [a2 + 0x28]\n  7605: u64 [s1 + 0xd8] = a0\n  7609: ecalli 9 // 'ref_time_left'\n  7611: fallthrough\n      : @237 (gas: 36)\n  7612: t0 = a0\n  7614: a0 = u64 [s1 + 0xb8]\n  7618: a0 = reverse a0\n  7620: a1 = a0 << 0x20\n  7623: a2 = u64 [s1 + 0xb0]\n  7627: a2 = reverse a2\n  7629: a2 = a2 >> 0x20\n  7632: a1 = a1 | a2\n  7635: a2 = u64 [s1 + 0xc0]\n  7639: a2 = reverse a2\n  7641: a3 = a2 << 0x20\n  7644: a4 = 0x300b0\n  7649: a0 = a0 >> 0x20\n  7652: a0 = a0 | a3\n  7655: a2 = a2 >> 0x20\n  7658: u64 [0x300b8] = a0\n  7663: u64 [0x300b0] = a1\n  7668: u32 [0x300c0] = a2\n  7673: a2 = s1 + 0x18d8\n  7677: u64 [a2 + 1536] = 0\n  7681: u64 [a2 + 1528] = 0\n  7685: u64 [a2 + 1520] = 0\n  7689: a0 = u64 [s1 + 0x88]\n  7693: a5 = u64 [s1 + 0x78]\n  7696: a5 = a5 | a0\n  7699: a1 = u64 [s1 + 0xd8]\n  7703: a3 = a1\n  7705: a0 = u64 [s1 + 0x80]\n  7709: a1 = a1 | a0\n  7712: a1 = a1 | a5\n  7715: a1 = a1 >> 0x20\n  7718: a0 = a0 | a5\n  7721: a0 = a0 << 0x20\n  7724: a0 = a0 | a1\n  7727: u64 [a2 + 1512] = 0\n  7731: jump @201 if a0 != 0\n      : @238 (gas: 7)\n  7735: a1 = a3\n  7737: i32 a0 = a3 + 0\n  7739: u64 [s1 + 0xb8] = a0\n  7743: a0 = u64 [s1 + 0x70]\n  7746: u64 [s1 + 0xb0] = t0\n  7750: u64 [s1 + 0xc0] = a4\n  7754: ra = 212, jump @12\n      : @239 [@dyn 106] (gas: 42)\n  7760: a1 = a0\n  7762: a3 = s1 + 0x18d8\n  7766: u32 [a3 + 1544] = 0\n  7770: a0 = u64 [s1 + 0xb8]\n  7774: a0 = a0 >u 0\n  7776: a4 = u64 [s1 + 0xb0]\n  7780: a2 = a4 >u 0x8fc\n  7784: a0 = a0 | a2\n  7787: a2 = -a0\n  7789: a4 = a3 + 0x600\n  7793: u64 [a4 + 0x40] = a2\n  7796: u64 [a4 + 0x38] = a2\n  7799: u64 [a4 + 0x30] = a2\n  7802: u64 [a4 + 0x28] = a2\n  7805: a2 = u64 [s1 + 0xc0]\n  7809: a2 = a2 << 0x20\n  7812: a2 = a2 >> 0x20\n  7815: a0 = a0 << 0x23\n  7818: a0 = a0 | a2\n  7821: a2 = s1 + 0x1ec0\n  7825: a2 = a2 << 0x20\n  7828: a2 = a2 >> 0x20\n  7831: a3 = s1 + 0x1f00\n  7835: a3 = a3 << 0x20\n  7838: a3 = a3 | a2\n  7841: a1 = a1 << 0x20\n  7844: a2 = 0x200b0\n  7849: a1 = a1 >> 0x20\n  7852: a4 = u64 [s1 + 0xd8]\n  7856: a4 = a4 << 0x20\n  7859: a4 = a4 | a1\n  7862: a2 = a2 << 0x20\n  7865: a2 = a2 >> 0x20\n  7868: a1 = s1 + 0x1ee0\n  7872: a1 = a1 << 0x20\n  7875: a5 = a1 | a2\n  7878: a1 = 0xffffffffffffffff\n  7881: a2 = 0xffffffffffffffff\n  7884: ecalli 1 // 'call'\n  7886: u64 [s1 + 0xd8] = a0\n  7890: a0 = s1 + 0x16c0\n  7894: ra = 214, jump @641\n      : @240 [@dyn 107] (gas: 2)\n  7900: a0 = u64 [s1 + 0xd8]\n  7904: jump @242 if a0 == 0\n      : @241 (gas: 1)\n  7907: jump @391\n      : @242 (gas: 9)\n  7910: a3 = s1 + 0x100\n  7914: a0 = u64 [a3 + 0x10]\n  7917: a1 = u64 [a3]\n  7919: a0 = a0 | a1\n  7922: a1 = u64 [a3 + 0x18]\n  7925: a2 = u64 [a3 + 0x8]\n  7928: a1 = a1 | a2\n  7931: a0 = a0 | a1\n  7934: jump @296 if a0 != 0\n      : @243 (gas: 8)\n  7938: a0 = s1 + 0x18d8\n  7942: u64 [a0 + 1760] = 0\n  7946: u64 [a0 + 1752] = 0\n  7950: u64 [a0 + 1744] = 0\n  7954: u64 [a0 + 1736] = 0\n  7958: a0 = s1 + 0x13e0\n  7962: a1 = s1 + 0x1fa0\n  7966: ra = 216, jump @6\n      : @244 [@dyn 108] (gas: 3)\n  7972: t0 = 0xda\n  7976: a1 = s1 + 0x10b8\n  7980: fallthrough\n      : @245 [@dyn 109] (gas: 10)\n  7981: a2 = a1 + 0x300\n  7985: a0 = u64 [a2 + 0x38]\n  7988: u64 [s1 + 0xc0] = a0\n  7992: a0 = u64 [a2 + 0x30]\n  7995: u64 [s1 + 0xb8] = a0\n  7999: a0 = u64 [a2 + 0x28]\n  8002: u64 [s1 + 0xd0] = a0\n  8006: a0 = s1 + 0x13c0\n  8010: a1 = 0x40\n  8013: ra = 220, jump @2\n      : @246 [@dyn 110] (gas: 14)\n  8019: a2 = s1 + 0x10b8\n  8023: t0 = u64 [a2 + 0x320]\n  8027: a1 = a2 + 0x300\n  8031: a5 = u64 [a1 + 0x18]\n  8034: a4 = u64 [a1 + 0x10]\n  8037: a0 = u64 [a1 + 0x8]\n  8040: a3 = a4 | t0\n  8043: a1 = a0 | a5\n  8046: a1 = a1 | a3\n  8049: a1 = a1 >> 0x20\n  8052: a3 = a3 | a5\n  8055: a3 = a3 << 0x20\n  8058: a1 = a1 | a3\n  8061: jump @201 if a1 != 0\n      : @247 (gas: 11)\n  8065: u64 [a2 + 760] = 0\n  8069: u64 [a2 + 752] = 0\n  8073: u64 [a2 + 744] = 0\n  8077: a3 = 0x70a0823100000000\n  8087: a1 = s1 + 0x13a0\n  8091: u64 [a2 + 0x300] = a3\n  8095: u64 [s1 + 0xf8] = a0\n  8099: u64 [s1 + 0xb0] = t0\n  8103: u64 [s1 + 0x88] = a5\n  8107: u64 [s1 + 0x80] = a4\n  8111: ra = 222, jump @4\n      : @248 [@dyn 111] (gas: 7)\n  8117: a0 = 0x300b0\n  8122: u64 [s1 + 0xd8] = a0\n  8126: i32 a0 = a0 + 0\n  8128: u64 [s1 + 0x78] = a0\n  8131: ra = 0xe0\n  8135: ecalli 0 // 'address'\n  8136: fallthrough\n      : @249 [@dyn 112] (gas: 10)\n  8137: a4 = u64 [s1 + 0xf8]\n  8141: a0 = u64 [s1 + 0xb0]\n  8145: a1 = u64 [s1 + 0x88]\n  8149: a0 = a0 | a1\n  8152: a1 = 0xfffffffc\n  8162: a1 = a4 <u a1\n  8165: a2 = u64 [s1 + 0x80]\n  8169: a1 = 0 if a2 != 0\n  8171: a1 = 0 if a0 != 0\n  8173: jump @201 if a1 == 0\n      : @250 (gas: 5)\n  8177: a2 = u64 [s1 + 0xd8]\n  8181: a1 = u64 [a2 + 0x8]\n  8184: a0 = 0x2400000000\n  8194: u64 [s1 + 0x70] = a0\n  8197: t0 = 226, jump @662\n      : @251 [@dyn 113] (gas: 8)\n  8203: a5 = s1 + 0x10b8\n  8207: u64 [a5 + 736] = 0\n  8211: a4 = a5 + 0x200\n  8215: u64 [a4 + 0xd8] = a2\n  8219: u64 [a4 + 0xd0] = a1\n  8223: a1 = s1 + 0x1380\n  8227: u64 [a4 + 0xc8] = a3\n  8231: ra = 228, jump @4\n      : @252 [@dyn 114] (gas: 3)\n  8237: ra = 0xe6\n  8241: ecalli 9 // 'ref_time_left'\n  8243: fallthrough\n      : @253 [@dyn 115] (gas: 9)\n  8244: a0 = u64 [s1 + 0xb8]\n  8248: a0 = reverse a0\n  8250: a1 = a0 << 0x20\n  8253: a2 = u64 [s1 + 0xc0]\n  8257: a2 = reverse a2\n  8259: a2 = a2 >> 0x20\n  8262: a1 = a1 | a2\n  8265: a2 = u64 [s1 + 0xd0]\n  8269: t0 = 232, jump @665\n      : @254 [@dyn 116] (gas: 7)\n  8275: u64 [a0 + 1792] = 0\n  8279: u64 [a0 + 1784] = 0\n  8283: u64 [a0 + 1776] = 0\n  8287: u64 [a0 + 1768] = 0\n  8291: a1 = 0x24\n  8294: a0 = u64 [s1 + 0xf8]\n  8298: ra = 234, jump @12\n      : @255 [@dyn 117] (gas: 4)\n  8304: u64 [s1 + 0xd0] = a0\n  8308: a1 = 0x20\n  8311: a0 = u64 [s1 + 0xf8]\n  8315: ra = 236, jump @12\n      : @256 [@dyn 118] (gas: 33)\n  8321: a1 = s1 + 0x18d8\n  8325: u32 [a1 + 1800] = 0x20\n  8330: u64 [a1 + 1856] = 0\n  8334: u64 [a1 + 1848] = 0\n  8338: u64 [a1 + 1840] = 0\n  8342: u64 [a1 + 1832] = 0\n  8346: a1 = u64 [s1 + 0xd8]\n  8350: a1 = a1 << 0x20\n  8353: a1 = a1 >> 0x20\n  8356: a2 = 0x1800000000\n  8366: t0 = a1 | a2\n  8369: a1 = s1 + 0x1fc0\n  8373: a1 = a1 << 0x20\n  8376: a1 = a1 >> 0x20\n  8379: a2 = s1 + 0x2000\n  8383: a2 = a2 << 0x20\n  8386: a3 = a2 | a1\n  8389: a1 = u64 [s1 + 0xd0]\n  8393: a1 = a1 << 0x20\n  8396: a1 = a1 >> 0x20\n  8399: a4 = u64 [s1 + 0x70]\n  8402: a4 = a4 | a1\n  8405: a0 = a0 << 0x20\n  8408: a0 = a0 >> 0x20\n  8411: a1 = s1 + 0x1fe0\n  8415: a1 = a1 << 0x20\n  8418: a5 = a1 | a0\n  8421: a1 = 0xffffffffffffffff\n  8424: a2 = 0xffffffffffffffff\n  8427: u64 [s1 + 0xd0] = t0\n  8431: a0 = t0\n  8433: ecalli 1 // 'call'\n  8435: fallthrough\n      : @257 (gas: 1)\n  8436: jump @259 if a0 == 0\n      : @258 (gas: 1)\n  8439: jump @380\n      : @259 (gas: 2)\n  8442: ecalli 11 // 'return_data_size'\n  8444: fallthrough\n      : @260 (gas: 2)\n  8445: a5 = 0x20\n  8448: jump @262 if a0 >=u a5\n      : @261 (gas: 3)\n  8451: ecalli 11 // 'return_data_size'\n  8453: a5 = a0\n  8455: fallthrough\n      : @262 (gas: 19)\n  8456: a2 = s1 + 0x10b8\n  8460: a3 = u64 [s1 + 0xf8]\n  8464: t0 = u64 [s1 + 0xb0]\n  8468: a0 = u64 [s1 + 0x88]\n  8472: a1 = u64 [s1 + 0x80]\n  8476: u64 [s1 + 184] = 0\n  8480: u64 [s1 + 0xc0] = a5\n  8484: a4 = a2 + 0x200\n  8488: u64 [a4 + 0x68] = a5\n  8491: u64 [a4 + 0x88] = a3\n  8495: u64 [a2 + 624] = 0\n  8499: u64 [a4 + 0x90] = a1\n  8503: u64 [a2 + 632] = 0\n  8507: u64 [a4 + 0x98] = a0\n  8511: u64 [a2 + 640] = 0\n  8515: a0 = s1 + 0x1340\n  8519: a1 = s1 + 0x1320\n  8523: u64 [a2 + 0x2a0] = t0\n  8527: ra = 238, jump @563\n      : @263 [@dyn 119] (gas: 4)\n  8533: a3 = u64 [s1 + 0xb8]\n  8537: a0 = a3 >u 0\n  8539: a1 = u64 [s1 + 0xc0]\n  8543: t0 = 240, jump @658\n      : @264 [@dyn 120] (gas: 1)\n  8549: jump @266 if a2 != 0\n      : @265 (gas: 1)\n  8552: jump @526\n      : @266 (gas: 3)\n  8555: a0 = s1 + 0x1300\n  8559: a1 = u64 [s1 + 0xf8]\n  8563: ra = 242, jump @2\n      : @267 [@dyn 121] (gas: 18)\n  8569: a1 = s1 + 0x10b8\n  8573: a2 = a1 + 0x200\n  8577: a0 = u64 [a2 + 0x60]\n  8580: u64 [s1 + 0xb0] = a0\n  8584: a0 = u64 [a2 + 0x58]\n  8587: u64 [s1 + 0x88] = a0\n  8591: a0 = u64 [a2 + 0x50]\n  8594: u64 [s1 + 0xb8] = a0\n  8598: a0 = u64 [a2 + 0x48]\n  8601: u64 [s1 + 0xc0] = a0\n  8605: a0 = s1 + 0x18d8\n  8609: u64 [a0 + 1920] = 0\n  8613: u64 [a0 + 1912] = 0\n  8617: u64 [a0 + 1904] = 0\n  8621: u64 [a0 + 1896] = 0x1\n  8626: a0 = s1 + 0x12e0\n  8630: a1 = s1 + 0x2040\n  8634: ra = 244, jump @6\n      : @268 [@dyn 122] (gas: 11)\n  8640: a1 = s1 + 0x10b8\n  8644: a2 = a1 + 0x200\n  8648: a0 = u64 [a2 + 0x38]\n  8651: u64 [s1 + 0x68] = a0\n  8654: a0 = u64 [a2 + 0x30]\n  8657: u64 [s1 + 0x60] = a0\n  8660: a0 = u64 [a2 + 0x28]\n  8663: u64 [s1 + 0x80] = a0\n  8667: a0 = s1 + 0x12c0\n  8671: a1 = 0x40\n  8674: ra = 246, jump @2\n      : @269 [@dyn 123] (gas: 14)\n  8680: t0 = s1 + 0x10b8\n  8684: a1 = t0 + 0x200\n  8688: a3 = u64 [a1 + 0x20]\n  8691: a4 = u64 [a1 + 0x18]\n  8694: a5 = u64 [a1 + 0x10]\n  8697: a0 = u64 [a1 + 0x8]\n  8700: a2 = a5 | a3\n  8703: a1 = a0 | a4\n  8706: a1 = a1 | a2\n  8709: a1 = a1 >> 0x20\n  8712: a2 = a2 | a4\n  8715: a2 = a2 << 0x20\n  8718: a1 = a1 | a2\n  8721: jump @201 if a1 != 0\n      : @270 (gas: 11)\n  8725: u64 [t0 + 504] = 0\n  8729: u64 [t0 + 496] = 0\n  8733: u64 [t0 + 488] = 0\n  8737: u64 [s1 + 0x58] = a3\n  8740: a3 = 0x70a0823100000000\n  8750: a1 = s1 + 0x12a0\n  8754: u64 [t0 + 0x200] = a3\n  8758: u64 [s1 + 0xf8] = a0\n  8762: u64 [s1 + 0x50] = a4\n  8765: u64 [s1 + 0x48] = a5\n  8768: ra = 248, jump @4\n      : @271 [@dyn 124] (gas: 4)\n  8774: a0 = u64 [s1 + 0x78]\n  8777: ra = 0xfa\n  8781: ecalli 0 // 'address'\n  8782: fallthrough\n      : @272 [@dyn 125] (gas: 10)\n  8783: a4 = u64 [s1 + 0xf8]\n  8787: a0 = u64 [s1 + 0x58]\n  8790: a1 = u64 [s1 + 0x50]\n  8793: a0 = a0 | a1\n  8796: a1 = 0xfffffffc\n  8806: a1 = a4 <u a1\n  8809: a2 = u64 [s1 + 0x48]\n  8812: a1 = 0 if a2 != 0\n  8814: a1 = 0 if a0 != 0\n  8816: jump @201 if a1 == 0\n      : @273 (gas: 2)\n  8820: a2 = u64 [s1 + 0xd8]\n  8824: t0 = 252, jump @663\n      : @274 [@dyn 126] (gas: 8)\n  8830: a5 = s1 + 0x10b8\n  8834: u64 [a5 + 480] = 0\n  8838: a4 = a5 + 0x100\n  8842: u64 [a4 + 0xd8] = a1\n  8846: u64 [a4 + 0xd0] = a2\n  8850: a1 = s1 + 0x1280\n  8854: u64 [a4 + 0xc8] = a3\n  8858: ra = 254, jump @4\n      : @275 [@dyn 127] (gas: 3)\n  8864: ra = 0x100\n  8868: ecalli 9 // 'ref_time_left'\n  8870: fallthrough\n      : @276 [@dyn 128] (gas: 9)\n  8871: a0 = u64 [s1 + 0x60]\n  8874: a0 = reverse a0\n  8876: a1 = a0 << 0x20\n  8879: a2 = u64 [s1 + 0x68]\n  8882: a2 = reverse a2\n  8884: a2 = a2 >> 0x20\n  8887: a1 = a1 | a2\n  8890: a2 = u64 [s1 + 0x80]\n  8894: t0 = 258, jump @665\n      : @277 [@dyn 129] (gas: 7)\n  8900: u64 [a0 + 1952] = 0\n  8904: u64 [a0 + 1944] = 0\n  8908: u64 [a0 + 1936] = 0\n  8912: u64 [a0 + 1928] = 0\n  8916: a1 = 0x24\n  8919: a0 = u64 [s1 + 0xf8]\n  8923: ra = 260, jump @12\n      : @278 [@dyn 130] (gas: 4)\n  8929: u64 [s1 + 0x80] = a0\n  8933: a1 = 0x20\n  8936: a0 = u64 [s1 + 0xf8]\n  8940: ra = 262, jump @12\n      : @279 [@dyn 131] (gas: 27)\n  8946: a1 = s1 + 0x18d8\n  8950: u32 [a1 + 1960] = 0x20\n  8955: u64 [a1 + 2016] = 0\n  8959: u64 [a1 + 2008] = 0\n  8963: u64 [a1 + 2000] = 0\n  8967: u64 [a1 + 1992] = 0\n  8971: a1 = s1 + 0x2060\n  8975: a1 = a1 << 0x20\n  8978: a1 = a1 >> 0x20\n  8981: a2 = s1 + 0x20a0\n  8985: a2 = a2 << 0x20\n  8988: a3 = a2 | a1\n  8991: a1 = u64 [s1 + 0x80]\n  8995: a1 = a1 << 0x20\n  8998: a1 = a1 >> 0x20\n  9001: a4 = u64 [s1 + 0x70]\n  9004: a4 = a4 | a1\n  9007: a0 = a0 << 0x20\n  9010: a0 = a0 >> 0x20\n  9013: a1 = s1 + 0x2080\n  9017: a1 = a1 << 0x20\n  9020: a5 = a1 | a0\n  9023: a1 = 0xffffffffffffffff\n  9026: a2 = 0xffffffffffffffff\n  9029: a0 = u64 [s1 + 0xd0]\n  9033: ecalli 1 // 'call'\n  9035: fallthrough\n      : @280 (gas: 1)\n  9036: jump @282 if a0 == 0\n      : @281 (gas: 1)\n  9039: jump @406\n      : @282 (gas: 2)\n  9042: ecalli 11 // 'return_data_size'\n  9044: fallthrough\n      : @283 (gas: 2)\n  9045: a1 = 0x20\n  9048: jump @285 if a0 >=u a1\n      : @284 (gas: 3)\n  9051: ecalli 11 // 'return_data_size'\n  9053: a1 = a0\n  9055: fallthrough\n      : @285 (gas: 19)\n  9056: u64 [s1 + 128] = 0\n  9060: u64 [s1 + 0xd0] = a1\n  9064: a3 = s1 + 0x10b8\n  9068: a4 = a3 + 0x100\n  9072: u64 [a4 + 0x68] = a1\n  9075: a0 = u64 [s1 + 0xf8]\n  9079: u64 [a4 + 0x88] = a0\n  9083: u64 [a3 + 368] = 0\n  9087: a0 = u64 [s1 + 0x48]\n  9090: u64 [a4 + 0x90] = a0\n  9094: u64 [a3 + 376] = 0\n  9098: a0 = u64 [s1 + 0x50]\n  9101: u64 [a4 + 0x98] = a0\n  9105: u64 [a3 + 384] = 0\n  9109: a0 = s1 + 0x1240\n  9113: a1 = s1 + 0x1220\n  9117: a2 = u64 [s1 + 0x58]\n  9120: u64 [a4 + 0xa0] = a2\n  9124: ra = 264, jump @563\n      : @286 [@dyn 132] (gas: 4)\n  9130: a3 = u64 [s1 + 0x80]\n  9134: a0 = a3 >u 0\n  9136: a1 = u64 [s1 + 0xd0]\n  9140: t0 = 266, jump @658\n      : @287 [@dyn 133] (gas: 1)\n  9146: jump @289 if a2 != 0\n      : @288 (gas: 1)\n  9149: jump @527\n      : @289 (gas: 3)\n  9152: a0 = s1 + 0x1200\n  9156: a1 = u64 [s1 + 0xf8]\n  9160: ra = 268, jump @2\n      : @290 [@dyn 134] (gas: 30)\n  9166: a1 = s1 + 0x10b8\n  9170: a2 = a1 + 0x100\n  9174: a0 = u64 [a2 + 0x60]\n  9177: u64 [s1 + 0x80] = a0\n  9181: a0 = u64 [a2 + 0x58]\n  9184: u64 [s1 + 0x70] = a0\n  9187: a0 = u64 [a2 + 0x50]\n  9190: u64 [s1 + 0xd0] = a0\n  9194: a0 = u64 [a2 + 0x48]\n  9197: u64 [s1 + 0xf8] = a0\n  9201: a3 = s1 + 0x100\n  9205: a0 = u64 [a3 + 0x38]\n  9208: u64 [a2] = a0\n  9210: a0 = u64 [a3 + 0x30]\n  9213: u64 [a1 + 0xf8] = a0\n  9217: a0 = u64 [a3 + 0x28]\n  9220: u64 [a1 + 0xf0] = a0\n  9224: a0 = u64 [a3 + 0x20]\n  9227: u64 [a1 + 0xe8] = a0\n  9231: u64 [a1 + 288] = 0\n  9235: u64 [a1 + 280] = 0\n  9239: a0 = u64 [s1 + 0xa0]\n  9243: u64 [a2 + 0x10] = a0\n  9246: a4 = a1\n  9248: a0 = s1 + 0x11e0\n  9252: a1 = s1 + 0x11c0\n  9256: a2 = s1 + 0x11a0\n  9260: a3 = u64 [s1 + 0xa8]\n  9264: u64 [a4 + 0x108] = a3\n  9268: ra = 270, jump @573\n      : @291 [@dyn 135] (gas: 22)\n  9274: a3 = s1 + 0x10b8\n  9278: a4 = a3 + 0x100\n  9282: a0 = u64 [a4 + 0x30]\n  9285: a1 = u64 [a4 + 0x28]\n  9288: a2 = u64 [a4 + 0x38]\n  9291: a3 = u64 [a4 + 0x40]\n  9294: a5 = u64 [s1 + 0xb8]\n  9298: a4 = a5 ^ a0\n  9301: a0 = a0 <u a5\n  9304: a5 = u64 [s1 + 0xc0]\n  9308: a1 = a1 <u a5\n  9311: a1 = a0 if a4 != 0\n  9314: a4 = u64 [s1 + 0xb0]\n  9318: a0 = a4 ^ a3\n  9321: a3 = a3 <u a4\n  9324: a5 = u64 [s1 + 0x88]\n  9328: a4 = a2 <u a5\n  9331: a4 = a3 if a0 != 0\n  9334: a2 = a2 ^ a5\n  9337: a0 = a0 | a2\n  9340: a1 = a4 if a0 != 0\n  9343: jump @293 if a1 != 0\n      : @292 (gas: 1)\n  9346: jump @416\n      : @293 (gas: 21)\n  9349: a5 = s1 + 0x100\n  9353: a0 = u64 [a5 + 0x20]\n  9356: a1 = s1 + 0x10b8\n  9360: u64 [a1 + 0x88] = a0\n  9364: u64 [a1 + 192] = 0\n  9368: u64 [a1 + 184] = 0\n  9372: a0 = u64 [s1 + 0xa8]\n  9376: u64 [a1 + 0xa8] = a0\n  9380: a0 = u64 [a5 + 0x28]\n  9383: u64 [a1 + 0x90] = a0\n  9387: a0 = u64 [s1 + 0xa0]\n  9391: u64 [a1 + 0xb0] = a0\n  9395: a0 = u64 [a5 + 0x30]\n  9398: u64 [a1 + 0x98] = a0\n  9402: a4 = a1\n  9404: a0 = s1 + 0x1180\n  9408: a1 = s1 + 0x1160\n  9412: a2 = s1 + 0x1140\n  9416: a3 = u64 [a5 + 0x38]\n  9419: u64 [a4 + 0xa0] = a3\n  9423: ra = 272, jump @573\n      : @294 [@dyn 136] (gas: 21)\n  9429: a4 = s1 + 0x10b8\n  9433: a0 = u64 [a4 + 0xc8]\n  9437: a1 = u64 [a4 + 0xd0]\n  9441: a2 = u64 [a4 + 0xd8]\n  9445: a3 = u64 [a4 + 0xe0]\n  9449: u64 [a4 + 0x40] = a3\n  9452: u64 [a4 + 0x38] = a2\n  9455: u64 [a4 + 0x30] = a1\n  9458: u64 [a4 + 0x28] = a0\n  9461: a0 = u64 [s1 + 0xb0]\n  9465: u64 [a4 + 0x60] = a0\n  9468: a0 = u64 [s1 + 0x88]\n  9472: u64 [a4 + 0x58] = a0\n  9475: a0 = u64 [s1 + 0xb8]\n  9479: u64 [a4 + 0x50] = a0\n  9482: a0 = s1 + 0x1120\n  9486: a1 = s1 + 0x1100\n  9490: a2 = s1 + 0x10e0\n  9494: a3 = u64 [s1 + 0xc0]\n  9498: u64 [a4 + 0x48] = a3\n  9501: ra = 274, jump @573\n      : @295 [@dyn 137] (gas: 10)\n  9507: a1 = s1 + 0x10b8\n  9511: a0 = u64 [a1 + 0x80]\n  9515: u64 [s1 + 0x68] = a0\n  9518: a0 = u64 [a1 + 0x78]\n  9521: u64 [s1 + 0x60] = a0\n  9524: a0 = u64 [a1 + 0x70]\n  9527: u64 [s1 + 0x58] = a0\n  9530: a0 = u64 [a1 + 0x68]\n  9533: u64 [s1 + 0x50] = a0\n  9536: jump @417\n      : @296 (gas: 8)\n  9539: a1 = s1 + 0x18d8\n  9543: u64 [a1 + 1632] = 0\n  9547: u64 [a1 + 1624] = 0\n  9551: u64 [a1 + 1616] = 0\n  9555: u64 [a1 + 1608] = 0x1\n  9560: a0 = s1 + 0x1600\n  9564: a1 = s1 + 0x1f20\n  9568: ra = 276, jump @6\n      : @297 [@dyn 138] (gas: 3)\n  9574: t0 = 0x116\n  9578: a1 = s1 + 0x10b8\n  9582: fallthrough\n      : @298 [@dyn 139] (gas: 10)\n  9583: a2 = a1 + 0x500\n  9587: a0 = u64 [a2 + 0x58]\n  9590: u64 [s1 + 0x80] = a0\n  9594: a0 = u64 [a2 + 0x50]\n  9597: u64 [s1 + 0x78] = a0\n  9600: a0 = u64 [a2 + 0x48]\n  9603: u64 [s1 + 0x88] = a0\n  9607: a0 = s1 + 0x15e0\n  9611: a1 = 0x40\n  9614: ra = 280, jump @2\n      : @299 [@dyn 140] (gas: 26)\n  9620: t0 = s1 + 0x10b8\n  9624: a1 = t0 + 0x500\n  9628: a0 = u64 [a1 + 0x28]\n  9631: a3 = u64 [a1 + 0x40]\n  9634: a2 = u64 [a1 + 0x30]\n  9637: a4 = u64 [a1 + 0x38]\n  9640: a5 = a0 + 0x20\n  9643: u64 [s1 + 0xd8] = a0\n  9647: a0 = a5 <u a0\n  9650: a1 = a2 + a0\n  9653: u64 [s1 + 0xc0] = a2\n  9657: a2 = a1 <u a2\n  9660: a2 = a0 if a0 == 0\n  9663: a2 = a2 + a4\n  9666: u64 [s1 + 0xb0] = a4\n  9670: a0 = a2 <u a4\n  9673: u64 [s1 + 0xb8] = a3\n  9677: a0 = a0 + a3\n  9680: a3 = a5 | a2\n  9683: a0 = a0 | a1\n  9686: a3 = a3 | a0\n  9689: a3 = a3 >> 0x20\n  9692: a0 = a0 | a2\n  9695: a0 = a0 << 0x20\n  9698: a0 = a0 | a3\n  9701: jump @201 if a0 != 0\n      : @300 (gas: 9)\n  9705: u64 [t0 + 1304] = 0\n  9709: u64 [t0 + 1296] = 0\n  9713: u64 [t0 + 1288] = 0\n  9717: a0 = 0xa9059cbb00000000\n  9727: a1 = s1 + 0x15c0\n  9731: u64 [t0 + 0x520] = a0\n  9735: u64 [s1 + 0x70] = a5\n  9738: a0 = a5\n  9740: ra = 282, jump @4\n      : @301 [@dyn 141] (gas: 38)\n  9746: a1 = u64 [s1 + 0xd8]\n  9750: a0 = a1 + 0x24\n  9753: a1 = a0 <u a1\n  9756: a3 = u64 [s1 + 0xc0]\n  9760: a2 = a3 + a1\n  9763: a3 = a2 <u a3\n  9766: a3 = a1 if a1 == 0\n  9769: a1 = u64 [s1 + 0xb0]\n  9773: a3 = a3 + a1\n  9776: a1 = a3 <u a1\n  9779: a4 = u64 [s1 + 0xb8]\n  9783: a1 = a1 + a4\n  9786: a4 = u64 [s1 + 0xd0]\n  9790: a5 = s1 + 0x10b8\n  9794: u64 [a5 + 0x4c0] = a4\n  9798: a4 = u64 [s1 + 0xf8]\n  9802: u64 [a5 + 0x4b8] = a4\n  9806: a4 = u64 [s1 + 0x118]\n  9810: u64 [a5 + 0x4a0] = a4\n  9814: a4 = u64 [s1 + 0x110]\n  9818: u64 [a5 + 0x498] = a4\n  9822: a4 = u64 [s1 + 0x108]\n  9826: u64 [a5 + 0x490] = a4\n  9830: a4 = u64 [s1 + 0x100]\n  9834: u64 [a5 + 0x488] = a4\n  9838: a4 = u64 [s1 + 0xe8]\n  9842: u64 [a5 + 0x4b0] = a4\n  9846: u64 [a5 + 0x4d0] = a2\n  9850: u64 [a5 + 0x4c8] = a0\n  9854: u64 [a5 + 0x4d8] = a3\n  9858: u64 [a5 + 0x4e0] = a1\n  9862: a0 = s1 + 0x15a0\n  9866: a1 = s1 + 0x1580\n  9870: a2 = s1 + 0x1560\n  9874: a3 = s1 + 0x1540\n  9878: a4 = u64 [s1 + 0xf0]\n  9882: u64 [a5 + 0x4a8] = a4\n  9886: ra = 284, jump @635\n      : @302 [@dyn 142] (gas: 12)\n  9892: a0 = u64 [s1 + 0xd8]\n  9896: a2 = u64 [s1 + 0xb0]\n  9900: a0 = a0 | a2\n  9903: a1 = u64 [s1 + 0xc0]\n  9907: a3 = u64 [s1 + 0xb8]\n  9911: a1 = a1 | a3\n  9914: a0 = a0 | a1\n  9917: a0 = a0 >> 0x20\n  9920: a1 = a1 | a2\n  9923: a1 = a1 << 0x20\n  9926: a0 = a0 | a1\n  9929: jump @201 if a0 != 0\n      : @303 (gas: 53)\n  9933: a0 = s1 + 0x10b8\n  9937: a2 = a0 + 0x400\n  9941: a1 = u64 [a2 + 0xe8]\n  9945: u64 [s1 + 0xd0] = a1\n  9949: a5 = u64 [a2 + 0xf0]\n  9953: t2 = u64 [a0 + 0x500]\n  9957: a4 = u64 [a2 + 0xf8]\n  9961: a0 = u64 [s1 + 0xd8]\n  9965: t1 = a1 <u a0\n  9968: ra = a0\n  9970: t0 = u64 [s1 + 0xc0]\n  9974: a1 = a5 ^ t0\n  9977: a2 = a5 <u t0\n  9980: a2 = t1 if a1 == 0\n  9983: a0 = u64 [s1 + 0xb0]\n  9987: a3 = a4 - a0\n  9990: a1 = a3 <u a2\n  9993: a4 = a4 <u a0\n  9996: a0 = u64 [s1 + 0xb8]\n 10000: a0 = t2 - a0\n 10003: a0 = a0 - a4\n 10006: t2 = a0 - a1\n 10009: u64 [s1 + 0x60] = t2\n 10012: a3 = a3 - a2\n 10015: u64 [s1 + 0xf8] = a3\n 10019: a0 = a5 - t0\n 10022: a4 = a0 - t1\n 10025: u64 [s1 + 0x68] = a4\n 10028: a0 = u64 [s1 + 0xd0]\n 10032: a1 = a0 - ra\n 10035: u64 [s1 + 0xd0] = a1\n 10039: a0 = a1 + 0xffffffffffffffe0\n 10042: a1 = a0 <u a1\n 10045: a2 = a4 + a1\n 10048: a2 = a2 + 0xffffffffffffffff\n 10051: a3 = a2 ^ a4\n 10054: a4 = a2 <u a4\n 10057: a4 = a1 if a3 == 0\n 10060: a3 = u64 [s1 + 0xf8]\n 10064: a1 = a3 <u 0x1\n 10067: a1 = t2 - a1\n 10070: a3 = a3 + 0xffffffffffffffff\n 10073: a4 = a4 + a3\n 10076: a3 = a4 <u a3\n 10079: a3 = a3 + a1\n 10082: a5 = s1 + 0x10b8\n 10086: u64 [a5 + 0x468] = a0\n 10090: u64 [a5 + 0x470] = a2\n 10094: u64 [a5 + 0x478] = a4\n 10098: a1 = s1 + 0x1520\n 10102: u64 [a5 + 0x480] = a3\n 10106: a0 = ra\n 10108: ra = 286, jump @4\n      : @304 [@dyn 143] (gas: 22)\n 10114: a0 = s1 + 0x10b8\n 10118: a1 = u64 [s1 + 0x60]\n 10121: a2 = a0 + 0x400\n 10125: u64 [a2 + 0x40] = a1\n 10128: a1 = u64 [s1 + 0xf8]\n 10132: u64 [a2 + 0x38] = a1\n 10135: a1 = u64 [s1 + 0x68]\n 10138: u64 [a2 + 0x30] = a1\n 10141: a1 = u64 [s1 + 0xd0]\n 10145: u64 [a2 + 0x28] = a1\n 10148: a1 = u64 [s1 + 0xb8]\n 10152: u64 [a2 + 0x60] = a1\n 10155: a1 = u64 [s1 + 0xb0]\n 10159: u64 [a2 + 0x58] = a1\n 10162: a1 = u64 [s1 + 0xc0]\n 10166: u64 [a2 + 0x50] = a1\n 10169: a3 = a0\n 10171: a0 = s1 + 0x1500\n 10175: a1 = s1 + 0x14e0\n 10179: a2 = u64 [s1 + 0xd8]\n 10183: u64 [a3 + 0x448] = a2\n 10187: ra = 288, jump @563\n      : @305 [@dyn 144] (gas: 3)\n 10193: a0 = s1 + 0x14c0\n 10197: a1 = u64 [s1 + 0xd8]\n 10201: ra = 290, jump @2\n      : @306 [@dyn 145] (gas: 12)\n 10207: a1 = s1 + 0x10b8\n 10211: a2 = a1 + 0x400\n 10215: a0 = u64 [a2 + 0x20]\n 10218: u64 [s1 + 0xd8] = a0\n 10222: a0 = u64 [a2 + 0x18]\n 10225: u64 [s1 + 0xd0] = a0\n 10229: a0 = u64 [a2 + 0x10]\n 10232: u64 [s1 + 0xc0] = a0\n 10236: a0 = u64 [a2 + 0x8]\n 10239: u64 [s1 + 0xf8] = a0\n 10243: ecalli 9 // 'ref_time_left'\n 10245: fallthrough\n      : @307 (gas: 36)\n 10246: t0 = a0\n 10248: a0 = u64 [s1 + 0x78]\n 10251: a0 = reverse a0\n 10253: a1 = a0 << 0x20\n 10256: a2 = u64 [s1 + 0x80]\n 10260: a2 = reverse a2\n 10262: a2 = a2 >> 0x20\n 10265: a1 = a1 | a2\n 10268: a2 = u64 [s1 + 0x88]\n 10272: a2 = reverse a2\n 10274: a3 = a2 << 0x20\n 10277: a4 = 0x300b0\n 10282: a0 = a0 >> 0x20\n 10285: a0 = a0 | a3\n 10288: a2 = a2 >> 0x20\n 10291: u64 [0x300b8] = a0\n 10296: u64 [0x300b0] = a1\n 10301: u32 [0x300c0] = a2\n 10306: a2 = s1 + 0x18d8\n 10310: u64 [a2 + 1664] = 0\n 10314: u64 [a2 + 1656] = 0\n 10318: u64 [a2 + 1648] = 0\n 10322: a0 = u64 [s1 + 0xd8]\n 10326: a5 = u64 [s1 + 0xc0]\n 10330: a5 = a5 | a0\n 10333: a1 = u64 [s1 + 0xf8]\n 10337: a3 = a1\n 10339: a0 = u64 [s1 + 0xd0]\n 10343: a1 = a1 | a0\n 10346: a1 = a1 | a5\n 10349: a1 = a1 >> 0x20\n 10352: a0 = a0 | a5\n 10355: a0 = a0 << 0x20\n 10358: a0 = a0 | a1\n 10361: u64 [a2 + 1640] = 0\n 10365: jump @309 if a0 == 0\n      : @308 (gas: 1)\n 10368: jump @201\n      : @309 (gas: 7)\n 10371: a1 = a3\n 10373: i32 a0 = a3 + 0\n 10375: u64 [s1 + 0xd0] = a0\n 10379: a0 = u64 [s1 + 0x70]\n 10382: u64 [s1 + 0xc0] = t0\n 10386: u64 [s1 + 0xd8] = a4\n 10390: ra = 292, jump @12\n      : @310 [@dyn 146] (gas: 42)\n 10396: a1 = a0\n 10398: a3 = s1 + 0x18d8\n 10402: u32 [a3 + 1672] = 0\n 10406: a0 = u64 [s1 + 0xd0]\n 10410: a0 = a0 >u 0\n 10412: a4 = u64 [s1 + 0xc0]\n 10416: a2 = a4 >u 0x8fc\n 10420: a0 = a0 | a2\n 10423: a2 = -a0\n 10425: a4 = a3 + 0x600\n 10429: u64 [a4 + 0xc0] = a2\n 10433: u64 [a4 + 0xb8] = a2\n 10437: u64 [a4 + 0xb0] = a2\n 10441: u64 [a4 + 0xa8] = a2\n 10445: a2 = u64 [s1 + 0xd8]\n 10449: a2 = a2 << 0x20\n 10452: a2 = a2 >> 0x20\n 10455: a0 = a0 << 0x23\n 10458: a0 = a0 | a2\n 10461: a2 = s1 + 0x1f40\n 10465: a2 = a2 << 0x20\n 10468: a2 = a2 >> 0x20\n 10471: a3 = s1 + 0x1f80\n 10475: a3 = a3 << 0x20\n 10478: a3 = a3 | a2\n 10481: a1 = a1 << 0x20\n 10484: a2 = 0x200b0\n 10489: a1 = a1 >> 0x20\n 10492: a4 = u64 [s1 + 0xf8]\n 10496: a4 = a4 << 0x20\n 10499: a4 = a4 | a1\n 10502: a2 = a2 << 0x20\n 10505: a2 = a2 >> 0x20\n 10508: a1 = s1 + 0x1f60\n 10512: a1 = a1 << 0x20\n 10515: a5 = a1 | a2\n 10518: a1 = 0xffffffffffffffff\n 10521: a2 = 0xffffffffffffffff\n 10524: ecalli 1 // 'call'\n 10526: u64 [s1 + 0xf8] = a0\n 10530: a0 = s1 + 0x14a0\n 10534: ra = 294, jump @641\n      : @311 [@dyn 147] (gas: 2)\n 10540: a0 = u64 [s1 + 0xf8]\n 10544: jump @243 if a0 == 0\n      : @312 (gas: 3)\n 10548: a0 = s1 + 0x1480\n 10552: a1 = 0x40\n 10555: ra = 296, jump @2\n      : @313 [@dyn 148] (gas: 16)\n 10561: a2 = s1 + 0x10b8\n 10565: a5 = a2 + 0x300\n 10569: a3 = u64 [a5 + 0xe0]\n 10573: a4 = u64 [a5 + 0xd8]\n 10577: a0 = u64 [a5 + 0xd0]\n 10581: a1 = u64 [a5 + 0xc8]\n 10585: u64 [s1 + 0x130] = a0\n 10589: a0 = a0 | a3\n 10592: u64 [s1 + 0x138] = a1\n 10596: a1 = a1 | a4\n 10599: a1 = a1 | a0\n 10602: a1 = a1 >> 0x20\n 10605: a0 = a0 | a4\n 10608: a0 = a0 << 0x20\n 10611: a0 = a0 | a1\n 10614: jump @315 if a0 == 0\n      : @314 (gas: 1)\n 10617: jump @201\n      : @315 (gas: 10)\n 10620: u64 [a2 + 952] = 0\n 10624: u64 [a2 + 944] = 0\n 10628: u64 [a2 + 936] = 0\n 10632: a0 = 0x8c379a000000000\n 10642: a1 = s1 + 0x1460\n 10646: u64 [a2 + 0x3c0] = a0\n 10650: a0 = u64 [s1 + 0x138]\n 10654: u64 [s1 + 0x128] = a3\n 10658: u64 [s1 + 0x120] = a4\n 10662: ra = 298, jump @4\n      : @316 [@dyn 149] (gas: 1)\n 10668: t0 = 300, jump @660\n      : @317 [@dyn 150] (gas: 1)\n 10674: jump @319 if a0 != 0\n      : @318 (gas: 1)\n 10677: jump @201\n      : @319 (gas: 9)\n 10680: a0 = u64 [s1 + 0x138]\n 10684: i32 a0 = a0 + 0x4\n 10687: a2 = s1 + 0x10b8\n 10691: u64 [a2 + 928] = 0\n 10695: u64 [a2 + 920] = 0\n 10699: u64 [a2 + 904] = 0x20\n 10704: a1 = s1 + 0x1440\n 10708: u64 [a2 + 912] = 0\n 10712: ra = 302, jump @4\n      : @320 [@dyn 151] (gas: 4)\n 10718: a2 = s1 + 0x100\n 10722: a0 = u64 [a2 + 0x20]\n 10725: a0 = a0 + 0xffffffffffffffdc\n 10728: t0 = 304, jump @659\n      : @321 [@dyn 152] (gas: 1)\n 10734: jump @323 if a0 != 0\n      : @322 (gas: 1)\n 10737: jump @201\n      : @323 (gas: 9)\n 10740: a0 = u64 [s1 + 0x138]\n 10744: i32 a0 = a0 + 0x24\n 10747: a2 = s1 + 0x10b8\n 10751: u64 [a2 + 896] = 0\n 10755: u64 [a2 + 888] = 0\n 10759: u64 [a2 + 872] = 0x16\n 10764: a1 = s1 + 0x1420\n 10768: u64 [a2 + 880] = 0\n 10772: ra = 306, jump @4\n      : @324 [@dyn 153] (gas: 3)\n 10778: a0 = 0xffffffbc\n 10788: a2 = s1 + 0x100\n 10792: t0 = 308, jump @659\n      : @325 [@dyn 154] (gas: 1)\n 10798: jump @327 if a0 != 0\n      : @326 (gas: 1)\n 10801: jump @201\n      : @327 (gas: 14)\n 10804: a0 = u64 [s1 + 0x138]\n 10808: i32 a0 = a0 + 0x44\n 10811: a1 = u64 [0x20018]\n 10816: a2 = u64 [0x20020]\n 10821: a3 = u64 [0x20028]\n 10826: a4 = s1 + 0x10b8\n 10830: a5 = a4 + 0x300\n 10834: u64 [a5 + 0x60] = a1\n 10837: u64 [a5 + 0x58] = a2\n 10840: u64 [a5 + 0x50] = a3\n 10843: a1 = s1 + 0x1400\n 10847: u64 [a4 + 840] = 0\n 10851: ra = 0xb8\n 10855: jump @4\n      : @328 (gas: 4)\n 10858: a0 = s1 + 0x7ff\n 10862: a0 = a0 + 0x141\n 10866: a1 = 0x40\n 10869: ra = 310, jump @2\n      : @329 [@dyn 155] (gas: 14)\n 10875: a0 = s1 + 0x7ff\n 10879: a0 = a0 + 0xb9\n 10883: a1 = u64 [a0 + 0xa0]\n 10887: u64 [s1 + 0x130] = a1\n 10891: a1 = u64 [a0 + 0x98]\n 10895: u64 [s1 + 0x128] = a1\n 10899: a1 = u64 [a0 + 0x90]\n 10903: u64 [s1 + 0x120] = a1\n 10907: a0 = u64 [a0 + 0x88]\n 10911: u64 [s1 + 0x138] = a0\n 10915: ra = 0x138\n 10919: ecalli 11 // 'return_data_size'\n 10921: t0 = 0x13a\n 10925: jump @661\n      : @330 [@dyn 156] (gas: 1)\n 10928: t0 = 314, jump @661\n      : @331 [@dyn 157] (gas: 1)\n 10934: jump @333 if a1 == 0\n      : @332 (gas: 1)\n 10937: jump @201\n      : @333 (gas: 3)\n 10940: a2 = a0\n 10942: a0 = a0 >> 0x20\n 10945: jump @335 if a0 == 0\n      : @334 (gas: 1)\n 10948: jump @201\n      : @335 (gas: 1)\n 10951: t0 = 316, jump @668\n      : @336 [@dyn 158] (gas: 1)\n 10957: ra = 318, jump @12\n      : @337 [@dyn 159] (gas: 11)\n 10963: a1 = s1 + 0x18d8\n 10967: a2 = u64 [s1 + 0x128]\n 10971: u32 [a1 + 0x3c8] = a2\n 10975: i32 a0 = a0 + 0\n 10977: a1 = s1 + 0x2000\n 10981: i32 a1 = a1 + 0xfffffffffffffca0\n 10985: a2 = 0\n 10987: ecalli 10 // 'return_data_copy'\n 10989: a0 = s1 + 0x18d8\n 10993: a0 = i32 [a0 + 0x3c8]\n 10997: jump @222\n      : @338 (gas: 20)\n 11000: u64 [s1 + 0x7a0] = a2\n 11004: a0 = u64 [s1 + 0x80]\n 11008: u64 [s1 + 0x7c0] = a0\n 11012: u64 [s1 + 0x7a8] = a3\n 11016: a0 = u64 [s1 + 0x98]\n 11020: u64 [s1 + 0x7c8] = a0\n 11024: u64 [s1 + 0x7b0] = a4\n 11028: a0 = u64 [s1 + 0xa0]\n 11032: u64 [s1 + 0x7d0] = a0\n 11036: u64 [s1 + 0x7b8] = a5\n 11040: a0 = s1 + 0x7e0\n 11044: a1 = s1 + 0x7c0\n 11048: u64 [s1 + 0x110] = a2\n 11052: a2 = s1 + 0x7a0\n 11056: u64 [s1 + 0x108] = a3\n 11060: a3 = u64 [s1 + 0xc8]\n 11064: u64 [s1 + 0x7d8] = a3\n 11068: u64 [s1 + 0x60] = a4\n 11071: u64 [s1 + 0x58] = a5\n 11074: ra = 320, jump @580\n      : @339 [@dyn 160] (gas: 18)\n 11080: a3 = u64 [s1 + 0x7e0]\n 11084: a0 = u64 [s1 + 0x7e8]\n 11088: a1 = u64 [s1 + 0x7f0]\n 11092: a2 = u64 [s1 + 0x7f8]\n 11096: u64 [s1 + 1880] = 0\n 11100: u64 [s1 + 1872] = 0\n 11104: a4 = u64 [s1 + 0x128]\n 11108: u64 [s1 + 0x748] = a4\n 11112: a4 = u64 [s1 + 0xf8]\n 11116: u64 [s1 + 0x740] = a4\n 11120: u64 [s1 + 0x778] = a2\n 11124: u64 [s1 + 0x770] = a1\n 11128: u64 [s1 + 0x768] = a0\n 11132: a0 = s1 + 0x780\n 11136: a1 = s1 + 0x760\n 11140: a2 = s1 + 0x740\n 11144: u64 [s1 + 0x760] = a3\n 11148: ra = 322, jump @588\n      : @340 [@dyn 161] (gas: 28)\n 11154: a0 = u64 [s1 + 0x780]\n 11158: u64 [s1 + 0x130] = a0\n 11162: a0 = u64 [s1 + 0x788]\n 11166: u64 [s1 + 0x138] = a0\n 11170: a0 = u64 [s1 + 0x790]\n 11174: u64 [s1 + 0x128] = a0\n 11178: a0 = u64 [s1 + 0x798]\n 11182: u64 [s1 + 0x120] = a0\n 11186: a0 = u64 [s1 + 0x58]\n 11189: u64 [s1 + 0x6f8] = a0\n 11193: a0 = u64 [s1 + 0x60]\n 11196: u64 [s1 + 0x6f0] = a0\n 11200: a0 = u64 [s1 + 0x108]\n 11204: u64 [s1 + 0x6e8] = a0\n 11208: a0 = u64 [s1 + 0x110]\n 11212: u64 [s1 + 0x6e0] = a0\n 11216: a0 = u64 [s1 + 0xd0]\n 11220: u64 [s1 + 0x718] = a0\n 11224: a0 = u64 [s1 + 0x78]\n 11227: u64 [s1 + 0x710] = a0\n 11231: a0 = u64 [s1 + 0x70]\n 11234: u64 [s1 + 0x708] = a0\n 11238: a0 = s1 + 0x720\n 11242: a1 = s1 + 0x700\n 11246: a2 = s1 + 0x6e0\n 11250: a3 = u64 [s1 + 0x68]\n 11253: u64 [s1 + 0x700] = a3\n 11257: ra = 324, jump @580\n      : @341 [@dyn 162] (gas: 19)\n 11263: a4 = s1 + 0x700\n 11267: a3 = u64 [a4 + 0x20]\n 11270: a0 = u64 [a4 + 0x28]\n 11273: a1 = u64 [a4 + 0x30]\n 11276: a2 = u64 [a4 + 0x38]\n 11279: u64 [s1 + 1688] = 0\n 11283: u64 [s1 + 1680] = 0\n 11287: a4 = u64 [s1 + 0x118]\n 11291: u64 [s1 + 0x688] = a4\n 11295: a4 = u64 [s1 + 0x100]\n 11299: u64 [s1 + 0x680] = a4\n 11303: u64 [s1 + 0x6b8] = a2\n 11307: u64 [s1 + 0x6b0] = a1\n 11311: u64 [s1 + 0x6a8] = a0\n 11315: a0 = s1 + 0x6c0\n 11319: a1 = s1 + 0x6a0\n 11323: a2 = s1 + 0x680\n 11327: u64 [s1 + 0x6a0] = a3\n 11331: ra = 326, jump @588\n      : @342 [@dyn 163] (gas: 32)\n 11337: a1 = s1 + 0x600\n 11341: a2 = u64 [a1 + 0xd8]\n 11345: ra = u64 [s1 + 0x6c8]\n 11349: a0 = u64 [a1 + 0xc0]\n 11353: u64 [s1 + 0x118] = a0\n 11357: a3 = u64 [a1 + 0xd0]\n 11361: a4 = u64 [s1 + 0x120]\n 11365: t2 = a4 ^ a2\n 11368: a1 = u64 [s1 + 0x138]\n 11372: a5 = a1 ^ ra\n 11375: u64 [s1 + 0x110] = a5\n 11379: t1 = a1 <u ra\n 11382: t0 = u64 [s1 + 0x130]\n 11386: a5 = t0 <u a0\n 11389: a0 = u64 [s1 + 0x110]\n 11393: a5 = t1 if a0 != 0\n 11396: a1 = a4 <u a2\n 11399: t1 = u64 [s1 + 0x128]\n 11403: a0 = t1 <u a3\n 11406: a0 = a1 if t2 != 0\n 11409: a1 = a4\n 11411: a4 = t1 ^ a3\n 11414: a4 = a4 | t2\n 11417: a5 = a0 if a4 != 0\n 11420: a0 = t0\n 11422: a1 = a2 if a5 == 0\n 11425: t1 = a3 if a5 == 0\n 11428: a2 = u64 [s1 + 0x138]\n 11432: a2 = ra if a5 == 0\n 11435: a3 = u64 [s1 + 0x118]\n 11439: a0 = a3 if a5 == 0\n 11442: jump @353\n      : @343 (gas: 7)\n 11445: a2 = t0\n 11447: a4 = ra <u 0x3e8\n 11451: a4 = 0 if t2 != 0\n 11453: a5 = u64 [s1 + 0x118]\n 11457: a5 = a5 | a2\n 11460: a4 = 0 if a5 != 0\n 11462: jump @345 if a4 == 0\n      : @344 (gas: 1)\n 11465: jump @520\n      : @345 (gas: 27)\n 11468: a1 = a2\n 11470: a0 = ra + 0xfffffffffffffc18\n 11474: a5 = s1 + 0x100\n 11478: u64 [a5 + 0x30] = a0\n 11481: a0 = a0 <u ra\n 11484: a3 = t2 + a0\n 11487: a4 = a3 + 0xffffffffffffffff\n 11490: a3 = a4 ^ t2\n 11493: u64 [a5 + 0x38] = a4\n 11496: a2 = a4 <u t2\n 11499: a2 = a0 if a3 == 0\n 11502: a0 = a1 + 0xffffffffffffffff\n 11505: a2 = a2 + a0\n 11508: u64 [a5 + 0x28] = a2\n 11511: a0 = a2 <u a0\n 11514: u64 [a5 + 0x20] = a0\n 11517: a0 = a1 <u 0x1\n 11520: a1 = u64 [a5 + 0x18]\n 11523: a1 = a1 - a0\n 11526: u64 [a5 + 0x18] = a1\n 11529: u64 [s1 + 1560] = 0\n 11533: u64 [s1 + 1552] = 0\n 11537: u64 [s1 + 1544] = 0\n 11541: a1 = s1 + 0x600\n 11545: u64 [s1 + 1536] = 0\n 11549: a0 = 0\n 11551: ra = 328, jump @4\n      : @346 [@dyn 164] (gas: 7)\n 11557: u64 [s1 + 1528] = 0\n 11561: u64 [s1 + 1520] = 0\n 11565: u64 [s1 + 1504] = 0x4\n 11570: a0 = 0x20\n 11573: a1 = s1 + 0x5e0\n 11577: u64 [s1 + 1512] = 0\n 11581: ra = 330, jump @4\n      : @347 [@dyn 165] (gas: 2)\n 11587: a1 = i32 [0x200a4]\n 11592: jump @349 if a1 >u 63\n      : @348 (gas: 2)\n 11596: u32 [0x200a4] = 0x40\n 11602: fallthrough\n      : @349 (gas: 17)\n 11603: a0 = u64 [s1 + 0x120]\n 11607: a1 = u64 [s1 + 0x118]\n 11611: a0 = a0 + a1\n 11614: u64 [s1 + 0x120] = a0\n 11618: a0 = sp + 0xffffffffffffffe0\n 11621: a2 = a0 & 0xffffffffffffffe0\n 11624: u64 [s1 + 0x118] = a2\n 11628: sp = a2\n 11630: a0 = 0x200b0\n 11635: i32 a0 = a0 + 0\n 11637: i32 a2 = a2 + 0\n 11639: a1 = 0x40\n 11642: ra = 0x14c\n 11646: ecalli 8 // 'hash_keccak_256'\n 11648: a3 = u64 [s1 + 0x118]\n 11652: t0 = 0x14e\n 11656: jump @670\n      : @350 [@dyn 166] (gas: 2)\n 11659: a3 = u64 [s1 + 0x118]\n 11663: t0 = 334, jump @670\n      : @351 [@dyn 167] (gas: 14)\n 11669: i32 a4 = a4 + 0xfffffffffffff8d8\n 11673: a4 = a4 + s1\n 11676: a5 = a4 + 0x400\n 11680: u64 [a5 + 0x20] = a3\n 11683: u64 [a5 + 0x18] = a2\n 11686: u64 [a5 + 0x10] = a1\n 11689: u64 [a5 + 0x8] = a0\n 11692: u64 [a4 + 1088] = 0\n 11696: u64 [a4 + 1080] = 0\n 11700: u64 [a4 + 1072] = 0\n 11704: u64 [a5 + 40] = 0x3e8\n 11709: a0 = s1 + 0x1ce0\n 11713: a1 = s1 + 0x1d00\n 11717: ra = 336, jump @8\n      : @352 [@dyn 168] (gas: 6)\n 11723: a3 = s1 + 0x100\n 11727: a1 = u64 [a3 + 0x20]\n 11730: a0 = u64 [a3 + 0x30]\n 11733: a2 = u64 [a3 + 0x38]\n 11736: t1 = u64 [s1 + 0x128]\n 11740: fallthrough\n      : @353 (gas: 14)\n 11741: u64 [s1 + 0x130] = a0\n 11745: u64 [s1 + 0x128] = t1\n 11749: a0 = a0 | t1\n 11752: u64 [s1 + 0x138] = a2\n 11756: u64 [s1 + 0x120] = a1\n 11760: a1 = a1 | a2\n 11763: a0 = a0 | a1\n 11766: a0 = a0 >u 0\n 11768: u64 [s1 + 1496] = 0\n 11772: u64 [s1 + 1488] = 0\n 11776: u64 [s1 + 0x5c0] = a0\n 11780: a0 = s1 + 0x5c0\n 11784: u64 [s1 + 1480] = 0\n 11788: ra = 338, jump @621\n      : @354 [@dyn 169] (gas: 12)\n 11794: a0 = u64 [s1 + 0xd8]\n 11798: a0 = a0 << 0x20\n 11801: a0 = a0 >> 0x20\n 11804: u64 [s1 + 1464] = 0\n 11808: u64 [s1 + 0x5b0] = a0\n 11812: a0 = u64 [s1 + 0xe0]\n 11816: u64 [s1 + 0x5a8] = a0\n 11820: a1 = s1 + 0x5a0\n 11824: a0 = u64 [s1 + 0xe8]\n 11828: u64 [s1 + 0x5a0] = a0\n 11832: a0 = 0\n 11834: ra = 340, jump @4\n      : @355 [@dyn 170] (gas: 7)\n 11840: u64 [s1 + 1432] = 0\n 11844: u64 [s1 + 1424] = 0\n 11848: u64 [s1 + 1408] = 0x4\n 11853: a0 = 0x20\n 11856: a1 = s1 + 0x580\n 11860: u64 [s1 + 1416] = 0\n 11864: ra = 342, jump @4\n      : @356 [@dyn 171] (gas: 6)\n 11870: a0 = sp + 0xffffffffffffffe0\n 11873: a0 = a0 & 0xffffffffffffffe0\n 11876: u64 [s1 + 0x118] = a0\n 11880: sp = a0\n 11882: a1 = i32 [0x200a4]\n 11887: jump @358 if a1 >u 63\n      : @357 (gas: 2)\n 11891: u32 [0x200a4] = 0x40\n 11897: fallthrough\n      : @358 (gas: 25)\n 11898: a0 = sp + 0xffffffffffffffe0\n 11901: a2 = a0 & 0xffffffffffffffe0\n 11904: u64 [s1 + 0x110] = a2\n 11908: sp = a2\n 11910: a0 = 0x200b0\n 11915: i32 a0 = a0 + 0\n 11917: i32 a2 = a2 + 0\n 11919: a1 = 0x40\n 11922: ecalli 8 // 'hash_keccak_256'\n 11924: a3 = u64 [s1 + 0x110]\n 11928: a0 = u64 [a3 + 0x18]\n 11931: a1 = u64 [a3 + 0x10]\n 11934: a2 = u64 [a3 + 0x8]\n 11937: a3 = u64 [a3]\n 11939: a0 = reverse a0\n 11941: a4 = reverse a1\n 11943: a2 = reverse a2\n 11945: a3 = reverse a3\n 11947: a1 = u64 [s1 + 0x118]\n 11951: u64 [a1 + 0x18] = a3\n 11954: u64 [a1 + 0x10] = a2\n 11957: u64 [a1 + 0x8] = a4\n 11960: u64 [a1] = a0\n 11962: a0 = s1 + 0x560\n 11966: ra = 344, jump @6\n      : @359 [@dyn 172] (gas: 20)\n 11972: a3 = u64 [s1 + 0x560]\n 11976: a0 = u64 [s1 + 0x568]\n 11980: a1 = u64 [s1 + 0x570]\n 11984: a2 = u64 [s1 + 0x578]\n 11988: a4 = u64 [s1 + 0x120]\n 11992: u64 [s1 + 0x518] = a4\n 11996: a4 = u64 [s1 + 0x128]\n 12000: u64 [s1 + 0x510] = a4\n 12004: a4 = u64 [s1 + 0x138]\n 12008: u64 [s1 + 0x508] = a4\n 12012: a4 = u64 [s1 + 0x130]\n 12016: u64 [s1 + 0x500] = a4\n 12020: u64 [s1 + 0x538] = a2\n 12024: u64 [s1 + 0x530] = a1\n 12028: u64 [s1 + 0x528] = a0\n 12032: a0 = s1 + 0x540\n 12036: a1 = s1 + 0x520\n 12040: a2 = s1 + 0x500\n 12044: u64 [s1 + 0x520] = a3\n 12048: ra = 346, jump @613\n      : @360 [@dyn 173] (gas: 14)\n 12054: a4 = s1 + 0x500\n 12058: a0 = u64 [a4 + 0x58]\n 12061: a1 = u64 [a4 + 0x50]\n 12064: a2 = u64 [a4 + 0x48]\n 12067: a3 = u64 [a4 + 0x40]\n 12070: a4 = s1 + 0x18d8\n 12074: a5 = a4 + 0x400\n 12078: u64 [a5 + 0x60] = a0\n 12081: u64 [a5 + 0x58] = a1\n 12084: u64 [a5 + 0x50] = a2\n 12087: u64 [a5 + 0x48] = a3\n 12090: a1 = s1 + 0x1d20\n 12094: a0 = u64 [s1 + 0x118]\n 12098: ra = 348, jump @8\n      : @361 [@dyn 174] (gas: 8)\n 12104: a0 = s1 + 0x18d8\n 12108: u64 [a0 + 1152] = 0\n 12112: u64 [a0 + 1144] = 0\n 12116: u64 [a0 + 1136] = 0\n 12120: u64 [a0 + 1128] = 0x3\n 12125: a0 = s1 + 0x4e0\n 12129: a1 = s1 + 0x1d40\n 12133: ra = 350, jump @6\n      : @362 [@dyn 175] (gas: 21)\n 12139: a3 = u64 [s1 + 0x4e0]\n 12143: a0 = u64 [s1 + 0x4e8]\n 12147: a1 = u64 [s1 + 0x4f0]\n 12151: a2 = u64 [s1 + 0x4f8]\n 12155: a5 = s1 + 0x100\n 12159: a4 = u64 [a5 + 0x20]\n 12162: u64 [s1 + 0x498] = a4\n 12166: a4 = u64 [a5 + 0x28]\n 12169: u64 [s1 + 0x490] = a4\n 12173: a4 = u64 [a5 + 0x38]\n 12176: u64 [s1 + 0x488] = a4\n 12180: a4 = u64 [a5 + 0x30]\n 12183: u64 [s1 + 0x480] = a4\n 12187: u64 [s1 + 0x4b8] = a2\n 12191: u64 [s1 + 0x4b0] = a1\n 12195: u64 [s1 + 0x4a8] = a0\n 12199: a0 = s1 + 0x4c0\n 12203: a1 = s1 + 0x4a0\n 12207: a2 = s1 + 0x480\n 12211: u64 [s1 + 0x4a0] = a3\n 12215: ra = 352, jump @613\n      : @363 [@dyn 176] (gas: 17)\n 12221: a0 = u64 [s1 + 0x4c0]\n 12225: a1 = u64 [s1 + 0x4c8]\n 12229: a2 = u64 [s1 + 0x4d0]\n 12233: a3 = u64 [s1 + 0x4d8]\n 12237: a4 = s1 + 0x18d8\n 12241: u64 [a4 + 1184] = 0\n 12245: u64 [a4 + 1176] = 0\n 12249: u64 [a4 + 1168] = 0\n 12253: u64 [a4 + 1160] = 0x3\n 12258: a5 = a4 + 0x400\n 12262: u64 [a5 + 0xc0] = a3\n 12266: u64 [a5 + 0xb8] = a2\n 12270: u64 [a5 + 0xb0] = a1\n 12274: u64 [a5 + 0xa8] = a0\n 12278: a0 = s1 + 0x1d60\n 12282: a1 = s1 + 0x1d80\n 12286: ra = 354, jump @8\n      : @364 [@dyn 177] (gas: 8)\n 12292: a0 = s1 + 0x18d8\n 12296: u64 [a0 + 1248] = 0\n 12300: u64 [a0 + 1240] = 0\n 12304: u64 [a0 + 1232] = 0\n 12308: u64 [a0 + 1224] = 0x2\n 12313: a0 = s1 + 0x460\n 12317: a1 = s1 + 0x1da0\n 12321: ra = 356, jump @6\n      : @365 [@dyn 178] (gas: 30)\n 12327: a0 = u64 [s1 + 0x88]\n 12331: a2 = a0 >> 0x10\n 12334: a5 = u64 [s1 + 0x90]\n 12338: a1 = a5 << 0x30\n 12341: t0 = a2 | a1\n 12344: a1 = u64 [s1 + 0xa8]\n 12348: a1 = a1 & 0xffffffffffffffff\n 12351: a2 = u32 [s1 + 0x47c]\n 12355: a3 = u64 [s1 + 0xb0]\n 12359: a4 = u64 [s1 + 0xb8]\n 12363: a3 = a3 & a4\n 12366: a4 = a0 << 0x30\n 12369: a3 = a3 | a4\n 12372: a2 = a2 << 0x20\n 12375: a4 = a5 << 0x10\n 12378: a4 = a4 >> 0x20\n 12381: a2 = a2 | a4\n 12384: a0 = s1 + 0x18d8\n 12388: u64 [a0 + 1256] = 0x2\n 12393: u64 [a0 + 0x518] = t0\n 12397: a4 = a0 + 0x500\n 12401: u64 [a4 + 0x10] = a3\n 12404: u64 [a4 + 0x8] = a1\n 12407: u64 [a4 + 0x20] = a2\n 12410: u64 [a0 + 1280] = 0\n 12414: u64 [a0 + 1272] = 0\n 12418: u64 [a0 + 1264] = 0\n 12422: a0 = s1 + 0x1dc0\n 12426: a1 = s1 + 0x1de0\n 12430: ra = 358, jump @8\n      : @366 [@dyn 179] (gas: 3)\n 12436: a0 = s1 + 0x440\n 12440: a1 = 0x40\n 12443: ra = 360, jump @2\n      : @367 [@dyn 180] (gas: 13)\n 12449: a0 = s1 + 0x400\n 12453: a4 = u64 [a0 + 0x58]\n 12456: a5 = u64 [a0 + 0x50]\n 12459: a3 = u64 [a0 + 0x48]\n 12462: a2 = u64 [a0 + 0x40]\n 12465: a0 = a3 | a4\n 12468: a1 = a2 | a5\n 12471: a1 = a1 | a0\n 12474: a1 = a1 >> 0x20\n 12477: a0 = a0 | a5\n 12480: a0 = a0 << 0x20\n 12483: a0 = a0 | a1\n 12486: jump @369 if a0 == 0\n      : @368 (gas: 1)\n 12489: jump @201\n      : @369 (gas: 15)\n 12492: a0 = u64 [s1 + 0x80]\n 12496: u64 [s1 + 0x420] = a0\n 12500: a0 = u64 [s1 + 0x98]\n 12504: u64 [s1 + 0x428] = a0\n 12508: a0 = u64 [s1 + 0xa0]\n 12512: u64 [s1 + 0x430] = a0\n 12516: a1 = s1 + 0x420\n 12520: a0 = u64 [s1 + 0xc8]\n 12524: u64 [s1 + 0x438] = a0\n 12528: a0 = a2\n 12530: u64 [s1 + 0x118] = a2\n 12534: u64 [s1 + 0x110] = a3\n 12538: u64 [s1 + 0x108] = a4\n 12542: u64 [s1 + 0x100] = a5\n 12546: ra = 362, jump @4\n      : @370 [@dyn 181] (gas: 11)\n 12552: a4 = s1 + 0x100\n 12556: a2 = u64 [a4 + 0x18]\n 12559: a0 = u64 [a4 + 0x8]\n 12562: a1 = u64 [a4]\n 12564: a0 = a0 | a1\n 12567: a1 = 0xffffffe0\n 12577: a1 = a2 <u a1\n 12580: a3 = u64 [a4 + 0x10]\n 12583: a1 = 0 if a3 != 0\n 12585: a1 = 0 if a0 != 0\n 12587: jump @372 if a1 != 0\n      : @371 (gas: 1)\n 12590: jump @201\n      : @372 (gas: 12)\n 12593: i32 a0 = a2 + 0x20\n 12596: a1 = u64 [s1 + 0x68]\n 12599: a3 = s1 + 0x400\n 12603: u64 [a3] = a1\n 12605: a1 = u64 [s1 + 0x70]\n 12608: u64 [a3 + 0x8] = a1\n 12611: a1 = u64 [s1 + 0x78]\n 12614: u64 [a3 + 0x10] = a1\n 12617: a1 = s1 + 0x400\n 12621: a2 = u64 [s1 + 0xd0]\n 12625: u64 [a3 + 0x18] = a2\n 12628: ra = 364, jump @4\n      : @373 [@dyn 182] (gas: 6)\n 12634: a0 = u64 [s1 + 0xc0]\n 12638: ra = 0x16e\n 12642: ecalli 5 // 'caller'\n 12644: a2 = u64 [s1 + 0xf0]\n 12648: t0 = 0x170\n 12652: jump @677\n      : @374 [@dyn 183] (gas: 2)\n 12655: a2 = u64 [s1 + 0xf0]\n 12659: t0 = 368, jump @677\n      : @375 [@dyn 184] (gas: 48)\n 12665: t0 = a1 | a0\n 12668: a3 = a3 >> 0x20\n 12671: a2 = reverse a2\n 12673: a1 = a2 << 0x20\n 12676: a1 = a1 | a3\n 12679: a2 = a2 >> 0x20\n 12682: u64 [s1 + 984] = 0\n 12686: a3 = u64 [0x20068]\n 12691: a4 = u64 [0x20070]\n 12696: a5 = u64 [0x20078]\n 12701: a0 = u64 [0x20080]\n 12706: u64 [s1 + 0x3f8] = a3\n 12710: u64 [s1 + 0x3f0] = a4\n 12714: u64 [s1 + 0x3e8] = a5\n 12718: u64 [s1 + 0x3e0] = a0\n 12722: u64 [s1 + 0x3d0] = a2\n 12726: u64 [s1 + 0x3c8] = a1\n 12730: a1 = 0x40\n 12733: a2 = s1 + 0x3e0\n 12737: a3 = s1 + 0x3c0\n 12741: u64 [s1 + 0x3c0] = t0\n 12745: a0 = u64 [s1 + 0x118]\n 12749: ra = 0x172\n 12753: sp = sp + 0xffffffffffffff60\n 12757: u64 [sp + 0x98] = ra\n 12761: u64 [sp + 0x90] = s0\n 12765: u64 [sp + 0x88] = s1\n 12769: s0 = sp + 0xa0\n 12773: sp = sp & 0xffffffffffffffe0\n 12776: a4 = u64 [a3]\n 12778: u64 [sp + 0x38] = a4\n 12781: a4 = u64 [a3 + 0x8]\n 12784: u64 [sp + 0x30] = a4\n 12787: a4 = u64 [a3 + 0x10]\n 12790: u64 [sp + 0x28] = a4\n 12793: a3 = u64 [a3 + 0x18]\n 12796: u64 [sp + 0x20] = a3\n 12799: a3 = u64 [a2]\n 12801: u64 [sp + 0x18] = a3\n 12804: a3 = u64 [a2 + 0x8]\n 12807: u64 [sp + 0x10] = a3\n 12810: a3 = u64 [a2 + 0x10]\n 12813: u64 [sp + 0x8] = a3\n 12816: a2 = u64 [a2 + 0x18]\n 12819: u64 [sp] = a2\n 12821: s1 = a1\n 12823: ra = 0x8\n 12826: jump @12\n      : @376 [@dyn 185] (gas: 3)\n 12829: a0 = s1 + 0x3a0\n 12833: a1 = 0x40\n 12836: ra = 372, jump @2\n      : @377 [@dyn 186] (gas: 13)\n 12842: a4 = s1 + 0x300\n 12846: a0 = u64 [a4 + 0xb8]\n 12850: a1 = u64 [a4 + 0xb0]\n 12854: a2 = u64 [a4 + 0xa8]\n 12858: a3 = u64 [a4 + 0xa0]\n 12862: a0 = a0 | a2\n 12865: a2 = a3 | a1\n 12868: a2 = a2 | a0\n 12871: a2 = a2 >> 0x20\n 12874: a0 = a0 | a1\n 12877: a0 = a0 << 0x20\n 12880: a0 = a0 | a2\n 12883: jump @379 if a0 == 0\n      : @378 (gas: 1)\n 12886: jump @201\n      : @379 (gas: 15)\n 12889: a2 = s1 + 0x100\n 12893: a0 = u64 [a2 + 0x30]\n 12896: a4 = s1 + 0x300\n 12900: u64 [a4 + 0x80] = a0\n 12904: a0 = u64 [a2 + 0x38]\n 12907: u64 [a4 + 0x88] = a0\n 12911: a0 = u64 [a2 + 0x28]\n 12914: u64 [a4 + 0x90] = a0\n 12918: a1 = s1 + 0x380\n 12922: a0 = u64 [a2 + 0x20]\n 12925: u64 [a4 + 0x98] = a0\n 12929: a0 = a3\n 12931: u64 [s1 + 0x138] = a3\n 12935: ra = 0x1d6\n 12939: jump @4\n      : @380 (gas: 3)\n 12942: a0 = s1 + 0x1360\n 12946: a1 = 0x40\n 12949: ra = 374, jump @2\n      : @381 [@dyn 187] (gas: 3)\n 12955: a0 = s1 + 0x10b8\n 12959: a2 = a0 + 0x200\n 12963: t0 = 376, jump @674\n      : @382 [@dyn 188] (gas: 4)\n 12969: ra = 0x17a\n 12973: ecalli 11 // 'return_data_size'\n 12975: t0 = 0x17c\n 12979: jump @661\n      : @383 [@dyn 189] (gas: 1)\n 12982: t0 = 380, jump @661\n      : @384 [@dyn 190] (gas: 1)\n 12988: jump @386 if a1 == 0\n      : @385 (gas: 1)\n 12991: jump @201\n      : @386 (gas: 3)\n 12994: a2 = a0\n 12996: a0 = a0 >> 0x20\n 12999: jump @388 if a0 == 0\n      : @387 (gas: 1)\n 13002: jump @201\n      : @388 (gas: 1)\n 13005: t0 = 382, jump @668\n      : @389 [@dyn 191] (gas: 1)\n 13011: ra = 384, jump @12\n      : @390 [@dyn 192] (gas: 11)\n 13017: a1 = s1 + 0x18d8\n 13021: a2 = u64 [s1 + 0x128]\n 13025: u32 [a1 + 0x748] = a2\n 13029: i32 a0 = a0 + 0\n 13031: a1 = s1 + 0x2000\n 13035: i32 a1 = a1 + 0x20\n 13038: a2 = 0\n 13040: ecalli 10 // 'return_data_copy'\n 13042: a0 = s1 + 0x18d8\n 13046: a0 = i32 [a0 + 0x748]\n 13050: jump @222\n      : @391 (gas: 3)\n 13053: a0 = s1 + 0x16a0\n 13057: a1 = 0x40\n 13060: ra = 386, jump @2\n      : @392 [@dyn 193] (gas: 15)\n 13066: a2 = s1 + 0x10b8\n 13070: a4 = u64 [a2 + 0x600]\n 13074: a0 = a2 + 0x500\n 13078: a5 = u64 [a0 + 0xf8]\n 13082: a3 = u64 [a0 + 0xf0]\n 13086: a1 = u64 [a0 + 0xe8]\n 13090: a0 = a3 | a4\n 13093: u64 [s1 + 0x138] = a1\n 13097: a1 = a1 | a5\n 13100: a1 = a1 | a0\n 13103: a1 = a1 >> 0x20\n 13106: a0 = a0 | a5\n 13109: a0 = a0 << 0x20\n 13112: a0 = a0 | a1\n 13115: jump @394 if a0 == 0\n      : @393 (gas: 1)\n 13118: jump @201\n      : @394 (gas: 11)\n 13121: u64 [a2 + 1496] = 0\n 13125: u64 [a2 + 1488] = 0\n 13129: u64 [a2 + 1480] = 0\n 13133: a0 = 0x8c379a000000000\n 13143: a1 = s1 + 0x1680\n 13147: u64 [a2 + 0x5e0] = a0\n 13151: a0 = u64 [s1 + 0x138]\n 13155: u64 [s1 + 0x130] = a3\n 13159: u64 [s1 + 0x128] = a4\n 13163: u64 [s1 + 0x120] = a5\n 13167: ra = 388, jump @4\n      : @395 [@dyn 194] (gas: 12)\n 13173: a5 = s1 + 0x100\n 13177: a2 = u64 [a5 + 0x30]\n 13180: a0 = u64 [a5 + 0x28]\n 13183: a1 = u64 [a5 + 0x20]\n 13186: a1 = a1 | a0\n 13189: a3 = 0x100000000\n 13199: a0 = 0xfffffffc\n 13209: a4 = u64 [a5 + 0x38]\n 13212: a0 = a4 <u a0\n 13215: a0 = 0 if a2 != 0\n 13217: a0 = 0 if a1 != 0\n 13219: jump @397 if a0 != 0\n      : @396 (gas: 1)\n 13222: jump @201\n      : @397 (gas: 11)\n 13225: a0 = u64 [s1 + 0x138]\n 13229: i32 a0 = a0 + 0x4\n 13232: u64 [s1 + 0x120] = a3\n 13236: a3 = s1 + 0x10b8\n 13240: u64 [a3 + 1472] = 0\n 13244: u64 [a3 + 1464] = 0\n 13248: u64 [s1 + 0x128] = a1\n 13252: u64 [a3 + 1448] = 0x20\n 13257: a1 = s1 + 0x1660\n 13261: u64 [a3 + 1456] = 0\n 13265: ra = 390, jump @4\n      : @398 [@dyn 195] (gas: 4)\n 13271: a2 = s1 + 0x100\n 13275: a0 = u64 [a2 + 0x20]\n 13278: a0 = a0 + 0xffffffffffffffdc\n 13281: t0 = 392, jump @659\n      : @399 [@dyn 196] (gas: 1)\n 13287: jump @401 if a0 != 0\n      : @400 (gas: 1)\n 13290: jump @201\n      : @401 (gas: 9)\n 13293: a0 = u64 [s1 + 0x138]\n 13297: i32 a0 = a0 + 0x24\n 13300: a2 = s1 + 0x10b8\n 13304: u64 [a2 + 1440] = 0\n 13308: u64 [a2 + 1432] = 0\n 13312: u64 [a2 + 1416] = 0x16\n 13317: a1 = s1 + 0x1640\n 13321: u64 [a2 + 1424] = 0\n 13325: ra = 394, jump @4\n      : @402 [@dyn 197] (gas: 3)\n 13331: a0 = 0xffffffbc\n 13341: a2 = s1 + 0x100\n 13345: t0 = 396, jump @659\n      : @403 [@dyn 198] (gas: 1)\n 13351: jump @405 if a0 != 0\n      : @404 (gas: 1)\n 13354: jump @201\n      : @405 (gas: 14)\n 13357: a0 = u64 [s1 + 0x138]\n 13361: i32 a0 = a0 + 0x44\n 13364: a1 = u64 [0x20018]\n 13369: a2 = u64 [0x20020]\n 13374: a3 = s1 + 0x10b8\n 13378: a4 = a3 + 0x500\n 13382: u64 [a4 + 0x80] = a1\n 13386: u64 [a4 + 0x78] = a2\n 13389: a1 = 0x544f4b454e300000\n 13399: u64 [a4 + 0x70] = a1\n 13402: a1 = s1 + 0x1620\n 13406: u64 [a3 + 1384] = 0\n 13410: ra = 0xb8\n 13414: jump @4\n      : @406 (gas: 3)\n 13417: a0 = s1 + 0x1260\n 13421: a1 = 0x40\n 13424: ra = 398, jump @2\n      : @407 [@dyn 199] (gas: 3)\n 13430: a0 = s1 + 0x10b8\n 13434: a2 = a0 + 0x100\n 13438: t0 = 400, jump @674\n      : @408 [@dyn 200] (gas: 4)\n 13444: ra = 0x192\n 13448: ecalli 11 // 'return_data_size'\n 13450: t0 = 0x194\n 13454: jump @661\n      : @409 [@dyn 201] (gas: 1)\n 13457: t0 = 404, jump @661\n      : @410 [@dyn 202] (gas: 1)\n 13463: jump @412 if a1 == 0\n      : @411 (gas: 1)\n 13466: jump @201\n      : @412 (gas: 3)\n 13469: a1 = a0\n 13471: a0 = a0 >> 0x20\n 13474: jump @414 if a0 == 0\n      : @413 (gas: 1)\n 13477: jump @201\n      : @414 (gas: 5)\n 13480: u64 [s1 + 0x128] = a1\n 13484: i32 a0 = a1 + 0\n 13486: u64 [s1 + 0x130] = a0\n 13490: a0 = u64 [s1 + 0x138]\n 13494: ra = 406, jump @12\n      : @415 [@dyn 203] (gas: 11)\n 13500: a1 = s1 + 0x18d8\n 13504: a2 = u64 [s1 + 0x128]\n 13508: u32 [a1 + 0x7e8] = a2\n 13512: i32 a0 = a0 + 0\n 13514: a1 = s1 + 0x2000\n 13518: i32 a1 = a1 + 0xc0\n 13522: a2 = 0\n 13524: ecalli 10 // 'return_data_copy'\n 13526: a0 = s1 + 0x18d8\n 13530: a0 = i32 [a0 + 0x7e8]\n 13534: jump @222\n      : @416 (gas: 6)\n 13537: u64 [s1 + 80] = 0\n 13540: u64 [s1 + 88] = 0\n 13543: u64 [s1 + 96] = 0\n 13546: u64 [s1 + 104] = 0\n 13549: a1 = s1 + 0x10b8\n 13553: fallthrough\n      : @417 (gas: 21)\n 13554: a3 = s1 + 0x7ff\n 13558: a3 = a3 + 0xb9\n 13562: a5 = s1 + 0x100\n 13566: a0 = u64 [a5]\n 13568: u64 [a3 + 0x7c8] = a0\n 13572: u64 [a1 + 0] = 0\n 13574: u64 [a1 + 4294967288] = 0\n 13577: a0 = u64 [s1 + 0x98]\n 13581: u64 [a1 + 0xffffffffffffffe8] = a0\n 13584: a0 = u64 [a5 + 0x8]\n 13587: u64 [a3 + 0x7d0] = a0\n 13591: a0 = u64 [s1 + 0x90]\n 13595: u64 [a1 + 0xfffffffffffffff0] = a0\n 13598: a0 = u64 [a5 + 0x10]\n 13601: u64 [a3 + 0x7d8] = a0\n 13605: a0 = s1 + 0x10c0\n 13609: a1 = s1 + 0x10a0\n 13613: a2 = s1 + 0x1080\n 13617: a4 = u64 [a5 + 0x18]\n 13620: u64 [a3 + 0x7e0] = a4\n 13624: ra = 408, jump @573\n      : @418 [@dyn 204] (gas: 21)\n 13630: a2 = s1 + 0x10b8\n 13634: a0 = u64 [a2 + 0x20]\n 13637: a1 = u64 [a2 + 0x8]\n 13640: t1 = u64 [a2 + 0x18]\n 13643: a3 = u64 [a2 + 0x10]\n 13646: a5 = u64 [s1 + 0x80]\n 13650: a4 = a5 ^ a0\n 13653: a0 = a0 <u a5\n 13656: a2 = u64 [s1 + 0x70]\n 13659: a5 = t1 <u a2\n 13662: a5 = a0 if a4 != 0\n 13665: a0 = u64 [s1 + 0xd0]\n 13669: t0 = a0 ^ a3\n 13672: a3 = a3 <u a0\n 13675: a0 = u64 [s1 + 0xf8]\n 13679: a1 = a1 <u a0\n 13682: a1 = a3 if t0 != 0\n 13685: a0 = a2 ^ t1\n 13688: a0 = a0 | a4\n 13691: a1 = a5 if a0 != 0\n 13694: jump @422 if a1 == 0\n      : @419 (gas: 23)\n 13698: a1 = s1 + 0x7ff\n 13702: a1 = a1 + 0xb9\n 13706: a5 = s1 + 0x100\n 13710: a0 = u64 [a5]\n 13712: a2 = a1 + 0x700\n 13716: u64 [a2 + 0x68] = a0\n 13719: u64 [a1 + 1952] = 0\n 13723: u64 [a1 + 1944] = 0\n 13727: a0 = u64 [s1 + 0x98]\n 13731: u64 [a2 + 0x88] = a0\n 13735: a0 = u64 [a5 + 0x8]\n 13738: u64 [a2 + 0x70] = a0\n 13741: a0 = u64 [s1 + 0x90]\n 13745: u64 [a2 + 0x90] = a0\n 13749: a0 = u64 [a5 + 0x10]\n 13752: u64 [a2 + 0x78] = a0\n 13755: a4 = a1\n 13757: a0 = s1 + 0x1060\n 13761: a1 = s1 + 0x1040\n 13765: a2 = s1 + 0x1020\n 13769: a3 = u64 [a5 + 0x18]\n 13772: u64 [a4 + 0x780] = a3\n 13776: ra = 410, jump @573\n      : @420 [@dyn 205] (gas: 25)\n 13782: a4 = s1 + 0x7ff\n 13786: a4 = a4 + 0xb9\n 13790: a5 = a4 + 0x700\n 13794: a0 = u64 [a5 + 0xa8]\n 13798: a1 = u64 [a5 + 0xb0]\n 13802: a2 = u64 [a5 + 0xb8]\n 13806: a3 = u64 [a5 + 0xc0]\n 13810: u64 [a5 + 0x20] = a3\n 13813: u64 [a5 + 0x18] = a2\n 13816: u64 [a5 + 0x10] = a1\n 13819: u64 [a5 + 0x8] = a0\n 13822: a0 = u64 [s1 + 0x80]\n 13826: u64 [a5 + 0x40] = a0\n 13829: a0 = u64 [s1 + 0x70]\n 13832: u64 [a5 + 0x38] = a0\n 13835: a0 = u64 [s1 + 0xd0]\n 13839: u64 [a5 + 0x30] = a0\n 13842: a0 = s1 + 0x1000\n 13846: a1 = s1 + 0x7ff\n 13850: a1 = a1 + 0x7e1\n 13854: a2 = s1 + 0x7ff\n 13858: a2 = a2 + 0x7c1\n 13862: a3 = u64 [s1 + 0xf8]\n 13866: u64 [a5 + 0x28] = a3\n 13869: ra = 412, jump @573\n      : @421 [@dyn 206] (gas: 8)\n 13875: a0 = s1 + 0x7ff\n 13879: a0 = a0 + 0xb9\n 13883: a5 = a0 + 0x700\n 13887: a3 = u64 [a5 + 0x60]\n 13890: a4 = u64 [a5 + 0x58]\n 13893: a1 = u64 [a5 + 0x50]\n 13896: a2 = u64 [a5 + 0x48]\n 13899: jump @423\n      : @422 (gas: 4)\n 13901: a2 = 0\n 13903: a4 = 0\n 13905: a3 = 0\n 13907: fallthrough\n      : @423 (gas: 16)\n 13908: a0 = u64 [s1 + 0x58]\n 13911: u64 [s1 + 0x38] = a1\n 13914: a0 = a0 | a1\n 13917: a1 = u64 [s1 + 0x50]\n 13920: u64 [s1 + 0x30] = a2\n 13923: a1 = a1 | a2\n 13926: a2 = u64 [s1 + 0x60]\n 13929: u64 [s1 + 0x40] = a4\n 13932: a2 = a2 | a4\n 13935: a1 = a1 | a2\n 13938: a2 = u64 [s1 + 0x68]\n 13941: u64 [s1 + 0x48] = a3\n 13944: a2 = a2 | a3\n 13947: a0 = a0 | a2\n 13950: a0 = a0 | a1\n 13953: jump @450 if a0 == 0\n      : @424 (gas: 25)\n 13957: a2 = 0x3e8\n 13961: ra = u64 [s1 + 0xc0]\n 13965: t1 = ra mulhu a2\n 13968: a5 = u64 [s1 + 0xb8]\n 13972: a0 = a5 * a2\n 13975: t1 = t1 + a0\n 13978: u64 [s1 + 0x28] = t1\n 13981: a0 = t1 <u a0\n 13984: a1 = a5 mulhu a2\n 13987: a0 = a0 + a1\n 13990: a4 = u64 [s1 + 0x88]\n 13994: t2 = a4 * a2\n 13997: t2 = t2 + a0\n 14000: u64 [s1 + 0x20] = t2\n 14003: a3 = t2 <u a0\n 14006: t0 = a4 mulhu a2\n 14009: a0 = u64 [s1 + 0xb0]\n 14013: a1 = a0 * a2\n 14016: a1 = a1 + t0\n 14019: a4 = ra | a4\n 14022: a5 = a5 | a0\n 14025: a4 = a4 | a5\n 14028: a0 = a1 + a3\n 14031: u64 [s1 + 0x88] = a0\n 14035: jump @426 if a4 == 0\n      : @425 (gas: 9)\n 14038: a0 = u64 [s1 + 0x88]\n 14042: a3 = 0 if a0 != 0\n 14044: a0 = a1 <u t0\n 14047: a1 = u64 [s1 + 0xb0]\n 14051: a1 = a1 mulhu a2\n 14054: a1 = a1 >u 0\n 14056: a0 = a0 | a1\n 14059: a0 = a0 | a3\n 14062: jump @528 if a0 != 0\n      : @426 (gas: 21)\n 14066: ra = u64 [s1 + 0xf8]\n 14070: t0 = ra mulhu a2\n 14073: a4 = u64 [s1 + 0xd0]\n 14077: a0 = a4 * 0x3e8\n 14081: t0 = t0 + a0\n 14084: a0 = t0 <u a0\n 14087: a1 = a4 mulhu a2\n 14090: a0 = a0 + a1\n 14093: a1 = u64 [s1 + 0x70]\n 14096: a5 = a1 * 0x3e8\n 14100: t1 = a0 + a5\n 14103: a3 = t1 <u a0\n 14106: t2 = a1 mulhu a2\n 14109: a5 = u64 [s1 + 0x80]\n 14113: a0 = a5 * 0x3e8\n 14117: a0 = a0 + t2\n 14120: a1 = ra | a1\n 14123: a5 = a5 | a4\n 14126: a4 = a1 | a5\n 14129: ra = a0 + a3\n 14132: jump @428 if a4 == 0\n      : @427 (gas: 8)\n 14135: a3 = 0 if ra != 0\n 14137: a0 = a0 <u t2\n 14140: a1 = u64 [s1 + 0x80]\n 14144: a1 = a1 mulhu a2\n 14147: a1 = a1 >u 0\n 14149: a0 = a0 | a1\n 14152: a0 = a0 | a3\n 14155: jump @534 if a0 != 0\n      : @428 (gas: 26)\n 14159: a0 = u64 [s1 + 0xc0]\n 14163: a0 = a0 * 0x3e8\n 14167: a1 = u64 [s1 + 0xf8]\n 14171: a1 = a1 * 0x3e8\n 14175: a2 = s1 + 0x7ff\n 14179: a2 = a2 + 0xb9\n 14183: a3 = a2 + 0x500\n 14187: u64 [a3 + 0x88] = a1\n 14191: u64 [a3 + 0xa8] = a0\n 14195: u64 [a2 + 0x590] = t0\n 14199: a0 = u64 [s1 + 0x28]\n 14202: u64 [a3 + 0xb0] = a0\n 14206: u64 [a2 + 0x598] = t1\n 14210: a0 = u64 [s1 + 0x20]\n 14213: u64 [a3 + 0xb8] = a0\n 14217: u64 [a2 + 0x5a0] = ra\n 14221: a4 = a2\n 14223: a0 = s1 + 0x7ff\n 14227: a0 = a0 + 0x681\n 14231: a1 = s1 + 0x7ff\n 14235: a1 = a1 + 0x661\n 14239: a2 = s1 + 0x7ff\n 14243: a2 = a2 + 0x641\n 14247: a3 = u64 [s1 + 0x88]\n 14251: u64 [a4 + 0x5c0] = a3\n 14255: ra = 414, jump @580\n      : @429 [@dyn 207] (gas: 31)\n 14261: a1 = s1 + 0x7ff\n 14265: a1 = a1 + 0xb9\n 14269: a2 = a1 + 0x500\n 14273: a0 = u64 [a2 + 0xe0]\n 14277: u64 [s1 + 0x88] = a0\n 14281: a0 = u64 [a2 + 0xd8]\n 14285: u64 [s1 + 0xb0] = a0\n 14289: a0 = u64 [a2 + 0xd0]\n 14293: u64 [s1 + 0x80] = a0\n 14297: a0 = u64 [a2 + 0xc8]\n 14301: u64 [s1 + 0x70] = a0\n 14304: u64 [a1 + 1344] = 0\n 14308: u64 [a1 + 1336] = 0\n 14312: a0 = u64 [s1 + 0x90]\n 14316: u64 [a2 + 0x30] = a0\n 14319: a0 = u64 [s1 + 0x98]\n 14323: u64 [a2 + 0x28] = a0\n 14326: u64 [a1 + 1376] = 0\n 14330: u64 [a1 + 1368] = 0\n 14334: a0 = u64 [s1 + 0xa0]\n 14338: u64 [a2 + 0x50] = a0\n 14341: a4 = a1\n 14343: a0 = s1 + 0x7ff\n 14347: a0 = a0 + 0x621\n 14351: a1 = s1 + 0x7ff\n 14355: a1 = a1 + 0x601\n 14359: a2 = s1 + 0x7ff\n 14363: a2 = a2 + 0x5e1\n 14367: a3 = u64 [s1 + 0xa8]\n 14371: u64 [a4 + 0x548] = a3\n 14375: ra = 416, jump @580\n      : @430 [@dyn 208] (gas: 24)\n 14381: a0 = s1 + 0x7ff\n 14385: a0 = a0 + 0xb9\n 14389: t0 = u64 [a0 + 0x580]\n 14393: a4 = u64 [a0 + 0x578]\n 14397: ra = u64 [a0 + 0x568]\n 14401: a1 = u64 [a0 + 0x570]\n 14405: a3 = 0xf4240\n 14410: a2 = ra mulhu a3\n 14413: a0 = a1 * a3\n 14416: a2 = a2 + a0\n 14419: a0 = a2 <u a0\n 14422: a5 = a1 mulhu a3\n 14425: a0 = a0 + a5\n 14428: t2 = a4 * a3\n 14431: t2 = t2 + a0\n 14434: a5 = t2 <u a0\n 14437: a0 = t0 * a3\n 14440: t1 = a4 mulhu a3\n 14443: a0 = a0 + t1\n 14446: a1 = a1 | t0\n 14449: a4 = ra | a4\n 14452: a1 = a1 | a4\n 14455: a4 = a0 + a5\n 14458: jump @432 if a1 == 0\n      : @431 (gas: 7)\n 14461: a5 = 0 if a4 != 0\n 14463: a0 = a0 <u t1\n 14466: a1 = t0 mulhu a3\n 14469: a1 = a1 >u 0\n 14471: a0 = a0 | a1\n 14474: a0 = a0 | a5\n 14477: jump @540 if a0 != 0\n      : @432 (gas: 17)\n 14481: a0 = ra * 0xf4240\n 14486: a1 = u64 [s1 + 0x70]\n 14489: a0 = a1 <u a0\n 14492: a3 = u64 [s1 + 0x80]\n 14496: a1 = a3 ^ a2\n 14499: a2 = a3 <u a2\n 14502: a2 = a0 if a1 == 0\n 14505: a5 = u64 [s1 + 0xb0]\n 14509: a0 = a5 <u t2\n 14512: a3 = u64 [s1 + 0x88]\n 14516: a1 = a3 ^ a4\n 14519: a3 = a3 <u a4\n 14522: a3 = a0 if a1 == 0\n 14525: a0 = a5 ^ t2\n 14528: a0 = a0 | a1\n 14531: a3 = a2 if a0 == 0\n 14534: jump @467 if a3 == 0\n      : @433 (gas: 4)\n 14538: a0 = s1 + 0x7ff\n 14542: a0 = a0 + 0x461\n 14546: a1 = 0x40\n 14549: ra = 418, jump @2\n      : @434 [@dyn 209] (gas: 8)\n 14555: a0 = s1 + 0x7ff\n 14559: a0 = a0 + 0xb9\n 14563: a5 = a0 + 0x300\n 14567: a3 = u64 [a5 + 0xc0]\n 14571: a4 = u64 [a5 + 0xb8]\n 14575: a2 = u64 [a5 + 0xb0]\n 14579: a1 = u64 [a5 + 0xa8]\n 14583: t0 = 420, jump @669\n      : @435 [@dyn 210] (gas: 1)\n 14589: jump @437 if a0 == 0\n      : @436 (gas: 1)\n 14592: jump @201\n      : @437 (gas: 11)\n 14595: a2 = s1 + 0x7ff\n 14599: a2 = a2 + 0xb9\n 14603: u64 [a2 + 920] = 0\n 14607: u64 [a2 + 912] = 0\n 14611: u64 [a2 + 904] = 0\n 14615: a0 = 0x8c379a000000000\n 14625: a1 = s1 + 0x7ff\n 14629: a1 = a1 + 0x441\n 14633: u64 [a2 + 0x3a0] = a0\n 14637: a0 = u64 [s1 + 0x138]\n 14641: ra = 422, jump @4\n      : @438 [@dyn 211] (gas: 1)\n 14647: t0 = 424, jump @660\n      : @439 [@dyn 212] (gas: 1)\n 14653: jump @441 if a0 != 0\n      : @440 (gas: 1)\n 14656: jump @201\n      : @441 (gas: 11)\n 14659: a0 = u64 [s1 + 0x138]\n 14663: i32 a0 = a0 + 0x4\n 14666: a2 = s1 + 0x7ff\n 14670: a2 = a2 + 0xb9\n 14674: u64 [a2 + 896] = 0\n 14678: u64 [a2 + 888] = 0\n 14682: u64 [a2 + 872] = 0x20\n 14687: a1 = s1 + 0x7ff\n 14691: a1 = a1 + 0x421\n 14695: u64 [a2 + 880] = 0\n 14699: ra = 426, jump @4\n      : @442 [@dyn 213] (gas: 4)\n 14705: a2 = s1 + 0x100\n 14709: a0 = u64 [a2 + 0x20]\n 14712: a0 = a0 + 0xffffffffffffffdc\n 14715: t0 = 428, jump @659\n      : @443 [@dyn 214] (gas: 1)\n 14721: jump @445 if a0 != 0\n      : @444 (gas: 1)\n 14724: jump @201\n      : @445 (gas: 11)\n 14727: a0 = u64 [s1 + 0x138]\n 14731: i32 a0 = a0 + 0x24\n 14734: a2 = s1 + 0x7ff\n 14738: a2 = a2 + 0xb9\n 14742: u64 [a2 + 864] = 0\n 14746: u64 [a2 + 856] = 0\n 14750: u64 [a2 + 848] = 0\n 14754: a1 = s1 + 0x7ff\n 14758: a1 = a1 + 0x401\n 14762: u64 [a2 + 840] = 0x1\n 14767: ra = 430, jump @4\n      : @446 [@dyn 215] (gas: 3)\n 14773: a0 = 0xffffffbc\n 14783: a2 = s1 + 0x100\n 14787: t0 = 432, jump @659\n      : @447 [@dyn 216] (gas: 1)\n 14793: jump @449 if a0 != 0\n      : @448 (gas: 1)\n 14796: jump @201\n      : @449 (gas: 13)\n 14799: a0 = u64 [s1 + 0x138]\n 14803: i32 a0 = a0 + 0x44\n 14806: a2 = s1 + 0x7ff\n 14810: a2 = a2 + 0xb9\n 14814: u64 [a2 + 824] = 0\n 14818: u64 [a2 + 816] = 0\n 14822: a1 = 0x4b00000000000000\n 14832: u64 [a2 + 0x340] = a1\n 14836: a1 = s1 + 0x7ff\n 14840: a1 = a1 + 0x3e1\n 14844: u64 [a2 + 808] = 0\n 14848: ra = 0xb8\n 14852: jump @4\n      : @450 (gas: 4)\n 14855: a0 = s1 + 0x7ff\n 14859: a0 = a0 + 0x7a1\n 14863: a1 = 0x40\n 14866: ra = 434, jump @2\n      : @451 [@dyn 217] (gas: 8)\n 14872: a0 = s1 + 0x7ff\n 14876: a0 = a0 + 0xb9\n 14880: a3 = u64 [a0 + 0x700]\n 14884: a5 = a0 + 0x600\n 14888: a4 = u64 [a5 + 0xf8]\n 14892: a2 = u64 [a5 + 0xf0]\n 14896: a1 = u64 [a5 + 0xe8]\n 14900: t0 = 436, jump @669\n      : @452 [@dyn 218] (gas: 1)\n 14906: jump @454 if a0 == 0\n      : @453 (gas: 1)\n 14909: jump @201\n      : @454 (gas: 11)\n 14912: a2 = s1 + 0x7ff\n 14916: a2 = a2 + 0xb9\n 14920: u64 [a2 + 1752] = 0\n 14924: u64 [a2 + 1744] = 0\n 14928: u64 [a2 + 1736] = 0\n 14932: a0 = 0x8c379a000000000\n 14942: a1 = s1 + 0x7ff\n 14946: a1 = a1 + 0x781\n 14950: u64 [a2 + 0x6e0] = a0\n 14954: a0 = u64 [s1 + 0x138]\n 14958: ra = 438, jump @4\n      : @455 [@dyn 219] (gas: 1)\n 14964: t0 = 440, jump @660\n      : @456 [@dyn 220] (gas: 1)\n 14970: jump @458 if a0 != 0\n      : @457 (gas: 1)\n 14973: jump @201\n      : @458 (gas: 11)\n 14976: a0 = u64 [s1 + 0x138]\n 14980: i32 a0 = a0 + 0x4\n 14983: a2 = s1 + 0x7ff\n 14987: a2 = a2 + 0xb9\n 14991: u64 [a2 + 1728] = 0\n 14995: u64 [a2 + 1720] = 0\n 14999: u64 [a2 + 1704] = 0x20\n 15004: a1 = s1 + 0x7ff\n 15008: a1 = a1 + 0x761\n 15012: u64 [a2 + 1712] = 0\n 15016: ra = 442, jump @4\n      : @459 [@dyn 221] (gas: 4)\n 15022: a2 = s1 + 0x100\n 15026: a0 = u64 [a2 + 0x20]\n 15029: a0 = a0 + 0xffffffffffffffdc\n 15032: t0 = 444, jump @659\n      : @460 [@dyn 222] (gas: 1)\n 15038: jump @462 if a0 != 0\n      : @461 (gas: 1)\n 15041: jump @201\n      : @462 (gas: 11)\n 15044: a0 = u64 [s1 + 0x138]\n 15048: i32 a0 = a0 + 0x24\n 15051: a2 = s1 + 0x7ff\n 15055: a2 = a2 + 0xb9\n 15059: u64 [a2 + 1696] = 0\n 15063: u64 [a2 + 1688] = 0\n 15067: u64 [a2 + 1672] = 0x19\n 15072: a1 = s1 + 0x7ff\n 15076: a1 = a1 + 0x741\n 15080: u64 [a2 + 1680] = 0\n 15084: ra = 446, jump @4\n      : @463 [@dyn 223] (gas: 3)\n 15090: a0 = 0xffffffbc\n 15100: a2 = s1 + 0x100\n 15104: t0 = 448, jump @659\n      : @464 [@dyn 224] (gas: 1)\n 15110: jump @466 if a0 != 0\n      : @465 (gas: 1)\n 15113: jump @201\n      : @466 (gas: 17)\n 15116: a0 = u64 [s1 + 0x138]\n 15120: i32 a0 = a0 + 0x44\n 15123: a1 = u64 [0x20000]\n 15128: a2 = u64 [0x20030]\n 15133: a3 = u64 [0x20038]\n 15138: a4 = s1 + 0x7ff\n 15142: a4 = a4 + 0xb9\n 15146: a5 = a4 + 0x600\n 15150: u64 [a5 + 0x80] = a1\n 15154: u64 [a5 + 0x78] = a2\n 15157: u64 [a5 + 0x70] = a3\n 15160: a2 = 0x5400000000000000\n 15170: a1 = s1 + 0x7ff\n 15174: a1 = a1 + 0x721\n 15178: u64 [a5 + 0x68] = a2\n 15181: ra = 0xb8\n 15185: jump @4\n      : @467 (gas: 9)\n 15188: a0 = s1 + 0x20f8\n 15192: u64 [a0 + 0] = 0\n 15194: u64 [a0 + 4294967288] = 0\n 15197: u64 [a0 + 4294967280] = 0\n 15200: u64 [a0 + 4294967272] = 0x2\n 15204: a0 = s1 + 0x7ff\n 15208: a0 = a0 + 0x581\n 15212: a1 = s1 + 0x20e0\n 15216: ra = 450, jump @6\n      : @468 [@dyn 225] (gas: 31)\n 15222: a0 = u64 [s1 + 0xf8]\n 15226: a2 = a0 >> 0x10\n 15229: a5 = u64 [s1 + 0xd0]\n 15233: a1 = a5 << 0x30\n 15236: t0 = a2 | a1\n 15239: a2 = u64 [s1 + 0xc0]\n 15243: a1 = a2 & 0xffffffffffffffff\n 15246: a2 = s1 + 0x7ff\n 15250: a2 = a2 + 0xb9\n 15254: a2 = u32 [a2 + 0x4e4]\n 15258: a3 = u64 [s1 + 0xc8]\n 15262: a4 = u64 [s1 + 0xb8]\n 15266: a3 = a3 & a4\n 15269: a4 = a0 << 0x30\n 15272: a3 = a3 | a4\n 15275: a2 = a2 << 0x20\n 15278: a4 = a5 << 0x10\n 15281: a4 = a4 >> 0x20\n 15284: a2 = a2 | a4\n 15287: a0 = s1 + 0x20f8\n 15291: u64 [a0 + 8] = 0x2\n 15295: u64 [a0 + 0x38] = t0\n 15298: u64 [a0 + 0x30] = a3\n 15301: u64 [a0 + 0x28] = a1\n 15304: u64 [a0 + 0x40] = a2\n 15307: u64 [a0 + 32] = 0\n 15310: u64 [a0 + 24] = 0\n 15313: u64 [a0 + 16] = 0\n 15316: a0 = s1 + 0x2100\n 15320: a1 = s1 + 0x2120\n 15324: ra = 452, jump @8\n      : @469 [@dyn 226] (gas: 4)\n 15330: a0 = s1 + 0x7ff\n 15334: a0 = a0 + 0x561\n 15338: a1 = 0x40\n 15341: ra = 454, jump @2\n      : @470 [@dyn 227] (gas: 19)\n 15347: a1 = s1 + 0x7ff\n 15351: a1 = a1 + 0xb9\n 15355: a4 = a1 + 0x400\n 15359: a2 = u64 [a4 + 0xc0]\n 15363: a3 = u64 [a4 + 0xb8]\n 15367: a0 = u64 [a4 + 0xb0]\n 15371: a1 = u64 [a4 + 0xa8]\n 15375: u64 [s1 + 0xd0] = a0\n 15379: u64 [s1 + 0xc8] = a2\n 15383: a0 = a0 | a2\n 15386: u64 [s1 + 0xf8] = a1\n 15390: a1 = a1 | a3\n 15393: a1 = a1 | a0\n 15396: a1 = a1 >> 0x20\n 15399: u64 [s1 + 0xc0] = a3\n 15403: a0 = a0 | a3\n 15406: a0 = a0 << 0x20\n 15409: a0 = a0 | a1\n 15412: jump @472 if a0 == 0\n      : @471 (gas: 1)\n 15415: jump @201\n      : @472 (gas: 15)\n 15418: a0 = s1 + 0x7ff\n 15422: a0 = a0 + 0xb9\n 15426: a1 = u64 [s1 + 0x50]\n 15429: a3 = a0 + 0x400\n 15433: u64 [a3 + 0x88] = a1\n 15437: a1 = u64 [s1 + 0x58]\n 15440: u64 [a3 + 0x90] = a1\n 15444: a1 = u64 [s1 + 0x60]\n 15447: u64 [a3 + 0x98] = a1\n 15451: a1 = s1 + 0x7ff\n 15455: a1 = a1 + 0x541\n 15459: a2 = u64 [s1 + 0x68]\n 15462: u64 [a3 + 0xa0] = a2\n 15466: a0 = u64 [s1 + 0xf8]\n 15470: ra = 456, jump @4\n      : @473 [@dyn 228] (gas: 13)\n 15476: a0 = u64 [s1 + 0xc8]\n 15480: a2 = u64 [s1 + 0xc0]\n 15484: a2 = a2 | a0\n 15487: a0 = 0x100000000\n 15497: u64 [s1 + 0xc0] = a0\n 15501: a0 = 0xffffffe0\n 15511: a1 = u64 [s1 + 0xf8]\n 15515: a0 = a1 <u a0\n 15518: a1 = u64 [s1 + 0xd0]\n 15522: a0 = 0 if a1 != 0\n 15524: u64 [s1 + 0xc8] = a2\n 15528: a0 = 0 if a2 != 0\n 15530: jump @475 if a0 != 0\n      : @474 (gas: 1)\n 15533: jump @201\n      : @475 (gas: 16)\n 15536: a0 = u64 [s1 + 0xf8]\n 15540: i32 a0 = a0 + 0x20\n 15543: a2 = s1 + 0x7ff\n 15547: a2 = a2 + 0xb9\n 15551: a1 = u64 [s1 + 0x30]\n 15554: a4 = a2 + 0x400\n 15558: u64 [a4 + 0x68] = a1\n 15561: a1 = u64 [s1 + 0x38]\n 15564: u64 [a4 + 0x70] = a1\n 15567: a1 = u64 [s1 + 0x40]\n 15570: u64 [a4 + 0x78] = a1\n 15573: a1 = s1 + 0x7ff\n 15577: a1 = a1 + 0x521\n 15581: a3 = u64 [s1 + 0x48]\n 15584: u64 [a4 + 0x80] = a3\n 15588: ra = 458, jump @4\n      : @476 [@dyn 229] (gas: 9)\n 15594: a0 = u64 [s1 + 0xc0]\n 15598: a0 = a0 + 0xffffffffffffffc0\n 15601: a1 = u64 [s1 + 0xf8]\n 15605: a0 = a1 <u a0\n 15608: a1 = u64 [s1 + 0xd0]\n 15612: a0 = 0 if a1 != 0\n 15614: a1 = u64 [s1 + 0xc8]\n 15618: a0 = 0 if a1 != 0\n 15620: jump @478 if a0 != 0\n      : @477 (gas: 1)\n 15623: jump @201\n      : @478 (gas: 17)\n 15626: a0 = u64 [s1 + 0xf8]\n 15630: i32 a0 = a0 + 0x40\n 15633: a2 = s1 + 0x7ff\n 15637: a2 = a2 + 0xb9\n 15641: a4 = s1 + 0x100\n 15645: a1 = u64 [a4 + 0x20]\n 15648: a5 = a2 + 0x400\n 15652: u64 [a5 + 0x48] = a1\n 15655: a1 = u64 [a4 + 0x28]\n 15658: u64 [a5 + 0x50] = a1\n 15661: a1 = u64 [a4 + 0x30]\n 15664: u64 [a5 + 0x58] = a1\n 15667: a1 = s1 + 0x7ff\n 15671: a1 = a1 + 0x501\n 15675: a3 = u64 [a4 + 0x38]\n 15678: u64 [a5 + 0x60] = a3\n 15681: ra = 460, jump @4\n      : @479 [@dyn 230] (gas: 8)\n 15687: a0 = 0xffffffa0\n 15697: a1 = u64 [s1 + 0xf8]\n 15701: a0 = a1 <u a0\n 15704: a1 = u64 [s1 + 0xd0]\n 15708: a0 = 0 if a1 != 0\n 15710: a1 = u64 [s1 + 0xc8]\n 15714: a0 = 0 if a1 != 0\n 15716: jump @481 if a0 != 0\n      : @480 (gas: 1)\n 15719: jump @201\n      : @481 (gas: 17)\n 15722: a0 = u64 [s1 + 0xf8]\n 15726: i32 a0 = a0 + 0x60\n 15729: a3 = s1 + 0x7ff\n 15733: a3 = a3 + 0xb9\n 15737: a4 = s1 + 0x100\n 15741: a1 = u64 [a4]\n 15743: a5 = a3 + 0x400\n 15747: u64 [a5 + 0x28] = a1\n 15750: a1 = u64 [a4 + 0x8]\n 15753: u64 [a5 + 0x30] = a1\n 15756: a1 = u64 [a4 + 0x10]\n 15759: u64 [a5 + 0x38] = a1\n 15762: a1 = s1 + 0x7ff\n 15766: a1 = a1 + 0x4e1\n 15770: a2 = u64 [a4 + 0x18]\n 15773: u64 [a5 + 0x40] = a2\n 15776: ra = 462, jump @4\n      : @482 [@dyn 231] (gas: 6)\n 15782: a0 = u64 [s1 + 0x78]\n 15785: ra = 0x1d0\n 15789: ecalli 5 // 'caller'\n 15791: a2 = u64 [s1 + 0xd8]\n 15795: t0 = 0x1d2\n 15799: jump @677\n      : @483 [@dyn 232] (gas: 2)\n 15802: a2 = u64 [s1 + 0xd8]\n 15806: t0 = 466, jump @677\n      : @484 [@dyn 233] (gas: 69)\n 15812: t0 = a1 | a0\n 15815: a3 = a3 >> 0x20\n 15818: a2 = reverse a2\n 15820: a1 = a2 << 0x20\n 15823: a1 = a1 | a3\n 15826: a2 = a2 >> 0x20\n 15829: a3 = u64 [s1 + 0xe0]\n 15833: a0 = s1 + 0x7ff\n 15837: a0 = a0 + 0xb9\n 15841: u64 [a0 + 0x3d8] = a3\n 15845: a3 = u64 [0x20040]\n 15850: u64 [a0 + 992] = 0\n 15854: a4 = u64 [s1 + 0xe8]\n 15858: u64 [a0 + 0x3d0] = a4\n 15862: a4 = u64 [s1 + 0xf0]\n 15866: u64 [a0 + 0x3c8] = a4\n 15870: u64 [a0 + 0x420] = a3\n 15874: a3 = u64 [0x20048]\n 15879: a4 = u64 [0x20050]\n 15884: a5 = u64 [0x20058]\n 15889: u64 [a0 + 1024] = 0\n 15893: u64 [a0 + 0x418] = a3\n 15897: u64 [a0 + 0x410] = a4\n 15901: u64 [a0 + 0x408] = a5\n 15905: u64 [a0 + 0x3f8] = a2\n 15909: u64 [a0 + 0x3f0] = a1\n 15913: a1 = 0x80\n 15917: a2 = s1 + 0x7ff\n 15921: a2 = a2 + 0x4c1\n 15925: a3 = s1 + 0x7ff\n 15929: a3 = a3 + 0x4a1\n 15933: a4 = s1 + 0x7ff\n 15937: a4 = a4 + 0x481\n 15941: u64 [a0 + 0x3e8] = t0\n 15945: a0 = u64 [s1 + 0xf8]\n 15949: ra = 0x1d4\n 15953: sp = sp + 0xffffffffffffff20\n 15957: u64 [sp + 0xd8] = ra\n 15961: u64 [sp + 0xd0] = s0\n 15965: u64 [sp + 0xc8] = s1\n 15969: s0 = sp + 0xe0\n 15973: sp = sp & 0xffffffffffffffe0\n 15976: a5 = u64 [a4]\n 15978: u64 [sp + 0x40] = a5\n 15981: a5 = u64 [a4 + 0x8]\n 15984: u64 [sp + 0x48] = a5\n 15987: a5 = u64 [a4 + 0x10]\n 15990: u64 [sp + 0x50] = a5\n 15993: a4 = u64 [a4 + 0x18]\n 15996: u64 [sp + 0x58] = a4\n 15999: t0 = 0xa\n 16002: a4 = u64 [a3]\n 16004: u64 [sp + 0x18] = a4\n 16007: a4 = u64 [a3 + 0x8]\n 16010: u64 [sp + 0x20] = a4\n 16013: a4 = u64 [a3 + 0x10]\n 16016: u64 [sp + 0x28] = a4\n 16019: a3 = u64 [a3 + 0x18]\n 16022: u64 [sp + 0x30] = a3\n 16025: s1 = u64 [a2]\n 16027: a3 = u64 [a2 + 0x8]\n 16030: u64 [sp] = a3\n 16032: a3 = u64 [a2 + 0x10]\n 16035: u64 [sp + 0x8] = a3\n 16038: a2 = u64 [a2 + 0x18]\n 16041: u64 [sp + 0x10] = a2\n 16044: u64 [sp + 0x38] = a1\n 16047: ra = 0xc\n 16050: jump @12\n      : @485 [@dyn 234] (gas: 7)\n 16053: a1 = 0x200b0\n 16058: i32 a1 = a1 + 0\n 16060: a0 = 0\n 16062: a2 = 0\n 16064: ecalli 12 // 'seal_return'\n 16066: a1 = 0x200b0\n 16071: jump @500\n      : @486 (gas: 4)\n 16074: a1 = 0x200b0\n 16079: i32 a1 = a1 + 0\n 16081: a0 = 0x1\n 16084: jump @501\n      : @487 (gas: 4)\n 16087: a1 = 0x200b0\n 16092: i32 a1 = a1 + 0\n 16094: a0 = 0x1\n 16097: jump @501\n      : @488 (gas: 4)\n 16100: a1 = 0x200b0\n 16105: i32 a1 = a1 + 0\n 16107: a0 = 0x1\n 16110: jump @501\n      : @489 (gas: 4)\n 16113: a1 = 0x200b0\n 16118: i32 a1 = a1 + 0\n 16120: a0 = 0x1\n 16123: jump @501\n      : @490 (gas: 4)\n 16126: a1 = 0x200b0\n 16131: i32 a1 = a1 + 0\n 16133: a0 = 0x1\n 16136: jump @501\n      : @491 (gas: 4)\n 16139: a1 = 0x200b0\n 16144: i32 a1 = a1 + 0\n 16146: a0 = 0x1\n 16149: jump @501\n      : @492 (gas: 4)\n 16152: a1 = 0x200b0\n 16157: i32 a1 = a1 + 0\n 16159: a0 = 0x1\n 16162: jump @501\n      : @493 (gas: 4)\n 16165: a1 = 0x200b0\n 16170: i32 a1 = a1 + 0\n 16172: a0 = 0x1\n 16175: jump @501\n      : @494 (gas: 4)\n 16178: a1 = 0x200b0\n 16183: i32 a1 = a1 + 0\n 16185: a0 = 0x1\n 16188: jump @501\n      : @495 (gas: 2)\n 16190: a2 = s1 + 0x18d8\n 16194: jump @499 if a0 != 151187884\n      : @496 (gas: 8)\n 16201: u64 [a2 + 512] = 0\n 16205: u64 [a2 + 504] = 0\n 16209: u64 [a2 + 496] = 0\n 16213: u64 [a2 + 488] = 0\n 16217: a0 = s1 + 0x2000\n 16221: i32 a0 = a0 + 0xfffffffffffffac0\n 16225: ecalli 15 // 'value_transferred'\n 16227: fallthrough\n      : @497 (gas: 10)\n 16228: a3 = s1 + 0x18d8\n 16232: a4 = a3 + 0x100\n 16236: a0 = u64 [a4 + 0xf8]\n 16240: a1 = u64 [a3 + 0x200]\n 16244: a2 = u64 [a4 + 0xf0]\n 16248: a3 = u64 [a4 + 0xe8]\n 16252: a1 = a1 | a2\n 16255: a0 = a0 | a3\n 16258: a0 = a0 | a1\n 16261: jump @509 if a0 == 0\n      : @498 (gas: 4)\n 16265: a1 = 0x200b0\n 16270: i32 a1 = a1 + 0\n 16272: a0 = 0x1\n 16275: jump @501\n      : @499 (gas: 4)\n 16277: a1 = 0x200b0\n 16282: i32 a1 = a1 + 0\n 16284: a0 = 0x1\n 16287: jump @501\n      : @500 (gas: 6)\n 16289: i32 a1 = a1 + 0\n 16291: a0 = 0x1\n 16294: a2 = 0\n 16296: ecalli 12 // 'seal_return'\n 16298: a1 = 0x200b0\n 16303: jump @500\n      : @501 (gas: 4)\n 16305: a2 = 0\n 16307: ecalli 12 // 'seal_return'\n 16309: a1 = 0x200b0\n 16314: jump @500\n      : @502 (gas: 2)\n 16316: a1 = 0x200b0\n 16321: jump @500\n      : @503 (gas: 2)\n 16323: a1 = 0x200b0\n 16328: jump @500\n      : @504 (gas: 2)\n 16330: a1 = 0x200b0\n 16335: jump @500\n      : @505 (gas: 2)\n 16337: a1 = 0x200b0\n 16342: jump @500\n      : @506 (gas: 14)\n 16344: a4 = s1 + 0x100\n 16348: a1 = u64 [a4 + 0x28]\n 16351: a1 = a1 << 0x20\n 16354: a2 = a1 >> 0x20\n 16357: u64 [a3 + 352] = 0\n 16361: a1 = u64 [a4 + 0x30]\n 16364: a5 = a3 + 0x100\n 16368: u64 [a5 + 0x48] = a1\n 16371: a1 = u64 [a4 + 0x38]\n 16374: u64 [a5 + 0x50] = a1\n 16377: a1 = s1 + 0x1a20\n 16381: u64 [a5 + 0x58] = a2\n 16384: u64 [s1 + 0x138] = a0\n 16388: ra = 470, jump @4\n      : @507 [@dyn 235] (gas: 3)\n 16394: a1 = 0x20\n 16397: a0 = u64 [s1 + 0x138]\n 16401: ra = 472, jump @12\n      : @508 [@dyn 236] (gas: 5)\n 16407: i32 a1 = a0 + 0\n 16409: a2 = 0x20\n 16412: a0 = 0\n 16414: ecalli 12 // 'seal_return'\n 16416: fallthrough\n      : @509 (gas: 3)\n 16417: a0 = u64 [s1 + 0x138]\n 16421: a0 = i32 [a0]\n 16423: jump @513 if a0 >u 3\n      : @510 (gas: 2)\n 16427: a1 = 0x200b0\n 16432: jump @500\n      : @511 (gas: 7)\n 16435: a1 = 0x200b0\n 16440: i32 a1 = a1 + 0\n 16442: a0 = 0x1\n 16445: ecalli 12 // 'seal_return'\n 16447: a0 = s1 + 0x180\n 16451: ra = 0x1da\n 16455: jump @560\n      : @512 (gas: 6)\n 16458: i32 a1 = a1 + 0\n 16460: a0 = 0x1\n 16463: ecalli 12 // 'seal_return'\n 16465: a0 = s1 + 0x180\n 16469: ra = 0x1da\n 16473: jump @560\n      : @513 (gas: 2)\n 16476: a0 = s1 + 0x180\n 16480: ra = 474, jump @560\n      : @514 [@dyn 237] (gas: 16)\n 16486: a0 = u64 [s1 + 0x1a0]\n 16490: u64 [s1 + 0x138] = a0\n 16494: a0 = u64 [s1 + 0x1a8]\n 16498: u64 [s1 + 0x130] = a0\n 16502: a0 = u64 [s1 + 0x188]\n 16506: a1 = u64 [s1 + 0x180]\n 16510: a2 = 0xffffffffffff\n 16520: u64 [s1 + 0x128] = a2\n 16524: a0 = a0 & a2\n 16527: u64 [s1 + 376] = 0\n 16531: u64 [s1 + 0x168] = a0\n 16535: u64 [s1 + 0x160] = a1\n 16539: a0 = 0x80\n 16543: a1 = s1 + 0x160\n 16547: u64 [s1 + 368] = 0\n 16551: ra = 476, jump @4\n      : @515 [@dyn 238] (gas: 12)\n 16557: a2 = s1 + 0x100\n 16561: a0 = u64 [a2 + 0x30]\n 16564: a1 = u64 [a2 + 0x28]\n 16567: a0 = a0 & a1\n 16570: u64 [s1 + 344] = 0\n 16574: u64 [a2 + 0x48] = a0\n 16577: a0 = u64 [a2 + 0x38]\n 16580: u64 [a2 + 0x40] = a0\n 16583: a0 = 0xa0\n 16587: a1 = s1 + 0x140\n 16591: u64 [s1 + 336] = 0\n 16595: ra = 478, jump @4\n      : @516 [@dyn 239] (gas: 2)\n 16601: a1 = i32 [0x200a4]\n 16606: jump @518 if a1 >u 191\n      : @517 (gas: 2)\n 16611: u32 [0x200a4] = 0xc0\n 16618: fallthrough\n      : @518 (gas: 6)\n 16619: a0 = 0x200b0\n 16624: i32 a1 = a0 + 0x80\n 16628: a2 = 0x40\n 16631: a0 = 0\n 16633: ecalli 12 // 'seal_return'\n 16635: jump @509\n      : @519 (gas: 2)\n 16638: a1 = 0x200b0\n 16643: jump @512\n      : @520 (gas: 8)\n 16646: u64 [s1 + 688] = 0\n 16650: u64 [s1 + 680] = 0\n 16654: u64 [s1 + 672] = 0\n 16658: a0 = 0x4e487b7100000000\n 16668: a1 = s1 + 0x2a0\n 16672: u64 [s1 + 0x2b8] = a0\n 16676: a0 = 0\n 16678: ra = 480, jump @4\n      : @521 [@dyn 240] (gas: 7)\n 16684: u64 [s1 + 664] = 0\n 16688: u64 [s1 + 656] = 0\n 16692: u64 [s1 + 640] = 0x11\n 16697: a0 = 0x4\n 16700: a1 = s1 + 0x280\n 16704: u64 [s1 + 648] = 0\n 16708: ra = 482, jump @4\n      : @522 [@dyn 241] (gas: 2)\n 16714: a1 = i32 [0x200a4]\n 16719: jump @524 if a1 >u 63\n      : @523 (gas: 3)\n 16723: u32 [0x200a4] = 0x40\n 16729: a1 = 0x200b0\n 16734: jump @525\n      : @524 (gas: 2)\n 16736: a1 = 0x200b0\n 16741: fallthrough\n      : @525 (gas: 6)\n 16742: i32 a1 = a1 + 0\n 16744: a0 = 0x1\n 16747: a2 = 0x24\n 16750: ecalli 12 // 'seal_return'\n 16752: a1 = 0x200b0\n 16757: jump @512\n      : @526 (gas: 2)\n 16760: a1 = 0x200b0\n 16765: jump @512\n      : @527 (gas: 2)\n 16768: a1 = 0x200b0\n 16773: jump @512\n      : @528 (gas: 6)\n 16776: a0 = s1 + 0x7ff\n 16780: a0 = a0 + 0xb9\n 16784: u64 [a0 + 1624] = 0\n 16788: u64 [a0 + 1616] = 0\n 16792: u64 [a0 + 1608] = 0\n 16796: t0 = 484, jump @671\n      : @529 [@dyn 242] (gas: 4)\n 16802: a1 = a1 + 0x701\n 16806: u64 [a2 + 0x660] = a0\n 16810: a0 = 0\n 16812: ra = 486, jump @4\n      : @530 [@dyn 243] (gas: 11)\n 16818: a1 = s1 + 0x7ff\n 16822: a1 = a1 + 0xb9\n 16826: u64 [a1 + 1600] = 0\n 16830: u64 [a1 + 1592] = 0\n 16834: u64 [a1 + 1576] = 0x11\n 16839: a2 = a1\n 16841: a0 = 0x4\n 16844: a1 = s1 + 0x7ff\n 16848: a1 = a1 + 0x6e1\n 16852: u64 [a2 + 1584] = 0\n 16856: ra = 488, jump @4\n      : @531 [@dyn 244] (gas: 2)\n 16862: a1 = i32 [0x200a4]\n 16867: jump @533 if a1 >u 63\n      : @532 (gas: 3)\n 16871: u32 [0x200a4] = 0x40\n 16877: a1 = 0x200b0\n 16882: jump @525\n      : @533 (gas: 2)\n 16885: a1 = 0x200b0\n 16890: jump @525\n      : @534 (gas: 6)\n 16893: a0 = s1 + 0x7ff\n 16897: a0 = a0 + 0xb9\n 16901: u64 [a0 + 1560] = 0\n 16905: u64 [a0 + 1552] = 0\n 16909: u64 [a0 + 1544] = 0\n 16913: t0 = 490, jump @671\n      : @535 [@dyn 245] (gas: 4)\n 16919: a1 = a1 + 0x6c1\n 16923: u64 [a2 + 0x620] = a0\n 16927: a0 = 0\n 16929: ra = 492, jump @4\n      : @536 [@dyn 246] (gas: 11)\n 16935: a1 = s1 + 0x7ff\n 16939: a1 = a1 + 0xb9\n 16943: u64 [a1 + 1536] = 0\n 16947: u64 [a1 + 1528] = 0\n 16951: u64 [a1 + 1512] = 0x11\n 16956: a2 = a1\n 16958: a0 = 0x4\n 16961: a1 = s1 + 0x7ff\n 16965: a1 = a1 + 0x6a1\n 16969: u64 [a2 + 1520] = 0\n 16973: ra = 494, jump @4\n      : @537 [@dyn 247] (gas: 2)\n 16979: a1 = i32 [0x200a4]\n 16984: jump @539 if a1 >u 63\n      : @538 (gas: 3)\n 16988: u32 [0x200a4] = 0x40\n 16994: a1 = 0x200b0\n 16999: jump @525\n      : @539 (gas: 2)\n 17002: a1 = 0x200b0\n 17007: jump @525\n      : @540 (gas: 6)\n 17010: a0 = s1 + 0x7ff\n 17014: a0 = a0 + 0xb9\n 17018: u64 [a0 + 1304] = 0\n 17022: u64 [a0 + 1296] = 0\n 17026: u64 [a0 + 1288] = 0\n 17030: t0 = 496, jump @671\n      : @541 [@dyn 248] (gas: 4)\n 17036: a1 = a1 + 0x5c1\n 17040: u64 [a2 + 0x520] = a0\n 17044: a0 = 0\n 17046: ra = 498, jump @4\n      : @542 [@dyn 249] (gas: 11)\n 17052: a1 = s1 + 0x7ff\n 17056: a1 = a1 + 0xb9\n 17060: u64 [a1 + 1280] = 0\n 17064: u64 [a1 + 1272] = 0\n 17068: u64 [a1 + 1256] = 0x11\n 17073: a2 = a1\n 17075: a0 = 0x4\n 17078: a1 = s1 + 0x7ff\n 17082: a1 = a1 + 0x5a1\n 17086: u64 [a2 + 1264] = 0\n 17090: ra = 500, jump @4\n      : @543 [@dyn 250] (gas: 2)\n 17096: a1 = i32 [0x200a4]\n 17101: jump @545 if a1 >u 63\n      : @544 (gas: 3)\n 17105: u32 [0x200a4] = 0x40\n 17111: a1 = 0x200b0\n 17116: jump @525\n      : @545 (gas: 2)\n 17119: a1 = 0x200b0\n 17124: jump @525\n      : @546 (gas: 18)\n 17127: sp = sp + 0xffffffffffffffc0\n 17130: u64 [sp + 0x38] = ra\n 17133: u64 [sp + 0x30] = s0\n 17136: u64 [sp + 0x28] = s1\n 17139: s0 = sp + 0x40\n 17142: sp = sp & 0xfffffffffffffff0\n 17145: a2 = u64 [a1 + 0x10]\n 17148: a3 = u64 [a1 + 0x18]\n 17151: a4 = u64 [a1 + 0x8]\n 17154: a1 = u64 [a1]\n 17156: a3 = a3 | a4\n 17159: a4 = a1 | a2\n 17162: a4 = a4 | a3\n 17165: a4 = a4 >> 0x20\n 17168: a2 = a2 | a3\n 17171: a2 = a2 << 0x20\n 17174: a2 = a2 | a4\n 17177: jump @552 if a2 != 0\n      : @547 (gas: 3)\n 17180: s1 = a0\n 17182: a0 = sp\n 17184: ra = 502, jump @2\n      : @548 [@dyn 251] (gas: 1)\n 17190: t0 = 504, jump @667\n      : @549 [@dyn 252] (gas: 1)\n 17196: jump @553 if a3 == 0\n      : @550 (gas: 1)\n 17199: t0 = 506, jump @673\n      : @551 [@dyn 253] (gas: 1)\n 17205: ret\n      : @552 (gas: 1)\n 17207: trap\n      : @553 (gas: 7)\n 17208: a1 = 0x200b0\n 17213: i32 a1 = a1 + 0\n 17215: a0 = 0x1\n 17218: a2 = 0\n 17220: ra = 0x1fc\n 17224: ecalli 12 // 'seal_return'\n 17226: fallthrough\n      : @554 [@dyn 254] (gas: 13)\n 17227: sp = sp + 0xffffffffffffffc0\n 17230: u64 [sp + 0x38] = ra\n 17233: u64 [sp + 0x30] = s0\n 17236: u64 [sp + 0x28] = s1\n 17239: s0 = sp + 0x40\n 17242: sp = sp & 0xffffffffffffffe0\n 17245: s1 = a0\n 17247: i32 a0 = sp + 0\n 17249: a1 = 0x4\n 17252: ra = 0x1fe\n 17256: ecalli 3 // 'call_data_load'\n 17258: t0 = 0x200\n 17262: jump @667\n      : @555 [@dyn 255] (gas: 1)\n 17265: t0 = 512, jump @667\n      : @556 [@dyn 256] (gas: 1)\n 17271: jump @559 if a3 == 0\n      : @557 (gas: 1)\n 17274: t0 = 514, jump @673\n      : @558 [@dyn 257] (gas: 1)\n 17280: ret\n      : @559 (gas: 7)\n 17282: a1 = 0x200b0\n 17287: i32 a1 = a1 + 0\n 17289: a0 = 0x1\n 17292: a2 = 0\n 17294: ra = 0x204\n 17298: ecalli 12 // 'seal_return'\n 17300: fallthrough\n      : @560 [@dyn 258] (gas: 14)\n 17301: sp = sp + 0xffffffffffffffa0\n 17304: u64 [sp + 0x58] = ra\n 17307: u64 [sp + 0x50] = s0\n 17310: u64 [sp + 0x48] = s1\n 17313: s0 = sp + 0x60\n 17316: sp = sp & 0xffffffffffffffe0\n 17319: s1 = a0\n 17321: u64 [sp + 56] = 0\n 17324: u64 [sp + 48] = 0\n 17327: u64 [sp + 40] = 0\n 17330: u64 [sp + 32] = 0x2\n 17334: a0 = sp\n 17336: a1 = sp + 0x20\n 17339: ra = 518, jump @6\n      : @561 [@dyn 259] (gas: 23)\n 17345: t0 = u64 [sp]\n 17347: a1 = u64 [sp + 0x18]\n 17350: a2 = u64 [sp + 0x8]\n 17353: a3 = u64 [sp + 0x10]\n 17356: a4 = 0xffffffffffff\n 17366: a5 = a2 & a4\n 17369: a0 = a3 << 0x10\n 17372: a2 = a2 >> 0x30\n 17375: a0 = a0 | a2\n 17378: a3 = a3 >> 0x30\n 17381: a1 = a1 << 0x10\n 17384: a1 = a1 | a3\n 17387: a1 = a1 & a4\n 17390: a2 = 0\n 17392: u64 [s1 + 48] = 0\n 17395: u64 [s1 + 56] = 0\n 17398: u64 [s1 + 16] = 0\n 17401: u64 [s1 + 24] = 0\n 17404: u64 [s1] = t0\n 17406: u64 [s1 + 0x8] = a5\n 17409: u64 [s1 + 0x20] = a0\n 17412: u64 [s1 + 0x28] = a1\n 17415: t0 = 520, jump @676\n      : @562 [@dyn 260] (gas: 1)\n 17421: ret\n      : @563 (gas: 46)\n 17423: sp = sp + 0xffffffffffffff70\n 17427: u64 [sp + 0x88] = ra\n 17431: u64 [sp + 0x80] = s0\n 17435: u64 [sp + 0x78] = s1\n 17438: s0 = sp + 0x90\n 17442: sp = sp & 0xfffffffffffffff0\n 17445: t0 = a0\n 17447: a2 = u64 [a1]\n 17449: t2 = u64 [a0 + 0x8]\n 17452: a5 = u64 [a1 + 0x8]\n 17455: t1 = u64 [a0]\n 17457: a3 = a2 + 0x1f\n 17460: ra = a3 <u a2\n 17463: a2 = a5 + ra\n 17466: a3 = a3 & 0xffffffffffffffe0\n 17469: u64 [sp + 0x8] = t1\n 17472: t1 = t1 + a3\n 17475: a4 = t1 <u a3\n 17478: a3 = a2 + t2\n 17481: a3 = a3 + a4\n 17484: s1 = a3 ^ a2\n 17487: a0 = a3 <u a2\n 17490: a0 = a4 if s1 == 0\n 17493: a4 = u64 [t0 + 0x18]\n 17496: a5 = a2 <u a5\n 17499: s1 = u64 [a1 + 0x10]\n 17502: t0 = u64 [t0 + 0x10]\n 17505: a1 = u64 [a1 + 0x18]\n 17508: a5 = ra if ra == 0\n 17511: a5 = a5 + s1\n 17514: s1 = a5 <u s1\n 17517: a2 = a5 + t0\n 17520: a0 = a0 + a2\n 17523: a5 = a2 <u a5\n 17526: a2 = a0 <u a2\n 17529: a1 = a1 + a4\n 17532: a1 = a1 + s1\n 17535: a1 = a1 + a5\n 17538: a5 = a1 + a2\n 17541: a1 = a5 >u 0\n 17543: a2 = a0 >u 0\n 17545: a2 = a1 if a5 != 0\n 17548: a1 = a0 | a5\n 17551: s1 = a3 >u 0\n 17553: s1 = a2 if a1 != 0\n 17556: jump @567 if s1 != 0\n      : @564 (gas: 13)\n 17559: a1 = u64 [sp + 0x8]\n 17562: a1 = t1 <u a1\n 17565: a2 = a3 ^ t2\n 17568: s1 = a3 <u t2\n 17571: s1 = a1 if a2 == 0\n 17574: a1 = a0 <u t0\n 17577: a2 = a5 ^ a4\n 17580: a4 = a5 <u a4\n 17583: a4 = a1 if a2 == 0\n 17586: a1 = a0 ^ t0\n 17589: a1 = a1 | a2\n 17592: a4 = s1 if a1 == 0\n 17595: jump @567 if a4 != 0\n      : @565 (gas: 7)\n 17598: u64 [sp + 0x50] = t1\n 17601: u64 [sp + 0x58] = a3\n 17604: u64 [sp + 0x60] = a0\n 17607: a0 = 0x40\n 17610: a1 = sp + 0x50\n 17613: u64 [sp + 0x68] = a5\n 17616: ra = 522, jump @4\n      : @566 [@dyn 261] (gas: 6)\n 17622: sp = s0 + 0xffffffffffffff70\n 17626: ra = u64 [sp + 0x88]\n 17630: s0 = u64 [sp + 0x80]\n 17634: s1 = u64 [sp + 0x78]\n 17637: sp = sp + 0x90\n 17641: ret\n      : @567 (gas: 1)\n 17643: t0 = 524, jump @675\n      : @568 [@dyn 262] (gas: 1)\n 17649: ra = 526, jump @4\n      : @569 [@dyn 263] (gas: 7)\n 17655: u64 [sp + 40] = 0\n 17658: u64 [sp + 32] = 0\n 17661: u64 [sp + 16] = 0x41\n 17665: a0 = 0x4\n 17668: a1 = sp + 0x10\n 17671: u64 [sp + 24] = 0\n 17674: ra = 528, jump @4\n      : @570 [@dyn 264] (gas: 2)\n 17680: a1 = i32 [0x200a4]\n 17685: jump @572 if a1 >u 63\n      : @571 (gas: 2)\n 17689: u32 [0x200a4] = 0x40\n 17695: fallthrough\n      : @572 (gas: 7)\n 17696: a1 = 0x200b0\n 17701: i32 a1 = a1 + 0\n 17703: a0 = 0x1\n 17706: a2 = 0x24\n 17709: ra = 0x212\n 17713: ecalli 12 // 'seal_return'\n 17715: fallthrough\n      : @573 [@dyn 265] (gas: 30)\n 17716: sp = sp + 0xffffffffffffff80\n 17719: u64 [sp + 0x78] = ra\n 17722: u64 [sp + 0x70] = s0\n 17725: u64 [sp + 0x68] = s1\n 17728: s0 = sp + 0x80\n 17732: sp = sp & 0xfffffffffffffff0\n 17735: a4 = u64 [a2]\n 17737: a3 = u64 [a1]\n 17739: s1 = u64 [a2 + 0x8]\n 17742: t1 = u64 [a1 + 0x8]\n 17745: t2 = u64 [a2 + 0x10]\n 17748: a5 = u64 [a1 + 0x10]\n 17751: a2 = u64 [a2 + 0x18]\n 17754: a1 = u64 [a1 + 0x18]\n 17757: t0 = t1 ^ s1\n 17760: u64 [sp + 0x8] = s1\n 17763: s1 = t1 <u s1\n 17766: u64 [sp + 0x18] = a4\n 17769: u64 [sp + 0x10] = a3\n 17772: a3 = a3 <u a4\n 17775: u64 [sp] = a3\n 17777: s1 = a3 if t0 == 0\n 17780: a3 = a1 ^ a2\n 17783: ra = a1 <u a2\n 17786: t0 = a5 <u t2\n 17789: ra = t0 if a3 == 0\n 17792: a4 = a5 ^ t2\n 17795: a3 = a3 | a4\n 17798: ra = s1 if a3 == 0\n 17801: jump @575 if ra != 0\n      : @574 (gas: 23)\n 17804: a3 = a5 - t2\n 17807: a1 = a1 - a2\n 17810: a1 = a1 - t0\n 17813: a2 = a3 <u s1\n 17816: a1 = a1 - a2\n 17819: a3 = a3 - s1\n 17822: a2 = u64 [sp + 0x8]\n 17825: a2 = t1 - a2\n 17828: a4 = u64 [sp]\n 17830: a2 = a2 - a4\n 17833: a4 = u64 [sp + 0x18]\n 17836: a5 = u64 [sp + 0x10]\n 17839: a4 = a5 - a4\n 17842: u64 [a0] = a4\n 17844: u64 [a0 + 0x8] = a2\n 17847: u64 [a0 + 0x10] = a3\n 17850: u64 [a0 + 0x18] = a1\n 17853: sp = s0 + 0xffffffffffffff80\n 17856: ra = u64 [sp + 0x78]\n 17859: s0 = u64 [sp + 0x70]\n 17862: s1 = u64 [sp + 0x68]\n 17865: sp = sp + 0x80\n 17869: ret\n      : @575 (gas: 8)\n 17871: u64 [sp + 80] = 0\n 17874: u64 [sp + 72] = 0\n 17877: u64 [sp + 64] = 0\n 17880: a0 = 0x4e487b7100000000\n 17890: a1 = sp + 0x40\n 17893: u64 [sp + 0x58] = a0\n 17896: a0 = 0\n 17898: ra = 532, jump @4\n      : @576 [@dyn 266] (gas: 7)\n 17904: u64 [sp + 56] = 0\n 17907: u64 [sp + 48] = 0\n 17910: u64 [sp + 32] = 0x11\n 17914: a0 = 0x4\n 17917: a1 = sp + 0x20\n 17920: u64 [sp + 40] = 0\n 17923: ra = 534, jump @4\n      : @577 [@dyn 267] (gas: 2)\n 17929: a1 = i32 [0x200a4]\n 17934: jump @579 if a1 >u 63\n      : @578 (gas: 2)\n 17938: u32 [0x200a4] = 0x40\n 17944: fallthrough\n      : @579 (gas: 7)\n 17945: a1 = 0x200b0\n 17950: i32 a1 = a1 + 0\n 17952: a0 = 0x1\n 17955: a2 = 0x24\n 17958: ra = 0x218\n 17962: ecalli 12 // 'seal_return'\n 17964: fallthrough\n      : @580 [@dyn 268] (gas: 70)\n 17965: sp = sp + 0xffffffffffffff40\n 17969: u64 [sp + 0xb8] = ra\n 17973: u64 [sp + 0xb0] = s0\n 17977: u64 [sp + 0xa8] = s1\n 17981: s0 = sp + 0xc0\n 17985: sp = sp & 0xfffffffffffffff0\n 17988: ra = u64 [a2]\n 17990: t0 = u64 [a1]\n 17992: a3 = u64 [a1 + 0x8]\n 17995: u64 [sp + 0x58] = a0\n 17998: a4 = u64 [a2 + 0x8]\n 18001: a0 = t0 mulhu ra\n 18004: s1 = a3 * ra\n 18007: a0 = a0 + s1\n 18010: s1 = a0 <u s1\n 18013: a5 = a3 mulhu ra\n 18016: a5 = a5 + s1\n 18019: s1 = t0 * a4\n 18022: a0 = a0 + s1\n 18025: u64 [sp + 0x50] = a0\n 18028: a0 = a0 <u s1\n 18031: s1 = t0 mulhu a4\n 18034: a0 = a0 + s1\n 18037: a0 = a0 + a5\n 18040: a5 = a0 <u a5\n 18043: s1 = a3 mulhu a4\n 18046: a5 = a5 + s1\n 18049: s1 = a3 * a4\n 18052: a0 = a0 + s1\n 18055: u64 [sp + 0x48] = a0\n 18058: s1 = a0 <u s1\n 18061: a5 = a5 + s1\n 18064: u64 [sp + 0x40] = a5\n 18067: t1 = u64 [a2 + 0x10]\n 18070: a2 = u64 [a2 + 0x18]\n 18073: t2 = u64 [a1 + 0x18]\n 18076: a0 = u64 [a1 + 0x10]\n 18079: a5 = a3 * t1\n 18082: u64 [sp + 0x20] = a2\n 18085: s1 = a2 * t0\n 18088: a1 = s1 + a5\n 18091: u64 [sp + 0x28] = a4\n 18094: s1 = a4 * a0\n 18097: a2 = t2 * ra\n 18100: a2 = a2 + s1\n 18103: s1 = t1 * t0\n 18106: a5 = a0 * ra\n 18109: s1 = s1 + a5\n 18112: u64 [sp + 0x30] = t1\n 18115: a4 = t1 mulhu t0\n 18118: u64 [sp + 0x10] = a4\n 18121: a4 = a4 + a1\n 18124: t1 = a0 mulhu ra\n 18127: a1 = t1 + a2\n 18130: a2 = s1 <u a5\n 18133: u64 [sp + 0x18] = a1\n 18136: u64 [sp + 0x8] = a4\n 18139: a5 = a1 + a4\n 18142: a2 = a2 + a5\n 18145: u64 [sp + 0x38] = t2\n 18148: a5 = a3 | t2\n 18151: a1 = t0 | a0\n 18154: a1 = a1 | a5\n 18157: a4 = u64 [sp + 0x40]\n 18160: a5 = u64 [sp + 0x48]\n 18163: s1 = s1 + a5\n 18166: t2 = s1 <u a5\n 18169: a2 = a2 + a4\n 18172: a2 = a2 + t2\n 18175: jump @582 if a1 == 0\n      : @581 (gas: 50)\n 18179: a1 = a2 ^ a4\n 18182: u64 [sp + 0x48] = a2\n 18185: a2 = u64 [sp + 0x48]\n 18188: a2 = a2 <u a4\n 18191: t2 = a2 if a1 != 0\n 18194: u64 [sp + 0x40] = s1\n 18197: a1 = u64 [sp + 0x10]\n 18200: a2 = u64 [sp + 0x8]\n 18203: s1 = a2 <u a1\n 18206: a2 = a3 >u 0\n 18208: a1 = u64 [sp + 0x20]\n 18211: a5 = a1 >u 0\n 18213: a2 = a2 & a5\n 18216: a5 = a1 mulhu t0\n 18219: a5 = a5 >u 0\n 18221: a2 = a2 | a5\n 18224: a4 = t1\n 18226: t1 = u64 [sp + 0x30]\n 18229: a3 = a3 mulhu t1\n 18232: a3 = a3 >u 0\n 18234: a2 = a2 | a3\n 18237: a2 = a2 | s1\n 18240: u64 [sp + 0x10] = a2\n 18243: a2 = u64 [sp + 0x18]\n 18246: a2 = a2 <u a4\n 18249: a4 = u64 [sp + 0x28]\n 18252: a3 = a4 >u 0\n 18254: s1 = u64 [sp + 0x38]\n 18257: a5 = s1 >u 0\n 18259: a3 = a3 & a5\n 18262: a5 = s1 mulhu ra\n 18265: a5 = a5 >u 0\n 18267: a3 = a3 | a5\n 18270: a5 = a4 mulhu a0\n 18273: a5 = a5 >u 0\n 18275: a3 = a3 | a5\n 18278: a2 = a2 | a3\n 18281: a3 = t1 | a1\n 18284: a5 = a0 | s1\n 18287: s1 = u64 [sp + 0x40]\n 18290: a3 = a3 >u 0\n 18292: a5 = a5 >u 0\n 18294: a3 = a3 & a5\n 18297: a2 = a2 | a3\n 18300: a1 = u64 [sp + 0x10]\n 18303: a1 = a1 | a2\n 18306: a2 = u64 [sp + 0x48]\n 18309: a0 = a1 | t2\n 18312: a0 = a0 & 0x1\n 18315: jump @583 if a0 != 0\n      : @582 (gas: 13)\n 18318: a0 = t0 * ra\n 18321: a1 = u64 [sp + 0x58]\n 18324: u64 [a1] = a0\n 18326: a0 = u64 [sp + 0x50]\n 18329: u64 [a1 + 0x8] = a0\n 18332: u64 [a1 + 0x10] = s1\n 18335: u64 [a1 + 0x18] = a2\n 18338: sp = s0 + 0xffffffffffffff40\n 18342: ra = u64 [sp + 0xb8]\n 18346: s0 = u64 [sp + 0xb0]\n 18350: s1 = u64 [sp + 0xa8]\n 18354: sp = sp + 0xc0\n 18358: ret\n      : @583 (gas: 8)\n 18360: u64 [sp + 144] = 0\n 18364: u64 [sp + 136] = 0\n 18368: u64 [sp + 128] = 0\n 18372: a0 = 0x4e487b7100000000\n 18382: a1 = sp + 0x80\n 18386: u64 [sp + 0x98] = a0\n 18390: a0 = 0\n 18392: ra = 538, jump @4\n      : @584 [@dyn 269] (gas: 7)\n 18398: u64 [sp + 120] = 0\n 18401: u64 [sp + 112] = 0\n 18404: u64 [sp + 96] = 0x11\n 18408: a0 = 0x4\n 18411: a1 = sp + 0x60\n 18414: u64 [sp + 104] = 0\n 18417: ra = 540, jump @4\n      : @585 [@dyn 270] (gas: 2)\n 18423: a1 = i32 [0x200a4]\n 18428: jump @587 if a1 >u 63\n      : @586 (gas: 2)\n 18432: u32 [0x200a4] = 0x40\n 18438: fallthrough\n      : @587 (gas: 7)\n 18439: a1 = 0x200b0\n 18444: i32 a1 = a1 + 0\n 18446: a0 = 0x1\n 18449: a2 = 0x24\n 18452: ra = 0x21e\n 18456: ecalli 12 // 'seal_return'\n 18458: fallthrough\n      : @588 [@dyn 271] (gas: 16)\n 18459: sp = sp + 0xfffffffffffffef0\n 18463: u64 [sp + 0x108] = ra\n 18467: u64 [sp + 0x100] = s0\n 18471: u64 [sp + 0xf8] = s1\n 18475: s0 = sp + 0x110\n 18479: sp = sp & 0xfffffffffffffff0\n 18482: t1 = u64 [a2 + 0x10]\n 18485: a5 = u64 [a2 + 0x18]\n 18488: s1 = u64 [a2 + 0x8]\n 18491: a2 = u64 [a2]\n 18493: a4 = s1 | a5\n 18496: a3 = a2 | t1\n 18499: a3 = a3 | a4\n 18502: u64 [sp] = a0\n 18504: u64 [sp + 0xa8] = a3\n 18508: jump @608 if a3 == 0\n      : @589 (gas: 73)\n 18512: a0 = u64 [a1 + 0x18]\n 18515: ra = u64 [a1 + 0x10]\n 18518: t0 = u64 [a1 + 0x8]\n 18521: t2 = u64 [a1]\n 18523: u64 [sp + 0x60] = t2\n 18526: a1 = clz t1\n 18528: a1 = a1 + 0x40\n 18531: a4 = clz a5\n 18533: a4 = a1 if a5 == 0\n 18536: u64 [sp + 0x30] = a2\n 18539: a1 = clz a2\n 18541: a2 = a1 + 0x40\n 18544: a1 = clz s1\n 18546: u64 [sp + 0x38] = s1\n 18549: a1 = a2 if s1 == 0\n 18552: a2 = a1 + 0x80\n 18556: u64 [sp + 0x40] = a5\n 18559: u64 [sp + 0x48] = t1\n 18562: a3 = t1 | a5\n 18565: a4 = a2 if a3 == 0\n 18568: a2 = a2 <u a1\n 18571: a2 = 0 if a3 != 0\n 18573: a1 = clz ra\n 18575: a1 = a1 + 0x40\n 18578: a5 = clz a0\n 18580: a5 = a1 if a0 == 0\n 18583: a1 = clz t2\n 18585: a1 = a1 + 0x40\n 18588: a3 = clz t0\n 18590: a3 = a1 if t0 == 0\n 18593: a1 = a3 + 0x80\n 18597: s1 = ra | a0\n 18600: a5 = a1 if s1 == 0\n 18603: a1 = a1 <u a3\n 18606: a1 = 0 if s1 != 0\n 18608: t1 = a2 ^ a1\n 18611: s1 = a2 <u a1\n 18614: a3 = a4 <u a5\n 18617: s1 = a3 if t1 == 0\n 18620: a2 = a2 - a1\n 18623: t2 = s1 <u 0x1\n 18626: t2 = t2 + 0xffffffffffffffff\n 18629: a3 = a2 - a3\n 18632: t1 = -s1\n 18634: a1 = a4 - a5\n 18637: a2 = t1 >u 0\n 18639: a4 = t2 >u 0\n 18641: a4 = a2 if t2 == 0\n 18644: u64 [sp + 0xa0] = a1\n 18648: a2 = a1 <u 0x100\n 18652: a2 = a2 ^ 0x1\n 18655: a5 = a3 >u 0\n 18657: a2 = a5 if a3 != 0\n 18660: a2 = a4 if s1 != 0\n 18663: s1 = u64 [sp + 0x60]\n 18666: a4 = s1 | ra\n 18669: a5 = t0 | a0\n 18672: a4 = a4 | a5\n 18675: a1 = u64 [sp + 0xa8]\n 18679: a5 = a1 <u 0x1\n 18682: a4 = a4 <u 0x1\n 18685: a4 = a4 | a5\n 18688: a2 = a2 | a4\n 18691: u64 [sp + 0x68] = a0\n 18694: a1 = a0\n 18696: a1 = 0 if a2 != 0\n 18698: a4 = ra\n 18700: a4 = 0 if a2 != 0\n 18702: u64 [sp + 0x58] = t0\n 18705: a5 = t0\n 18707: a5 = 0 if a2 != 0\n 18709: s1 = 0 if a2 != 0\n 18711: jump @606 if a2 != 0\n      : @590 (gas: 7)\n 18715: a0 = u64 [sp + 0xa0]\n 18719: a2 = a0 ^ 0xff\n 18723: t0 = a2 | t1\n 18726: a2 = a3 | t2\n 18729: a2 = t0 | a2\n 18732: a0 = u64 [sp]\n 18734: jump @607 if a2 == 0\n      : @591 (gas: 18)\n 18738: a2 = u64 [sp + 0xa0]\n 18742: a1 = a2 + 0x1\n 18745: u64 [sp + 0xa8] = a1\n 18749: u64 [sp + 0x50] = ra\n 18752: a0 = a1 <u 0x1\n 18755: a0 = a0 + a3\n 18758: u64 [sp + 0x80] = a0\n 18762: a0 = a0 | a1\n 18765: a0 = a0 <u 0x1\n 18768: a0 = a0 + t1\n 18771: u64 [sp + 0x70] = a0\n 18774: a0 = a0 <u t1\n 18777: a0 = a0 + t2\n 18780: u64 [sp + 0x78] = a0\n 18783: t0 = 0x220\n 18787: s1 = 0xff - a2\n 18791: a2 = 0x80 - s1\n 18795: fallthrough\n      : @592 [@dyn 272] (gas: 4)\n 18796: u64 [sp + 0x28] = s1\n 18799: a0 = u64 [sp + 0x60]\n 18802: a1 = u64 [sp + 0x58]\n 18805: ra = 546, jump @679\n      : @593 [@dyn 273] (gas: 6)\n 18811: u64 [sp + 0x98] = a0\n 18815: u64 [sp + 0x90] = a1\n 18819: a0 = u64 [sp + 0x50]\n 18822: a1 = u64 [sp + 0x68]\n 18825: a2 = s1\n 18827: ra = 548, jump @684\n      : @594 [@dyn 274] (gas: 10)\n 18833: u64 [sp + 0x88] = a0\n 18837: a0 = u64 [sp + 0x90]\n 18841: a0 = a0 | a1\n 18844: u64 [sp + 0x90] = a0\n 18848: a1 = u64 [sp + 0xa0]\n 18852: a2 = 0x7f - a1\n 18855: a0 = u64 [sp + 0x60]\n 18858: s1 = u64 [sp + 0x58]\n 18861: a1 = s1\n 18863: ra = 550, jump @684\n      : @595 [@dyn 275] (gas: 18)\n 18869: a2 = u64 [sp + 0x28]\n 18872: a3 = a2 <u 0x80\n 18876: u64 [sp + 0xa0] = a3\n 18880: a4 = u64 [sp + 0x90]\n 18884: a1 = a4 if a3 != 0\n 18887: a4 = u64 [sp + 0x68]\n 18890: a1 = a4 if a2 == 0\n 18893: u64 [sp + 0x90] = a1\n 18897: a1 = u64 [sp + 0x98]\n 18901: a4 = u64 [sp + 0x88]\n 18905: a1 = a1 | a4\n 18908: a1 = a0 if a3 == 0\n 18911: a0 = u64 [sp + 0x50]\n 18914: a1 = a0 if a2 == 0\n 18917: u64 [sp + 0x98] = a1\n 18921: a0 = u64 [sp + 0x60]\n 18924: a1 = s1\n 18926: ra = 552, jump @684\n      : @596 [@dyn 276] (gas: 13)\n 18932: a5 = u64 [sp + 0x70]\n 18935: a2 = u64 [sp + 0x78]\n 18938: a3 = u64 [sp + 0x80]\n 18942: a3 = a3 | a2\n 18945: a2 = u64 [sp + 0xa8]\n 18949: a2 = a2 | a5\n 18952: a2 = a2 | a3\n 18955: a3 = u64 [sp + 0xa0]\n 18959: a1 = 0 if a3 == 0\n 18961: u64 [sp + 0x88] = a1\n 18965: a0 = 0 if a3 == 0\n 18967: u64 [sp + 0xa0] = a0\n 18971: jump @604 if a2 == 0\n      : @597 (gas: 5)\n 18975: s1 = u64 [sp + 0xa8]\n 18979: a2 = s1 + 0xffffffffffffff80\n 18982: a0 = u64 [sp + 0x50]\n 18985: a1 = u64 [sp + 0x68]\n 18988: ra = 554, jump @679\n      : @598 [@dyn 277] (gas: 6)\n 18994: u64 [sp + 0x28] = a0\n 18997: u64 [sp + 0x18] = a1\n 19000: a0 = u64 [sp + 0x60]\n 19003: a1 = u64 [sp + 0x58]\n 19006: a2 = s1\n 19008: ra = 556, jump @679\n      : @599 [@dyn 278] (gas: 6)\n 19014: u64 [sp + 0x10] = a0\n 19017: u64 [sp + 0x20] = a1\n 19020: a2 = 0x80 - s1\n 19024: a0 = u64 [sp + 0x50]\n 19027: a1 = u64 [sp + 0x68]\n 19030: ra = 558, jump @684\n      : @600 [@dyn 279] (gas: 20)\n 19036: a2 = u64 [sp + 0x20]\n 19039: a1 = a1 | a2\n 19042: a2 = s1 <u 0x80\n 19046: u64 [sp + 0x20] = a2\n 19049: a3 = u64 [sp + 0x18]\n 19052: a1 = a3 if a2 == 0\n 19055: a3 = u64 [sp + 0x58]\n 19058: a3 = a1 if s1 != 0\n 19061: u64 [sp + 0x58] = a3\n 19064: a1 = u64 [sp + 0x10]\n 19067: a0 = a0 | a1\n 19070: a1 = u64 [sp + 0x28]\n 19073: a0 = a1 if a2 == 0\n 19076: a1 = u64 [sp + 0x60]\n 19079: a1 = a0 if s1 != 0\n 19082: u64 [sp + 0x60] = a1\n 19085: a0 = u64 [sp + 0x50]\n 19088: a1 = u64 [sp + 0x68]\n 19091: a2 = s1\n 19093: ra = 560, jump @679\n      : @601 [@dyn 280] (gas: 24)\n 19099: t0 = u64 [sp + 0x58]\n 19102: t2 = 0\n 19104: a2 = u64 [sp + 0x20]\n 19107: a1 = 0 if a2 == 0\n 19109: a0 = 0 if a2 == 0\n 19111: u64 [sp + 0x68] = a0\n 19114: a3 = u64 [sp + 0x30]\n 19117: a0 = a3 <u 0x1\n 19120: a2 = u64 [sp + 0x38]\n 19123: a0 = a2 - a0\n 19126: u64 [sp + 0x20] = a0\n 19129: a0 = a3 | a2\n 19132: a0 = a0 <u 0x1\n 19135: a2 = u64 [sp + 0x48]\n 19138: a4 = a2 - a0\n 19141: u64 [sp + 0x18] = a4\n 19144: a0 = a2 <u a0\n 19147: a2 = u64 [sp + 0x40]\n 19150: a2 = a2 - a0\n 19153: u64 [sp + 0x10] = a2\n 19156: a3 = a3 + 0xffffffffffffffff\n 19159: u64 [sp + 0x8] = a3\n 19162: ra = u64 [sp + 0x60]\n 19165: fallthrough\n      : @602 (gas: 103)\n 19166: u64 [sp + 40] = 0\n 19169: a4 = ra >> 0x3f\n 19172: a3 = t0 << 0x1\n 19175: s1 = t0\n 19177: t0 = a3 | a4\n 19180: a4 = ra << 0x1\n 19183: ra = u64 [sp + 0x90]\n 19187: a2 = ra >> 0x3f\n 19190: a2 = a2 | a4\n 19193: u64 [sp + 0x60] = a2\n 19196: a0 = u64 [sp + 0x20]\n 19199: t1 = a0 ^ t0\n 19202: a4 = a0 <u t0\n 19205: a0 = u64 [sp + 0x8]\n 19208: a5 = t2\n 19210: t2 = a0 <u a2\n 19213: t2 = a4 if t1 != 0\n 19216: a1 = a1 << 0x1\n 19219: a0 = u64 [sp + 0x68]\n 19222: a2 = a0 >> 0x3f\n 19225: a1 = a1 | a2\n 19228: u64 [sp + 0x58] = a1\n 19231: a2 = s1 >> 0x3f\n 19234: a0 = a0 << 0x1\n 19237: t1 = a0 | a2\n 19240: a0 = ra << 0x1\n 19243: a1 = u64 [sp + 0x98]\n 19247: a2 = a1 >> 0x3f\n 19250: a0 = a0 | a2\n 19253: a2 = a1 << 0x1\n 19256: a1 = u64 [sp + 0x88]\n 19260: a4 = a1 >> 0x3f\n 19263: a2 = a2 | a4\n 19266: a4 = a1 << 0x1\n 19269: s1 = u64 [sp + 0xa0]\n 19273: ra = s1 >> 0x3f\n 19276: a4 = a4 | ra\n 19279: s1 = s1 << 0x1\n 19282: a5 = a5 | s1\n 19285: u64 [sp + 0xa0] = a5\n 19289: a4 = a4 | 0\n 19291: u64 [sp + 0x88] = a4\n 19295: a1 = a2 | 0\n 19297: u64 [sp + 0x98] = a1\n 19301: a0 = a0 | 0\n 19303: u64 [sp + 0x90] = a0\n 19307: a2 = u64 [sp + 0x18]\n 19310: a0 = a2 - t1\n 19313: a0 = a0 <u t2\n 19316: a2 = a2 <u t1\n 19319: a4 = u64 [sp + 0x10]\n 19322: a3 = u64 [sp + 0x58]\n 19325: a4 = a4 - a3\n 19328: a4 = a4 - a2\n 19331: a4 = a4 - a0\n 19334: a4 = a4 >>a 0x3f\n 19337: a0 = u64 [sp + 0x30]\n 19340: a1 = a4 & a0\n 19343: u64 [sp + 0x50] = a1\n 19346: a5 = u64 [sp + 0x38]\n 19349: a5 = a5 & a4\n 19352: a0 = t0 ^ a5\n 19355: s1 = t0 <u a5\n 19358: t2 = u64 [sp + 0x60]\n 19361: ra = t2 <u a1\n 19364: s1 = ra if a0 == 0\n 19367: a2 = u64 [sp + 0x48]\n 19370: a2 = a2 & a4\n 19373: a1 = t1 - a2\n 19376: a0 = a1 - s1\n 19379: u64 [sp + 0x68] = a0\n 19382: a0 = a1 <u s1\n 19385: a2 = t1 <u a2\n 19388: s1 = u64 [sp + 0x40]\n 19391: s1 = s1 & a4\n 19394: a1 = a3 - s1\n 19397: a1 = a1 - a2\n 19400: a1 = a1 - a0\n 19403: a3 = t0 - a5\n 19406: t0 = a3 - ra\n 19409: a0 = u64 [sp + 0x50]\n 19412: ra = t2 - a0\n 19415: a5 = u64 [sp + 0xa8]\n 19419: s1 = u64 [sp + 0x80]\n 19423: a0 = a5 | s1\n 19426: a0 = a0 <u 0x1\n 19429: a3 = u64 [sp + 0x70]\n 19432: a2 = a3 <u a0\n 19435: a0 = a3 - a0\n 19438: a3 = a5 <u 0x1\n 19441: s1 = s1 - a3\n 19444: a3 = u64 [sp + 0x78]\n 19447: a3 = a3 - a2\n 19450: a5 = a5 + 0xffffffffffffffff\n 19453: u64 [sp + 0x80] = s1\n 19457: u64 [sp + 0x78] = a3\n 19460: a2 = s1 | a3\n 19463: u64 [sp + 0xa8] = a5\n 19467: a3 = a5 | a0\n 19470: a2 = a2 | a3\n 19473: t2 = a4 & 0x1\n 19476: u64 [sp + 0x70] = a0\n 19479: jump @602 if a2 != 0\n      : @603 (gas: 1)\n 19483: jump @605\n      : @604 (gas: 3)\n 19485: t2 = 0\n 19487: u64 [sp + 40] = 0\n 19490: fallthrough\n      : @605 (gas: 21)\n 19491: a3 = u64 [sp + 0x98]\n 19495: a0 = a3 >> 0x3f\n 19498: a1 = u64 [sp + 0x90]\n 19502: a1 = a1 << 0x1\n 19505: a0 = a0 | a1\n 19508: a5 = u64 [sp + 0x88]\n 19512: a1 = a5 >> 0x3f\n 19515: a3 = a3 << 0x1\n 19518: a1 = a1 | a3\n 19521: a2 = u64 [sp + 0xa0]\n 19525: a3 = a2 >> 0x3f\n 19528: a5 = a5 << 0x1\n 19531: s1 = a2 << 0x1\n 19534: s1 = t2 | s1\n 19537: a2 = u64 [sp + 0x28]\n 19540: a3 = a3 | a2\n 19543: a5 = a5 | a3\n 19546: a4 = a2 | a1\n 19549: a1 = a2 | a0\n 19552: a0 = u64 [sp]\n 19554: jump @607\n      : @606 (gas: 2)\n 19556: a0 = u64 [sp]\n 19558: fallthrough\n      : @607 (gas: 10)\n 19559: u64 [a0] = s1\n 19561: u64 [a0 + 0x8] = a5\n 19564: u64 [a0 + 0x10] = a4\n 19567: u64 [a0 + 0x18] = a1\n 19570: sp = s0 + 0xfffffffffffffef0\n 19574: ra = u64 [sp + 0x108]\n 19578: s0 = u64 [sp + 0x100]\n 19582: s1 = u64 [sp + 0xf8]\n 19586: sp = sp + 0x110\n 19590: ret\n      : @608 (gas: 8)\n 19592: u64 [sp + 224] = 0\n 19596: u64 [sp + 216] = 0\n 19600: u64 [sp + 208] = 0\n 19604: a0 = 0x4e487b7100000000\n 19614: a1 = sp + 0xd0\n 19618: u64 [sp + 0xe8] = a0\n 19622: a0 = 0\n 19624: ra = 562, jump @4\n      : @609 [@dyn 281] (gas: 7)\n 19630: u64 [sp + 200] = 0\n 19634: u64 [sp + 192] = 0\n 19638: u64 [sp + 176] = 0x12\n 19643: a0 = 0x4\n 19646: a1 = sp + 0xb0\n 19650: u64 [sp + 184] = 0\n 19654: ra = 564, jump @4\n      : @610 [@dyn 282] (gas: 2)\n 19660: a1 = i32 [0x200a4]\n 19665: jump @612 if a1 >u 63\n      : @611 (gas: 2)\n 19669: u32 [0x200a4] = 0x40\n 19675: fallthrough\n      : @612 (gas: 7)\n 19676: a1 = 0x200b0\n 19681: i32 a1 = a1 + 0\n 19683: a0 = 0x1\n 19686: a2 = 0x24\n 19689: ra = 0x236\n 19693: ecalli 12 // 'seal_return'\n 19695: fallthrough\n      : @613 [@dyn 283] (gas: 45)\n 19696: sp = sp + 0xffffffffffffff90\n 19699: u64 [sp + 0x68] = ra\n 19702: u64 [sp + 0x60] = s0\n 19705: u64 [sp + 0x58] = s1\n 19708: s0 = sp + 0x70\n 19711: sp = sp & 0xfffffffffffffff0\n 19714: a3 = u64 [a1 + 0x18]\n 19717: u64 [sp + 0x8] = a3\n 19720: a4 = u64 [a2 + 0x18]\n 19723: t2 = u64 [a1]\n 19725: u64 [sp] = t2\n 19727: a3 = u64 [a1 + 0x8]\n 19730: s1 = u64 [a2 + 0x8]\n 19733: a5 = u64 [a2]\n 19735: t1 = u64 [a1 + 0x10]\n 19738: t0 = u64 [a2 + 0x10]\n 19741: a2 = s1 + a3\n 19744: t2 = t2 + a5\n 19747: a5 = t2 <u a5\n 19750: a2 = a2 + a5\n 19753: ra = a2 ^ s1\n 19756: s1 = a2 <u s1\n 19759: s1 = a5 if ra == 0\n 19762: a1 = t0 + t1\n 19765: a5 = u64 [sp + 0x8]\n 19768: a5 = a5 + a4\n 19771: a4 = a1 <u t0\n 19774: a4 = a4 + a5\n 19777: a5 = a1 + s1\n 19780: a1 = a5 <u a1\n 19783: ra = a4 + a1\n 19786: a4 = a2 ^ a3\n 19789: a3 = a2 <u a3\n 19792: a1 = u64 [sp]\n 19794: s1 = t2 <u a1\n 19797: s1 = a3 if a4 != 0\n 19800: t0 = a5 <u t1\n 19803: a1 = u64 [sp + 0x8]\n 19806: a4 = ra ^ a1\n 19809: a3 = ra <u a1\n 19812: a3 = t0 if a4 == 0\n 19815: a1 = a5 ^ t1\n 19818: a1 = a1 | a4\n 19821: s1 = a3 if a1 != 0\n 19824: jump @615 if s1 != 0\n      : @614 (gas: 10)\n 19827: u64 [a0] = t2\n 19829: u64 [a0 + 0x8] = a2\n 19832: u64 [a0 + 0x10] = a5\n 19835: u64 [a0 + 0x18] = ra\n 19838: sp = s0 + 0xffffffffffffff90\n 19841: ra = u64 [sp + 0x68]\n 19844: s0 = u64 [sp + 0x60]\n 19847: s1 = u64 [sp + 0x58]\n 19850: sp = sp + 0x70\n 19853: ret\n      : @615 (gas: 1)\n 19855: t0 = 568, jump @675\n      : @616 [@dyn 284] (gas: 1)\n 19861: ra = 570, jump @4\n      : @617 [@dyn 285] (gas: 7)\n 19867: u64 [sp + 40] = 0\n 19870: u64 [sp + 32] = 0\n 19873: u64 [sp + 16] = 0x11\n 19877: a0 = 0x4\n 19880: a1 = sp + 0x10\n 19883: u64 [sp + 24] = 0\n 19886: ra = 572, jump @4\n      : @618 [@dyn 286] (gas: 2)\n 19892: a1 = i32 [0x200a4]\n 19897: jump @620 if a1 >u 63\n      : @619 (gas: 2)\n 19901: u32 [0x200a4] = 0x40\n 19907: fallthrough\n      : @620 (gas: 7)\n 19908: a1 = 0x200b0\n 19913: i32 a1 = a1 + 0\n 19915: a0 = 0x1\n 19918: a2 = 0x24\n 19921: ra = 0x23e\n 19925: ecalli 12 // 'seal_return'\n 19927: fallthrough\n      : @621 [@dyn 287] (gas: 14)\n 19928: sp = sp + 0xffffffffffffff20\n 19932: u64 [sp + 0xd8] = ra\n 19936: u64 [sp + 0xd0] = s0\n 19940: u64 [sp + 0xc8] = s1\n 19944: s0 = sp + 0xe0\n 19948: sp = sp & 0xfffffffffffffff0\n 19951: a1 = u64 [a0 + 0x10]\n 19954: a2 = u64 [a0 + 0x18]\n 19957: a3 = u64 [a0 + 0x8]\n 19960: a0 = u64 [a0]\n 19962: a2 = a2 | a3\n 19965: a0 = a0 | a1\n 19968: a0 = a0 | a2\n 19971: jump @623 if a0 == 0\n      : @622 (gas: 6)\n 19974: sp = s0 + 0xffffffffffffff20\n 19978: ra = u64 [sp + 0xd8]\n 19982: s0 = u64 [sp + 0xd0]\n 19986: s1 = u64 [sp + 0xc8]\n 19990: sp = sp + 0xe0\n 19994: ret\n      : @623 (gas: 3)\n 19996: a0 = sp + 0xa0\n 20000: a1 = 0x40\n 20003: ra = 576, jump @2\n      : @624 [@dyn 288] (gas: 15)\n 20009: a2 = u64 [sp + 0xb8]\n 20013: s1 = u64 [sp + 0xb0]\n 20017: a0 = u64 [sp + 0xa8]\n 20021: a1 = u64 [sp + 0xa0]\n 20025: u64 [sp + 0x10] = a0\n 20028: u64 [sp + 0x8] = a2\n 20031: a0 = a0 | a2\n 20034: u64 [sp + 0x18] = a1\n 20037: a1 = a1 | s1\n 20040: a1 = a1 | a0\n 20043: a1 = a1 >> 0x20\n 20046: a0 = a0 | s1\n 20049: a0 = a0 << 0x20\n 20052: a0 = a0 | a1\n 20055: jump @631 if a0 != 0\n      : @625 (gas: 8)\n 20059: u64 [sp + 144] = 0\n 20063: u64 [sp + 136] = 0\n 20067: u64 [sp + 128] = 0\n 20071: a0 = 0x8c379a000000000\n 20081: a1 = sp + 0x80\n 20085: u64 [sp + 0x98] = a0\n 20089: a0 = u64 [sp + 0x18]\n 20092: ra = 578, jump @4\n      : @626 [@dyn 289] (gas: 11)\n 20098: a2 = u64 [sp + 0x8]\n 20101: a2 = a2 | s1\n 20104: s1 = 0x100000000\n 20114: a0 = 0xfffffffc\n 20124: a1 = u64 [sp + 0x18]\n 20127: a0 = a1 <u a0\n 20130: a1 = u64 [sp + 0x10]\n 20133: a0 = 0 if a1 != 0\n 20135: u64 [sp + 0x8] = a2\n 20138: a0 = 0 if a2 != 0\n 20140: jump @631 if a0 == 0\n      : @627 (gas: 8)\n 20143: a0 = u64 [sp + 0x18]\n 20146: i32 a0 = a0 + 0x4\n 20149: u64 [sp + 120] = 0\n 20152: u64 [sp + 112] = 0\n 20155: u64 [sp + 96] = 0x20\n 20159: a1 = sp + 0x60\n 20162: u64 [sp + 104] = 0\n 20165: ra = 580, jump @4\n      : @628 [@dyn 290] (gas: 8)\n 20171: a0 = s1 + 0xffffffffffffffdc\n 20174: a1 = u64 [sp + 0x18]\n 20177: a0 = a1 <u a0\n 20180: a1 = u64 [sp + 0x10]\n 20183: a0 = 0 if a1 != 0\n 20185: a1 = u64 [sp + 0x8]\n 20188: a0 = 0 if a1 != 0\n 20190: jump @631 if a0 == 0\n      : @629 (gas: 8)\n 20193: s1 = u64 [sp + 0x18]\n 20196: i32 a0 = s1 + 0x24\n 20199: u64 [sp + 88] = 0\n 20202: u64 [sp + 80] = 0\n 20205: u64 [sp + 64] = 0x16\n 20209: a1 = sp + 0x40\n 20212: u64 [sp + 72] = 0\n 20215: ra = 582, jump @4\n      : @630 [@dyn 291] (gas: 7)\n 20221: a0 = 0xffffffbc\n 20231: a0 = s1 <u a0\n 20234: a1 = u64 [sp + 0x10]\n 20237: a0 = 0 if a1 != 0\n 20239: a1 = u64 [sp + 0x8]\n 20242: a0 = 0 if a1 != 0\n 20244: jump @632 if a0 != 0\n      : @631 (gas: 1)\n 20247: trap\n      : @632 (gas: 11)\n 20248: s1 = u64 [sp + 0x18]\n 20251: i32 a0 = s1 + 0x44\n 20254: a1 = u64 [0x20088]\n 20259: a2 = u64 [0x20090]\n 20264: a3 = u64 [0x20098]\n 20269: u64 [sp + 0x38] = a1\n 20272: u64 [sp + 0x30] = a2\n 20275: u64 [sp + 0x28] = a3\n 20278: a1 = sp + 0x20\n 20281: u64 [sp + 32] = 0\n 20284: ra = 584, jump @4\n      : @633 [@dyn 292] (gas: 3)\n 20290: a1 = 0x64\n 20293: a0 = s1\n 20295: ra = 586, jump @12\n      : @634 [@dyn 293] (gas: 6)\n 20301: i32 a1 = a0 + 0\n 20303: a0 = 0x1\n 20306: a2 = 0x64\n 20309: ra = 0x24c\n 20313: ecalli 12 // 'seal_return'\n 20315: fallthrough\n      : @635 [@dyn 294] (gas: 22)\n 20316: sp = sp + 0xffffffffffffff50\n 20320: u64 [sp + 0xa8] = ra\n 20324: u64 [sp + 0xa0] = s0\n 20328: u64 [sp + 0x98] = s1\n 20332: s0 = sp + 0xb0\n 20336: sp = sp & 0xfffffffffffffff0\n 20339: a5 = u64 [a1 + 0x10]\n 20342: a4 = u64 [a1 + 0x18]\n 20345: s1 = u64 [a1 + 0x8]\n 20348: t0 = u64 [a1]\n 20350: u64 [sp + 0x40] = a4\n 20353: u64 [sp + 0x38] = s1\n 20356: a1 = s1 | a4\n 20359: a4 = t0 | a5\n 20362: a4 = a4 | a1\n 20365: a4 = a4 >> 0x20\n 20368: u64 [sp + 0x48] = a5\n 20371: a1 = a1 | a5\n 20374: a1 = a1 << 0x20\n 20377: a1 = a1 | a4\n 20380: u64 [sp + 0x30] = a0\n 20383: jump @640 if a1 != 0\n      : @636 (gas: 21)\n 20387: s1 = t0\n 20389: a0 = u64 [a3 + 0x18]\n 20392: u64 [sp + 0x28] = a0\n 20395: a0 = u64 [a3 + 0x10]\n 20398: u64 [sp + 0x20] = a0\n 20401: a0 = u64 [a3 + 0x8]\n 20404: u64 [sp + 0x18] = a0\n 20407: a0 = u64 [a3]\n 20409: u64 [sp + 0x10] = a0\n 20412: a0 = u64 [a2 + 0x10]\n 20415: a1 = u64 [a2 + 0x8]\n 20418: a2 = u64 [a2]\n 20420: a0 = a0 << 0x20\n 20423: a0 = a0 >> 0x20\n 20426: u64 [sp + 136] = 0\n 20430: u64 [sp + 0x70] = a2\n 20433: u64 [sp + 0x78] = a1\n 20436: a1 = sp + 0x70\n 20439: u64 [sp + 0x80] = a0\n 20443: a0 = t0\n 20445: ra = 590, jump @4\n      : @637 [@dyn 295] (gas: 9)\n 20451: a2 = u64 [sp + 0x48]\n 20454: a3 = u64 [sp + 0x40]\n 20457: a0 = a2 | a3\n 20460: a1 = 0xffffffe0\n 20470: a1 = s1 <u a1\n 20473: a4 = u64 [sp + 0x38]\n 20476: a1 = 0 if a4 != 0\n 20478: a1 = 0 if a0 != 0\n 20480: jump @640 if a1 == 0\n      : @638 (gas: 23)\n 20483: a0 = s1 + 0x40\n 20486: u64 [sp + 0x8] = a0\n 20489: a0 = a0 <u s1\n 20492: a1 = a4 + a0\n 20495: u64 [sp] = a1\n 20497: a1 = a1 <u a4\n 20500: a1 = a0 if a0 == 0\n 20503: a1 = a1 + a2\n 20506: u64 [sp + 0x38] = a1\n 20509: a0 = a1 <u a2\n 20512: a0 = a0 + a3\n 20515: u64 [sp + 0x48] = a0\n 20518: i32 a0 = s1 + 0x20\n 20521: a1 = u64 [sp + 0x10]\n 20524: u64 [sp + 0x50] = a1\n 20527: a1 = u64 [sp + 0x18]\n 20530: u64 [sp + 0x58] = a1\n 20533: a1 = u64 [sp + 0x20]\n 20536: u64 [sp + 0x60] = a1\n 20539: a1 = sp + 0x50\n 20542: a2 = u64 [sp + 0x28]\n 20545: u64 [sp + 0x68] = a2\n 20548: ra = 592, jump @4\n      : @639 [@dyn 296] (gas: 15)\n 20554: a0 = u64 [sp + 0x30]\n 20557: a1 = u64 [sp + 0x38]\n 20560: u64 [a0 + 0x10] = a1\n 20563: a1 = u64 [sp]\n 20565: u64 [a0 + 0x8] = a1\n 20568: a1 = u64 [sp + 0x8]\n 20571: u64 [a0] = a1\n 20573: a1 = u64 [sp + 0x48]\n 20576: u64 [a0 + 0x18] = a1\n 20579: sp = s0 + 0xffffffffffffff50\n 20583: ra = u64 [sp + 0xa8]\n 20587: s0 = u64 [sp + 0xa0]\n 20591: s1 = u64 [sp + 0x98]\n 20595: sp = sp + 0xb0\n 20599: ret\n      : @640 (gas: 1)\n 20601: trap\n      : @641 (gas: 9)\n 20602: sp = sp + 0xffffffffffffff20\n 20606: u64 [sp + 0xd8] = ra\n 20610: u64 [sp + 0xd0] = s0\n 20614: u64 [sp + 0xc8] = s1\n 20618: s0 = sp + 0xe0\n 20622: sp = sp & 0xffffffffffffffe0\n 20625: s1 = a0\n 20627: ecalli 11 // 'return_data_size'\n 20629: fallthrough\n      : @642 (gas: 1)\n 20630: jump @654 if a0 == 0\n      : @643 (gas: 6)\n 20634: u64 [sp + 0x18] = s1\n 20637: ecalli 11 // 'return_data_size'\n 20639: s1 = a0\n 20641: a0 = sp + 0xa0\n 20645: a1 = 0x40\n 20648: ra = 594, jump @2\n      : @644 [@dyn 297] (gas: 28)\n 20654: a2 = u64 [sp + 0xb8]\n 20658: a5 = u64 [sp + 0xb0]\n 20662: u64 [sp + 0x38] = a5\n 20665: t0 = u64 [sp + 0xa8]\n 20669: u64 [sp + 0x30] = t0\n 20672: t1 = u64 [sp + 0xa0]\n 20676: u64 [sp + 0x28] = t1\n 20679: a0 = s1 + 0x1f\n 20682: u64 [sp + 0x20] = s1\n 20685: a1 = a0 <u s1\n 20688: s1 = a2\n 20690: a0 = a0 & 0xffffffffffffffe0\n 20693: a2 = a0 + 0x20\n 20696: a0 = a2 <u a0\n 20699: a3 = a1 + a0\n 20702: a4 = a3 <u a1\n 20705: a4 = a0 if a0 == 0\n 20708: u64 [sp + 120] = 0\n 20711: u64 [sp + 0x60] = a2\n 20714: u64 [sp + 0x98] = s1\n 20718: u64 [sp + 0x90] = a5\n 20722: u64 [sp + 0x88] = t0\n 20726: u64 [sp + 0x80] = t1\n 20730: u64 [sp + 0x68] = a3\n 20733: a0 = sp + 0x80\n 20737: a1 = sp + 0x60\n 20740: u64 [sp + 0x70] = a4\n 20743: ra = 596, jump @563\n      : @645 [@dyn 298] (gas: 11)\n 20749: a0 = u64 [sp + 0x28]\n 20752: a2 = u64 [sp + 0x30]\n 20755: a2 = a2 | s1\n 20758: a3 = u64 [sp + 0x38]\n 20761: a1 = a0 | a3\n 20764: a1 = a1 | a2\n 20767: a1 = a1 >> 0x20\n 20770: a2 = a2 | a3\n 20773: a2 = a2 << 0x20\n 20776: a1 = a1 | a2\n 20779: jump @653 if a1 != 0\n      : @646 (gas: 7)\n 20783: u64 [sp + 88] = 0\n 20786: u64 [sp + 80] = 0\n 20789: u64 [sp + 72] = 0\n 20792: a1 = sp + 0x40\n 20795: a2 = u64 [sp + 0x20]\n 20798: u64 [sp + 0x40] = a2\n 20801: ra = 598, jump @4\n      : @647 [@dyn 299] (gas: 2)\n 20807: ecalli 11 // 'return_data_size'\n 20809: fallthrough\n      : @648 (gas: 10)\n 20810: a3 = u64 [sp + 0x28]\n 20813: u64 [sp + 0x20] = s1\n 20816: a1 = u64 [sp + 0x38]\n 20819: a1 = a1 | s1\n 20822: a2 = 0xffffffe0\n 20832: a2 = a3 <u a2\n 20835: a4 = u64 [sp + 0x30]\n 20838: a2 = 0 if a4 != 0\n 20840: a2 = 0 if a1 != 0\n 20842: jump @653 if a2 == 0\n      : @649 (gas: 3)\n 20845: s1 = a0\n 20847: a0 = a0 >> 0x20\n 20850: jump @653 if a0 != 0\n      : @650 (gas: 5)\n 20853: i32 a0 = a3 + 0x20\n 20856: i32 a1 = s1 + 0\n 20858: u64 [sp + 0x10] = a1\n 20861: a1 = s1\n 20863: ra = 600, jump @12\n      : @651 [@dyn 300] (gas: 6)\n 20869: u32 [sp + 0xc0] = s1\n 20873: i32 a0 = a0 + 0\n 20875: i32 a1 = sp + 0xc0\n 20879: a2 = 0\n 20881: ecalli 10 // 'return_data_copy'\n 20883: fallthrough\n      : @652 (gas: 8)\n 20884: a4 = u64 [sp + 0x28]\n 20887: a0 = i32 [sp + 0xc0]\n 20891: s1 = u64 [sp + 0x18]\n 20894: a1 = u64 [sp + 0x20]\n 20897: a2 = u64 [sp + 0x38]\n 20900: a3 = u64 [sp + 0x30]\n 20903: a5 = u64 [sp + 0x10]\n 20906: jump @655 if a0 >=u a5\n      : @653 (gas: 1)\n 20909: trap\n      : @654 (gas: 5)\n 20910: a3 = 0\n 20912: a2 = 0\n 20914: a1 = 0\n 20916: a4 = 0x60\n 20919: fallthrough\n      : @655 (gas: 10)\n 20920: u64 [s1] = a4\n 20922: u64 [s1 + 0x8] = a3\n 20925: u64 [s1 + 0x10] = a2\n 20928: u64 [s1 + 0x18] = a1\n 20931: sp = s0 + 0xffffffffffffff20\n 20935: ra = u64 [sp + 0xd8]\n 20939: s0 = u64 [sp + 0xd0]\n 20943: s1 = u64 [sp + 0xc8]\n 20947: sp = sp + 0xe0\n 20951: ret\n      : @656 [export #0: 'call'] (gas: 2)\n 20953: a0 = 0\n 20955: ra = 602, jump @18\n      : @657 [@dyn 301] [export #1: 'deploy'] (gas: 2)\n 20961: a0 = 0x1\n 20964: ra = 604, jump @18\n      : @658 [@dyn 302] (gas: 9)\n 20970: a1 = a1 <u 0x20\n 20973: a1 = a1 ^ 0x1\n 20976: a1 = a0 if a3 != 0\n 20979: a0 = a3 >u 0\n 20981: a2 = a3 >u 0\n 20983: a2 = a0 if a3 == 0\n 20986: a0 = a3 | a3\n 20989: a2 = a1 if a0 == 0\n 20992: jump [t0]\n      : @659 (gas: 7)\n 20994: a1 = u64 [a2 + 0x38]\n 20997: a0 = a1 <u a0\n 21000: a1 = u64 [a2 + 0x30]\n 21003: a0 = 0 if a1 != 0\n 21005: a1 = u64 [a2 + 0x28]\n 21008: a0 = 0 if a1 != 0\n 21010: jump [t0]\n      : @660 (gas: 14)\n 21012: a3 = s1 + 0x100\n 21016: a0 = u64 [a3 + 0x28]\n 21019: a2 = u64 [a3 + 0x20]\n 21022: a2 = a2 | a0\n 21025: a0 = 0x100000000\n 21035: u64 [a3 + 0x20] = a0\n 21038: a0 = 0xfffffffc\n 21048: a1 = u64 [a3 + 0x38]\n 21051: a0 = a1 <u a0\n 21054: a1 = u64 [a3 + 0x30]\n 21057: a0 = 0 if a1 != 0\n 21059: u64 [a3 + 0x28] = a2\n 21062: a0 = 0 if a2 != 0\n 21064: jump [t0]\n      : @661 (gas: 13)\n 21066: a4 = s1 + 0x100\n 21070: a1 = u64 [a4 + 0x30]\n 21073: a2 = u64 [a4 + 0x20]\n 21076: a1 = a1 | a2\n 21079: a3 = u64 [a4 + 0x28]\n 21082: a2 = u64 [a4 + 0x38]\n 21085: a2 = a2 | a3\n 21088: a2 = a2 | a1\n 21091: a2 = a2 >> 0x20\n 21094: a1 = a1 | a3\n 21097: a1 = a1 << 0x20\n 21100: a1 = a1 | a2\n 21103: jump [t0]\n      : @662 (gas: 14)\n 21105: a0 = i32 [a2 + 0x10]\n 21108: a2 = u64 [a2]\n 21110: a1 = reverse a1\n 21112: a3 = a1 << 0x20\n 21115: a0 = reverse a0\n 21117: a0 = a0 >> 0x20\n 21120: a3 = a3 | a0\n 21123: a1 = a1 >> 0x20\n 21126: a0 = reverse a2\n 21128: a2 = a0 << 0x20\n 21131: a1 = a1 | a2\n 21134: a2 = a0 >> 0x20\n 21137: i32 a0 = a4 + 0x4\n 21140: jump [t0]\n      : @663 (gas: 15)\n 21142: a0 = u64 [a2 + 0x8]\n 21145: a1 = i32 [a2 + 0x10]\n 21148: a2 = u64 [a2]\n 21150: a0 = reverse a0\n 21152: a3 = a0 << 0x20\n 21155: a1 = reverse a1\n 21157: a1 = a1 >> 0x20\n 21160: a3 = a3 | a1\n 21163: a0 = a0 >> 0x20\n 21166: a1 = reverse a2\n 21168: a2 = a1 << 0x20\n 21171: a2 = a2 | a0\n 21174: a1 = a1 >> 0x20\n 21177: i32 a0 = a4 + 0x4\n 21180: jump [t0]\n      : @664 (gas: 12)\n 21182: a5 = s1 + 0x100\n 21186: a1 = u64 [a5 + 0x38]\n 21189: a0 = u64 [a5 + 0x28]\n 21192: a3 = u64 [a5 + 0x20]\n 21195: a3 = a3 | a0\n 21198: a4 = 0x100000000\n 21208: a0 = 0xfffffffc\n 21218: a0 = a1 <u a0\n 21221: a2 = u64 [a5 + 0x30]\n 21224: a0 = 0 if a2 != 0\n 21226: a0 = 0 if a3 != 0\n 21228: jump [t0]\n      : @665 (gas: 11)\n 21230: a2 = reverse a2\n 21232: a3 = a2 << 0x20\n 21235: a0 = a0 >> 0x20\n 21238: a0 = a0 | a3\n 21241: a2 = a2 >> 0x20\n 21244: a3 = u64 [s1 + 0xd8]\n 21248: u64 [a3 + 0x8] = a0\n 21251: u64 [a3] = a1\n 21253: u32 [a3 + 0x10] = a2\n 21256: a0 = s1 + 0x18d8\n 21260: jump [t0]\n      : @666 (gas: 11)\n 21262: a2 = reverse a2\n 21264: a3 = a2 << 0x20\n 21267: a0 = a0 >> 0x20\n 21270: a0 = a0 | a3\n 21273: a2 = a2 >> 0x20\n 21276: a3 = u64 [s1 + 0xf0]\n 21280: u64 [a3 + 0x8] = a0\n 21283: u64 [a3] = a1\n 21285: u32 [a3 + 0x10] = a2\n 21288: a0 = s1 + 0x18d8\n 21292: jump [t0]\n      : @667 (gas: 10)\n 21294: a0 = u64 [sp + 0x10]\n 21297: a1 = u64 [sp + 0x18]\n 21300: a2 = 0x100000000\n 21310: a2 = a2 ^ a0\n 21313: a2 = a2 | a1\n 21316: a3 = a0 >> 0x20\n 21319: a3 = a3 <u 0x1\n 21322: a3 = 0 if a1 != 0\n 21324: a3 = 0 if a2 == 0\n 21326: jump [t0]\n      : @668 (gas: 6)\n 21328: i32 a0 = a2 + 0\n 21330: u64 [s1 + 0x130] = a0\n 21334: a0 = u64 [s1 + 0x138]\n 21338: a1 = a2\n 21340: u64 [s1 + 0x128] = a2\n 21344: jump [t0]\n      : @669 (gas: 13)\n 21346: a5 = s1 + 0x100\n 21350: u64 [a5 + 0x30] = a2\n 21353: u64 [a5 + 0x28] = a3\n 21356: a0 = a2 | a3\n 21359: u64 [a5 + 0x38] = a1\n 21362: a1 = a1 | a4\n 21365: a1 = a1 | a0\n 21368: a1 = a1 >> 0x20\n 21371: u64 [a5 + 0x20] = a4\n 21374: a0 = a0 | a4\n 21377: a0 = a0 << 0x20\n 21380: a0 = a0 | a1\n 21383: jump [t0]\n      : @670 (gas: 10)\n 21385: a0 = u64 [a3 + 0x18]\n 21388: a1 = u64 [a3 + 0x10]\n 21391: a2 = u64 [a3 + 0x8]\n 21394: a3 = u64 [a3]\n 21396: a0 = reverse a0\n 21398: a1 = reverse a1\n 21400: a2 = reverse a2\n 21402: a3 = reverse a3\n 21404: a4 = 0x2000\n 21408: jump [t0]\n      : @671 (gas: 4)\n 21410: a2 = a0\n 21412: a0 = 0x4e487b7100000000\n 21422: a1 = s1 + 0x7ff\n 21426: jump [t0]\n      : @672 (gas: 8)\n 21428: a1 = u64 [a3 + 0x10]\n 21431: a0 = a0 | a1\n 21434: a1 = 0xfffffffc\n 21444: a1 = a4 <u a1\n 21447: a2 = u64 [a3 + 0x8]\n 21450: a1 = 0 if a2 != 0\n 21452: a1 = 0 if a0 != 0\n 21454: jump [t0]\n      : @673 (gas: 12)\n 21456: a2 = u64 [sp]\n 21458: a3 = u64 [sp + 0x8]\n 21461: u64 [s1] = a2\n 21463: u64 [s1 + 0x8] = a3\n 21466: u64 [s1 + 0x10] = a0\n 21469: u64 [s1 + 0x18] = a1\n 21472: sp = s0 + 0xffffffffffffffc0\n 21475: ra = u64 [sp + 0x38]\n 21478: s0 = u64 [sp + 0x30]\n 21481: s1 = u64 [sp + 0x28]\n 21484: sp = sp + 0x40\n 21487: jump [t0]\n      : @674 (gas: 9)\n 21489: a1 = u64 [a2 + 0xc0]\n 21493: u64 [s1 + 0x130] = a1\n 21497: a1 = u64 [a2 + 0xb8]\n 21501: u64 [s1 + 0x128] = a1\n 21505: a1 = u64 [a2 + 0xb0]\n 21509: u64 [s1 + 0x120] = a1\n 21513: a0 = u64 [a2 + 0xa8]\n 21517: u64 [s1 + 0x138] = a0\n 21521: jump [t0]\n      : @675 (gas: 8)\n 21523: u64 [sp + 64] = 0\n 21526: u64 [sp + 56] = 0\n 21529: u64 [sp + 48] = 0\n 21532: a0 = 0x4e487b7100000000\n 21542: a1 = sp + 0x30\n 21545: u64 [sp + 0x48] = a0\n 21548: a0 = 0\n 21550: jump [t0]\n      : @676 (gas: 6)\n 21552: sp = s0 + 0xffffffffffffffa0\n 21555: ra = u64 [sp + 0x58]\n 21558: s0 = u64 [sp + 0x50]\n 21561: s1 = u64 [sp + 0x48]\n 21564: sp = sp + 0x60\n 21567: jump [t0]\n      : @677 (gas: 8)\n 21569: a0 = u64 [a2 + 0x8]\n 21572: a1 = i32 [a2 + 0x10]\n 21575: a2 = u64 [a2]\n 21577: a3 = reverse a0\n 21579: a0 = a3 << 0x20\n 21582: a1 = reverse a1\n 21584: a1 = a1 >> 0x20\n 21587: jump [t0]\n      : @678 (gas: 4)\n 21589: a0 = 0x18d8\n 21593: a3 = s1 + a0\n 21596: a4 = a3 + 0x200\n 21600: jump [t0]\n      : @679 (gas: 2)\n 21602: a3 = a2 & 0x40\n 21605: jump @683 if a3 != 0\n      : @680 (gas: 1)\n 21608: jump @682 if a2 == 0\n      : @681 (gas: 6)\n 21611: i32 a3 = 0x40 - a2\n 21614: a3 = a1 << a3\n 21617: a1 = a1 >> a2\n 21620: a0 = a0 >> a2\n 21623: a0 = a0 | a3\n 21626: ret\n      : @682 (gas: 1)\n 21628: ret\n      : @683 (gas: 4)\n 21630: a0 = a2 + 0xffffffffffffffc0\n 21633: a0 = a1 >> a0\n 21636: a1 = 0\n 21638: ret\n      : @684 (gas: 2)\n 21640: a3 = a2 & 0x40\n 21643: jump @688 if a3 != 0\n      : @685 (gas: 1)\n 21646: jump @687 if a2 == 0\n      : @686 (gas: 6)\n 21649: i32 a3 = 0x40 - a2\n 21652: a3 = a0 >> a3\n 21655: a0 = a0 << a2\n 21658: a1 = a1 << a2\n 21661: a1 = a1 | a3\n 21664: ret\n      : @687 (gas: 1)\n 21666: ret\n      : @688 (gas: 4)\n 21668: a1 = a2 + 0xffffffffffffffc0\n 21671: a1 = a0 << a1\n 21674: a0 = 0\n 21676: ret\n",
        "bytecode": {
          "object": "50564d00008563000000000000010700c1d000c000800380a04349464655534e4954554f5f544e4549554f4d415f545550524546534e4152545f44454c4941465f0000314e454b4f54504e495f544e45494e554f4d415f54554b996ca45fd98ad75f27fc85dad05165d5b87f6537ce13e622d859018430d1e35f44494c41564e497550adc85f9b204c6aa58b08e1e2138fef6f1c0a69ff0d564f1c82034c4f39264349464655534e4951494c5f544e454900005954494449550481091000000000070000000b0000001900000027000000350000003b0000004800000053000000620000006f0000007f0000008f0000009a000000ac000000b70000006164647265737363616c6c63616c6c5f646174615f636f707963616c6c5f646174615f6c6f616463616c6c5f646174615f73697a6563616c6c65726465706f7369745f6576656e746765745f73746f72616765686173685f6b656363616b5f3235367265665f74696d655f6c65667472657475726e5f646174615f636f707972657475726e5f646174615f73697a657365616c5f72657475726e7365745f696d6d757461626c655f646174617365745f73746f7261676576616c75655f7472616e73666572726564051302c0d9510463616c6cc0e151066465706c6f7906c0a661812e02c0ae542b007301b602210382038a0360046504e704f2041f0550058205c305e20523062e06740688069d06dc060107a90838095909c509140a7f0a840abb0a020b800b850bce0bf20b740c790cb20ce00c2d0d5f0dcb0ddf0dee0d0c0e350e3b0e590e750e850e600f6f0f860fd40f06107010791089109610bb10c110df10fb100c11ca11da1100129a123b138e130c1412156815d915df152a1657160c1737175b1794179e17c017f117c018ee182c1985198b19b619f219501a5d1a791ab21ab81acb1ad11a161b561bd31b6b1c3b1d881d961d501edc1e241f2d1f531fb51fc91f0b202d203420532070208120552165217921c021e82146224f227e22a022a722c422e122f222aa23ba23ce233a24d524232566256f2594251226a4268227d127df279c282c294129ac29b229de29ee291a2a2e2a7b2ab02ab62acd2ad32a482b922bff2b492c252d432d8b2d952dcb2d122e402e5e2ec42e162f482f6b2fbd2f043027309430a13008315a316f3179311d322a329b32a932b632bc32d332d9320a337533d733e733133427347634843491349734bc343e35d6353336b5372d38db38fd3837393d3971398139b539c939183a3a3a743a7a3aae3abe3af23a063b763be23bf33b743cea3c473da63dba3dc43db53e0a4017406640ad40d9402c414a41a241b241de411742274253428c429c42c84226432c4335434b437143774380439543c1430d44d644f144f74410453445f04509462d46de47f7471b486c497b499149b549f449324a464a5c4a9b4aae4ccc4cf04c954d9b4db44dd84d294e824ecb4efd4e424f4d4f5c4fe34f4a50ae500d5147518551e151ea513908a8000251087a063307d0000383770a0d286d069511f07b10087b15648964753308206497501002eb037c78017c797c7a027c7b03978808d4980897aa1097bb18d4ba0ad4a8087c79057c7a047c7b067c7c07979908d4a90997bb1097cc18d4cb0bd4b909979920d489027c79097c7a087c7b0a7c7c0b979908d4a90997bb1097cc18d4cb0bd4b9097c7a0d7c7b0c7c7c0e7c780f97aa08d4ba0a97cc10978818d4c808d4a808978820d498037c78117c7a107c7b127c7c13978808d4a80897bb1097cc18d4cb0bd4b8087c7a157c7b147c7c167c791797aa08d4ba0a97cc10979918d4c909d4a909979920d4890a7c78197c79187c7b1a7c7c1b978808d4980897bb1097cc18d4cb0bd4b8087c791d7c7b1c7c7c1e7c771f979908d4b90997cc10977718d4c707d49707977720d487076f776fa86f396f2a7b5a187b59107b58087b57821008821595111032009511d87b10207b15187b161082897b19088289087b19828510828618330820501004a3026f686f59821a6faa821b086fbb787b18787a10787908787898bc38787c1f98bc30787c1e98bc28787c1d98bc20787c1c98bc18787c1b98bc10787c1a98bb08787b1998ab38787b1798ab30787b1698ab28787b1598ab20787b1498ab18787b1398ab10787b1298aa08787a11989a38787a0f989a30787a0e989a28787a0d989a20787a0c989a18787a0b989a10787a0a98990878790998893878790798893078790698892878790598892078790498891878790398891078790298880878780182102082151882161095112832009511a07b10587b15507b16489515608411e06476828718828910828a0882886f776f996faa6f887b18187b1a107b19087b17491138491130491128491120481140208318831a20831b403309ff33070a07821738821830821928821a206f776f886f996faa7b6a187b69107b68087b675012067f5132009511a07b10587b15509515608411e08272827a08827b108277188283828908828c108288186f746fbb6faa6f276f826fcc6f996f387b17187b1a107b1b087b147b18387b19307b1c287b12208318831a203309ff330b2033070a0e9551a0821058821550951160320082186f888219086f99821a106faa821b186fbb7b1b587b1a507b19487b18408218206f888219286f99821a306faa821b386fbb7b1b787b1a707b19687b18608379836a8317403308020a06955160ff8210980082159000821688009511a00032007b183850100c8c006f687b187882186f887b18708218086f887b18688218106f887b18608218186f887b1898008218206f887b1890008218286f887b1888008218306f887b1880008218406f887b18b8008218486f887b18b0008218506f887b18a8008218586f887b18a0008379811a388317603308030a06955120ff8210d8008215d0008216c8009511e00032008b7910520931c8780883881f8488e05638000001253309a40002390aa40002ae8a093d08a40002013308b000028377c887073200009511f07b10087b158475010a04013d07a0000251050750100e095010103d029511c0fd951700027b70387b75307b7628951540028411e049215801492150014921480149214001831740010a0f01821750018218580182194801821a4001d49808d4a707d487075207a6013906a0000297672098772095771f8477e095788000d87807492138017b1820017b17280194777b173001330740951820015010126dfc33078000646850101424ff8377646833090a020153164064014921f8004921f0004921e0008000951700019518e0004921e800501016cd3d821700017b1720821708017b1718801610014921b8004921b0004921a000a0009517c0009518a0004921a8005010189c3d8217c0007b17388217c8007b17308017d0007b172849217801492170014921680149216001951780009518600150101ac4fc8017940097772082189800d46707492198014921900149218801492180018219187b19a8018219207b19a0017b18b8017b17b001951780019518a00150101cfafc4921d8014921d0014921c8013306017b16c0019517609518c00150101e64fc801774977720821878821928d497074921f8014921f0014921e8017b16e001821930951a00027ba9088219387ba97ba8187ba7109517e001951800025010209afc951740330840501022ecf9821758821850821948821640d49707d48609d47909989920d48707977720d4970751071c003308b00002838833070128383308b000028388330701282c64673308501024a2fd8377330833090a022884f9646733085010268efd8378330733093300280a0c280a33093300280a0c01951110fe7b10e8017b15e0017b16d8019515f001951110e08411e064169569d8184929c0014929b8014929a80180003307409568801a4929b00150102a78fa3307a000027b6738013907a000025517040728a738956700208377a0fa330833002c0a03019569d8188197e4015247a72012d20a283e1151478116fe0d4a045247dd0d16180a28920e51474278626a2c0551470a649a6d0a287d0f4929400549293805492930054929280595670020837700fe0a0f01956ad81895ab000582b73882b84082b93082ba28d49808d4a707d487075107062858378267380181775617630728583795670020837720fe3308040a039568d818958900058297607b6738018297587b6730018297507b6728018297487b67200195670020837740fe3308240a039568d8189589000582978000956800017b87188297787b87108297707b87088297687b8795670020837760fe3308440a03019567d818827898058279a00514070000000001000000d38707d497077b68f8009888208888017b69d0009498937852080628c1368264280182620801d424078260200182680001d4800a8263300195680001828910d49309d49a0c828a38828b18d4ba09d49707d4c70752070628c0101407ffffffff000000007b67d8009562d818822790057b67e800822788057b67f0008267f8009777209877207b67e0001407ffffffffffff00007b67c8009567801850102ef13a956ab81095a800078287d0008289c800828be80082a3f00764a2826cc800d2c70a7b69a80082672001d8970782692801d3a9087b6aa000d8a90ada870ad2c3097b6b9800956c000182c7d8b70782cb08d39b087b699000d89b09da870982c73882c830d48707947a82c71882c810d487079479d2a9094922c0074922b8077b29a807956760184922b007501030a5449567d8184927c0054927b8054927b0054927a805956740189568801e501032edf88262e000826ae8008269f000956bb81082b7900782b8880782bc98077b67b800330bffd2b7077b68c000d2b808d39808d3a707d487077b6cb0008268d800d2c808d38208d487075107649568d8184928e0054928d8054928d0054928c80501956720189568a01e50103481f89569b810959a000782a77082a86882a9788477ff8488ff826ad800d2a909826ae000d3a909826af000d3a808826ae800d3a707d48707d49707510706282b119567ff079577c10333084050103606f69569ff079599b9008292200395980003828c18828b10828708d42b0ad4c708d4a808988820d4ca0a97aa20d4a80851080628d90e4929f8024929f0024929e802140a00000000a079c3089568ff079588a1037b9a00037b6738017b6b30017b6220017b6c2801501038d5f650123a3f4852070628970e8387049569ff079599b9004929e0024929d8024929c802209568ff07958881034929d0027b6a28017b6b200150103c99f6956b000182ba2882b93082b83882b7209577dcd87807949794a75107490e838724956aff0795aab900492ac002492ab802492aa8020a9568ff0795886103492ab00250103e52f6956a000182a9381407bcffffff00000000d8790782a830948782a82894875107fe0d8397443a08600002956aff0795aab900492a90027ba8a00214080000000000004f547ba898029568ff0795884103492a88023300b80028f5f549292002492918024929100249290802956700208377e0fa3300400a0f33024228d848501242d54882b71882b82082b91082ba08d49808d4a707d48707510706285433826738018177561703072854339567d81849274002492738024927300249272802956700029568001b50104478f6956800028287107b6728018287087b67380182877b6730019567e00133084050104628f4956b000182baf80082b8f00082b9e80082b7e000d49a0ad48709d4a909989920d4a808978820d498085208030d956a000182a8289788209889204926d80182a8307ba8c00082a8387ba8c8009568c0017ba9d0007b6738013300d6012801f54929a00249299802492990024929880295670020837760fb3300480a0f33024a28e44750124ae14782b7980082b8a00082b9900082ba8800d49808d4a707d48707510706287632826738018177561723072876329567ff079577210350104c9e369568ff079588b900958900028297787b67d8008297707b67e0008297687b67e8009567ff079577e10250104eba369568ff079588b900958900028297307b67c8008297287b67f8008297507b67d0008297487b6700019567d8184927c0024927b8024927b0024927a8029567ff079577c1029568801b50105019f59568ff079588b90095890002829718956800017b87288297107b87208297087b87309567ff079577a102330840501052bbf29569ff079599b9008292000295980001828cf800828bf0008287e800d42b0ad4c708d4a808988820d4ca0a97aa20d4a80852088e0b4929d8014929d0014929c801140a000000003182a0709568ff07958881027b9ae0017b6738017b6218017b6c10017b6b080150105489f33307b000037b67f00083777b67c0003300560a01956a000182ab3882a718501258cb455108300b8269f000829808140700000000240000007b67b80050125a6a44956cff0795ccb900492cc00195cb00017bb9b8007bb8b0009568ff07958861027bbaa80050105c1ff333005e0a0901826720016f77977820826928016f99989920d4980882693001501260ba444927e0024927d8024927d0024927c80233082482673801501062a1f57b6730013308208267380150106491f59568d8184828e80220492820034928180349281003492808038268f00097882098882014090000000018000000d498029568a01b9788209888209569e01b979920d4890a82683001978820988820826bb800d48b0b9777209877209568c01b978820d4780c3308ff3309ff7b62300164270a010152076f0b0a0b01330c20aec7080a0b647c019569ff079599b900826a3801826218018267100182680801492620017b6c2801959b00017bbc487bba68492950017bb870492958017bb778492960019567ff07957721029568ff07958801027b928001501066b434826a20018ea782682801501268804252090628c1309567ff079577e1018268380150106a94f09568ff079588b900958900018297407b6798008297387b67a0008297307b67b0008297287b67a8009567d81849276003492758034927500349274803019567ff079577c1019568201c50106c72f29568ff079588b90095890001829718956800017b87208297107b87188297087b87289567ff079577a10133084050106e14f09562ff079522b900822a00016428828bf800828cf0008287e800d4ac09d4b708d49808988820d4b909979920d498085208e9084922d8004922d0004922c8007b6a9000140a000000003182a0709568ff07958881017b2ae0007b6738017b6b10017b6c0801501070e4f08267c0003300720a01956a000182ab38826790005012743043510895088269f0005012760542956cff0795ccb900492cc0007bc8b8007bc9b0009568ff07958861017bcaa80050107899f033007a0a0901826718016f77977820826920016f99989920d498088269280150127c3442492780034927780349277003492768033308248267380150107e1bf37b67280133082082673801502080000bf39568d81848288803204928c0034928b8034928b0034928a8039568401c9788209888209569801c979920d4890a82682801978820988820826bb800d48b0b9777209877209568601c978820d4780c3308ff3309ff826730010a01015107062800190a0b01330b20aeb7080a0b647b019569ff079599b900826a38018267100182680801492628017b6b30017b9b487b9a684919507b98704919587b97784919609567ff07957721019568ff0795880101826b90007b9b8000502082004b32826a28018ea78268300150228400164052090628212f1407ffffffffffff00007b67b8009567ff079577e10082683801502086001bee9569ff079599b9008297407b6730018297387b6738018297307b6790008297287b6788008267c8008268b800d2870795680010492898f895680010492890f87b672801956800107b8788f88267f800956800107b8780f8826798007b978267a0007b97f88267b000956800107b87a8f89567ff079577c1009568ff079588a1009569ff0795998100826aa800956b00107bbaa0f850208800a0329568ff079588b9008287207b67c8008287187b67a0008287107b6798008287087b6780008267d0008268b800d2870795680010492838f895680010492830f8956900017b9718956800107b8728f88297956800107b8720f8829730956800107b8758f8829738956800107b8750f882679000956800107b8748f89567ff079577619568ff079588419569ff07959921826a8800956b00107bba40f850208a00ff3195670010827778f87b67d00095670010827770f87b677895670010827768f87b677095670010827760f87b67689568d818492800044928f8034928f0034928e803039567ff079577019568c01c50208c00b9ee95670010827c18f895670010827b10f895670010827a08f895670010827900f8d4ca07d4b908d48707510706283e178267687b672006826780007b6740068267707b672806826798007b6748068267787b6730068267a0007b6750068267d0007b673806956760069568400695692006826ac8007b6a580650208e002732826b78068263700682626006826c6806d4b30788280494c8947851080628dd2c98370197b83fd4870798c80197393fd4980898290197ca3fd4a90998b401959a0188a901c89808956900017b9a307b9828d4a808888801c878087b9838d87807c847077b6200017b6cf8007b6308017b9b1064b901826830016420d8280b826a2801d3ca0864c4d8ca0ada8b0a82683801d8380bd3970c643264737b691801d89707dacb07d3280bd4cb0bdaba0752070628f817826730017b672003826700017b674003826728017b6728038267f8007b674803826738017b673003826708017b6750037b6320017b633803956760039568400395692003826a10017b6a5803502090000f33826a6003826768038268700382697803826b2001956c00027bcbd800826b38017bcbd000826b28017bcbc800826b30017bcbc0007bc9f8007bc8f0007bc7e800956700039568e0029569c0027bcae000502092008e37956b000382b71882b81082b982ba08977b3f988c01d4cb0b97883f98ac01d4c80897aa3f989901d49a0a98770182623001826c280182633801826920017b6a30017b6828017b6b380128d0fe4929600249295802492950024929480295670020837720fb330094000a0f33029600287f3e502296007c3e82b75882b86082b95082ba48d49808d4a707d48707510706282e2982673801817856180307282e299568d8184928800249287802492870024928680203956760029568401b502098001dec82677802956800017b8738826770027b8730826768027b8728826760027b87209567400233084050209a00c4e9956b000282b75882b85082b94882ba40d49707d48a09d47909989920d48707977720d497075207a20295690001829720956b00027bb7208297287bb7288297307bb730956820028297387bb73864a77b6a38013300d60128a1ea51473182a0700a2886289567f82049176049175849175049174895670020837740010a0f01956af82082a75882a86082a95082aa48d49808d4a707d4870751070628ca288267380181775617230728c4289567001a50209c00452c956ad81895ab000182b72882b83080a93801492a20017bb9187bb8109568e0197bb708330750209e001eea9568d818492800014928f8004928e8000464893307209568c0194929f0005020a000fae93908a4000256183f0b2003a4000240019517e08479e07b69380164913307b00002837783993308403300a2000a08826a38013302a40028f83b826a38015022a400f13b83bbf800c86b0b7bba80007bb9787bb8707bb7689567a019956860215020a60087ea9568d8188287e000956900017b97388287d8007b97308287d0007b97288287c8007b9720956780193308405020a8002ae8956ad81882a7c00082a8b80082a9b00082aba800d49707d48b09d47909989920d48707977720d4970752070401956900018297207ba788008297287ba790008297307ba79800956860198297387ba7a00064b77b9b383300d6012804e99567f8204927a00049279800492790004927880095670020837780010a0f01956af82082a7980082a8a00082a9900082aa8800d49808d4a707d48707510706283d27826738018177561703072837279568f8204928c0004928b8004928b0004928a800019567601a9568a0215020aa0087e99568d8189589000182979800956800017b8728829790007b8738829788007b87309567401a3308405020ac002de7956ad81895ac000182cb800082c87882c97082c768d49b0bd48709d4b909989920d4b808978820d4980852080628bd2600956740193308405020ae00efe69569d81882928000829c78829b70829768d42b0ad4c708d4a808988820d4ca0a97aa20d4a8085208cc491958491950491948140a00000000a079c308956820197b9a607b6738017b6b30017b6220017b6c28015020b000d0e75022b20039395107938387049569d818330c49194049193849192820956800194919307b6a28017b6b20015020b4009fe795690001829b28829a308298388297209577dcd8780794a794b751074eff8387249569d8184919204919184919081a9568e0184919105020b60063e795690001829a381407bcffffff00000000d87a078298309487829828948751070eff83a7443a080000023a090800023a0a100002956bd8187bb895bc00ff7bc9f8007bcaf0001409000000000000544e9568c0187bc9e8005020b80005e7330864826738015020ba00bae983783307013309640a0c019567ff07957741023308405020bc00a2e59567ff079577b900957900018298a0007b683001829898007b682801829890007b682001829788007b6738013300be000a0b3302c000289b375022c0009837520866fe647998772052075dfe5022c2008b385020c40046e99568d818826928017a892803837795680020838800fc33090a0a9567d818817728030182683001ac8726fe0a0b01647898772052071afe826738017b6830015020c60001e98378816930013307010a0c956780013300da01286c28956a000182a73082a820d4870782a83882a928d49808d487075107a103956700183308405020c800c5e49564b81082424807824a600782435007824b5807952c20d82c07c87308d83809da7709c8b9097b6b8000d8b9077b6a8800c8a707d49c0ad48707d47a0a98aa20d49707977720d4a70752077ffd492438074924300749242807140700000000bb9c05a99568e0177b4740077b6c7064c77b62d8007b63785020ca0082e58267d8009577248268d800d88708826978c88909826a78d8a90ada880a82688000c88a0ad88a08826b8800c8b808826b3801956cb8107bcbc006826b30017bcbb806826b28017bcbb006826b20017bcba806826bd0007bcbe006826bf8007bcbd806826be8007bcbd0067bc9f0067bc7e8067bcaf8067bc800079567c0179568a01795698017956a6017826bf0007bcbc8065020cc00f732826c78826bd80082698000d49b0782688800d4c808d48707987720d49808978820d4870752078ffc9567b8108274080795790007829a108298207b6868829818d8b400d3ca07d8ca09da700982678000c97803d89302d8780b82678800826868c97807c9b707c927027b6258c99303c9ca07c9070a7b6a608267d800c974087b6868958ce0d88c08c88a099599ffd3a904d8a90bda480b643a7b6350883801c9820395a8ffc88b0bd88b0ac8a302956ab81095a800067b8c88007b8990007b8b9800956840177ba2a0065020ce001ae49567b810826858957900067b98608268507b98588268607b98508268687b9848826888007b988000826880007b98788268787b9870647a95672017956800178269d8007ba968065020d0008d269567e0168268d8005020d20085e29568b810958900068297407b6788008297387b6780008297307b67788297287b67d8000a090164728267b8006f779778208269b0006f99989920d498088269c0006f99979a20330bb00003987720d4a7079899203e07b800033e08b000033d09c000039569d818492900064929f8054929f00582678800826c78d47c0c8268d800648a82678000d47808d4c808988820d4c707977720d487074929e8055207ebfa64a883a77b67b8008267707b62b0007b6bc0005020d400c7e56478956ad818482a08068267b8008e77826bb0008eb9fc08d497079a7995ab00067bb9407bb9387bb9307bb9288269c000979920989920977723d497079569c01e979920989920956a001f97aa20d49a0a9788203309b00002988820826bd80097bb20d48b0b9799209899209568e01e978820d4980c3308ff3309ff0a017b67d8009567c0165020d600a4318267d800510706281a14956a000182a71082a8d4870782a81882a908d49808d48707520745069567d8184927e0064927d8064927d0064927c8069567e0139568a01f5020d80023e33302da009568b81001958900038297387b67c0008297307b67b8008297287b67d0009567c0133308405020dc00c8e09569b8108292200395980003828c18828b10828708d42b0ad4c708d4a808988820d4ca0a97aa20d4a8085208a1f94929f8024929f0024929e802140a000000003182a0709568a0137b9a00037b67f8007b62b0007b6c88007b6b80005020de00a0e13307b000037b67d80083777b67783300e0000a01826bf8008267b00082688800d487071408fcffffff00000000d88b088269800094989478510831f98269d800829808140700000000240000007b67705022e2006c32956cb810492ce00295cb00027bb9d8007bb8d000956880137bbac8005020e40028e13300e6000a09018267b8006f779778208269c0006f99989920d498088269d0005022e800a132492700074927f8064927f0064927e8063308248267f8005020ea00a7e37b67d0003308208267f8005020ec0096e39568d8184828080720492840074928380749283007492828078268d80097882098882014090000000018000000d498029568c01f97882098882095690020979920d4890a8268d000978820988820826b70d48b0b9777209877209568e01f978820d4780c3308ff3309ff7b62d00064270a01015107062897110a0b01330c20aec7080a0b647c019569b810826af8008262b00082678800826880004926b8007b6cc000959b00027bbc687bba8800492970027bb89000492978027bb798004929800295674013956820137b92a0025020ee00c022826ab8008ea78268c0005022f0008b30520906281020956700138268f8005020f200a2de9568b810958900028297607b67b0008297587b6788008297507b67b8008297487b67c0009567d81849278007492778074927700749276807019567e012956840205020f40087e09568b810958900028297387b67688297307b67608297287b6780009567c0123308405020f60033de9562b81095280002828a20828b18828c10828708d4ac09d4b708d49808988820d4b909979920d4980852080df74922f8014922f0014922e8017b6a58140a000000003182a0709568a0127b2a00027b67f8007b6b507b6c485020f8000fdf8267783300fa000a01826bf800826758826850d487071408fcffffff00000000d88b08826948949894785108aef68269d8005022fc001e30956cb810492ce00195cb00017bb8d8007bb9d000956880127bbac8005020fe00b5de330000010a09018267606f779778208269686f99989920d49808826980005022020130304927a0074927980749279007492788073308248267f8005020040136e17b6780003308208267f8005020060125e19568d8184828a807204928e0074928d8074928d0074928c807956860209788209888209569a020979920d4890a82688000978820988820826b70d48b0b97772098772095688020978820d4780c3308ff3309ff8267d0000a0101510706281a110a0b01330820ae87080a0b647801492680007b68d000956ab81095ab00017bb8688267f8007bb78800492a70018267487bb79000492a78018267507bb79800492a800195674012956820128269587bb9a000502008016b20826a80008ea78268d00050220a01362e52090628c31d956700128268f80050200c014ddc9568b810958900018297607b6780008297587b67708297507b67d0008297487b67f800956a000182a7387b9782a7307b87f80082a7287b87f00082a7207b87e80049282001492818018267a0007b9710648b9567e0119568c0119569a011826aa8007bba080150200e010021956ab81095ab000182b73082b82882b93882ba40826cb800d37c0bd8c707826cc000d8c808dbb708826bb000d3ab07d8ba0a826c8800d8c90bdb7a0bd3c909d49707db7b08520806285f10956c000182c7209568b8107b8788004928c0004928b8008267a8007b87a80082c7287b8790008267a0007b87b00082c7307b879800648b95678011956860119569401182ca387bbaa000502010016520956bb81082b7c80082b8d00082b9d80082bae0007bba407bb9387bb8307bb7288267b0007bb760826788007bb7588267b8007bb75095672011956800119569e010826ac0007bba485020120117209568b810828780007b67688287787b67608287707b67588287687b675028b20f9568d8184928600649285806492850064928480601956700169568201f50201401e1dc330216019568b81001958900058297587b6780008297507b67788297487b6788009567e0153308405020180187da9562b81095280005828728828a40828930828b38957c207b67d800d87c07c879087b69c000d89809da7709c8b9097b6bb000d8b9077b6ab800c8a707d49c0ad48707d47a0a98aa20d49707977720d4a707520739f3492218054922100549220805140700000000bb9c05a99568c0157b2720057b6c7064c750201a0143db8268d800958724d88708826ac000c88a09d8a90ada880a8268b000c88a0ad88a08826bb800c8b808826bd000956cb8107bcbc004826bf8007bcbb804826b18017bcba004826b10017bcb9804826b08017bcb9004826b00017bcb8804826be8007bcbb0047bc9d0047bc7c8047bcad8047bc8e0049567a0159568801595696015956a4015826bf0007bcba80450201c01be288267d8008269b000d497078268c000826ab800d4a808d48707987720d49808978820d48707520755f29567b810957900048298e8007b68d000829cf00082740005829bf8008267d800d8780364708262c000d32c08d82c09da83098267b000c97b0ad89a08d87b0b8267b800c97407c9b707c987047b6460c99a0a7b6af800c92c07c9370b7b6b688267d000c907087b68d0009587e0d88708c88b099599ffd3b90ad8b90bdaa80b826af80088a801c9840895aaffc8ab0bd8ab0ac88a0a956cb8107bc768047bc970047bcb7804956820157bca8004640750201e01d3d99567b810826860957900047b98408268f8007b98388268687b98308268d0007b98288268b8007b98608268b0007b98588268c0007b9850647a956700159568e0148269d8007ba9480450202001441c9567c0148268d800502022013cd89568b810958900048297207b67d8008297187b67d0008297107b67c0008297087b67f8000a090164728267786f77977820826980006f99989920d49808826988006f99979a20330bb00003987720d4a7079899203e07b800033e08b000033d09c000039569d8184929800649297806492970068267d800826cc000d47c0c8268f800648a8267d000d47808d4c808988820d4c707977720d4870749296806510706289ef064a883a77b67d0008267707b62c0007b6bd800502024017bdb6478956ad818482a88068267d0008e77826bc0008eb9fc08d497079a7995ab00067bb9c0007bb9b8007bb9b0007bb9a8008269d800979920989920977723d497079569401f979920989920956a801f97aa20d49a0a9788203309b00002988820826bf80097bb20d48b0b9799209899209568601f978820d4980c3308ff3309ff0a017b67f8009567a0145020260154278267f8005107d2f59567801433084050202801dad69569b810959c000382cae00082cbd80082c7d00082c8c8007b673001d4a7077b683801d4b808d47808988820d4b707977720d4870751070628a5ef4929b8034929b0034929a803140700000000a079c308956860147b97c003826738017b6a28017b6b200150202a01a9d750222c0168285207062869ef826738018377049569b8104929a003492998034929880320956840144929900350202e0177d7956900018297209577dc502230011a28520706282def826738018377249569b810492980034929780349296803169568201449297003502032013bd71407bcffffff000000009569000150223401da2752070628edee826738018377443a081800023a092000023a0a280002956bb81095bc00037bc8607bc9587bca5095680014492b48033300b80028e8d69567ff079577410133084050203601a0d59567ff079577b9008278a0007b683001827898007b682801827890007b682001827788007b673801330038010a0b33023a01289d2750223a019a275108062865ee6479987720510706285aee50223c01892850203e0144d99568d818826928017a89c8038377956800208388a0fc33090a0a9567d8188177c80328ffef7b69a007826780007b67c0077b6aa807826798007b67c8077b6bb0078267a0007b67d0077b6cb8079567e0079568c0077b6910019569a0077b6a0801826ac8007b6ad8077b6b607b6c5850204001eb1a826ae0078267e8078268f0078269f8074926580749265007826b28017b6b4807826bf8007b6b40077b6978077b6870077b6768079567800795686007956940077b6a6007502042018f1c826780077b673001826788077b673801826790077b672801826798077b6720018267587b67f8068267607b67f006826708017b67e806826710017b67e0068267d0007b6718078267787b6710078267707b67080795672007956800079569e006826a687b6a000750204401341a956b000782ba2082b72882b83082b9384926980649269006826b18017b6b8806826b00017b6b80067b69b8067b68b0067b67a8069567c0069568a006956980067b6aa00650204601d81b956800068289d8008260c8068287c0007b671801828ad000826b2001d39b0482683801d3080c7b6c1001d8080382623001d8720c82671001db730cd89b0882632801d8a307db480764b8d3a30bd44b0bdbb70c6427dac908daca0382693801dac009826a1801daca07282b016429880be803944b826c1801d49c0c94cb510b06283d146498950718fc956c00017bc730d80707c8740a95abffd34b0a7bcb38d84b09daa7099587ffc879097bc928d879077bc72088870182c818c978087bc818492618064926100649260806956800064926000633075020480130d44926f8054926f0054926e005043307209568e0054926e80550204a0112d43908a4000256183f0b2003a4000240018267200182681801c887077b6720019517e08479e07b69180164913307b000028377839933084033004c010a08826a180133024e01280126826a180150224e01fa2583bbd8f8c86b0b95bc00047bca207bc9187bc8107bc708492b4004492b3804492b3004491c28e8039567e01c9568001d50205001f3d4956a000182a82082a73082a93882632801017b6730017b632801d437077b6938017b682001d49808d487078e774926d8054926d0057b67c0059567c0054926c80550205201cc1f8267d8009777209877204926b8057b67b0058267e0007b67a8059568a0058267e8007b67a00533075020540115d349269805492690054926800504330720956880054926880550205601f7d29517e08477e07b67180164713908a4000256183f0b2003a4000240019517e08479e07b69100164913307b00002837783993308400a08826a100182a71882a81082a90882aa6f776f8b6f996faa826818017b8a187b89107b8b087b87956760055020580183d3826a6005826768058268700582697805826b20017b6b1805826b28017b6b1005826b38017b6b0805826b30017b6b00057b6938057b6830057b6728059567400595682005956900057b6a200550205a01e01d956b000582b75882b85082b94882ba40956bd81895bc00047bc7607bc8587bc9507bca489568201d8267180150205c0176d39567d81849278004492778044927700449276804039567e0049568401d50205e01dcd2826ae0048267e8048268f0048269f804956c000182cb207b6b980482cb287b6b900482cb387b6b880482cb307b6b80047b69b8047b68b0047b67a8049567c0049568a004956980047b6aa00450206001391d8267c0048268c8048269d004826ad804956bd818492ba004492b9804492b9004492b88040395bc00047bcac0007bc9b8007bc8b0007bc7a8009567601d9568801d50206201bad29567d8184927e0044927d8044927d0044927c80402956760049568a01d5020640120d282678800987910826c900097c830d489028268a8008488ff80697c04826ab000826bb800d2ba0a977b30d4ba0a97992097cb1098bb20d4b9099567d8184927e804027b721805957b00057bba107bb8087bb920492700054927f8044927f0049567c01d9568e01d502066012ad295674004330840502068017acf95670004827b58827c50827a48827940d4ba07d4c908d47808988820d4c707977720d487075107062855e8826780007b672004826798007b6728048267a0007b673004956820048267c8007b67380464977b6918017b6a10017b6b08017b6c000150206a014dd0956b000182b91882b70882b8d487071408e0ffffff00000000d8890882ba1094a8947852080628f0e7839720826868956a00047ba88268707ba8088268787ba810956800048269d0007ba91850206c01fbcf8267c00033006e010a058269f0003302700128d5228269f00050227001ce22d4780298aa206f99979820d4a8089899204926d8033a0a6800023a0b7000023a0c7800023a078000027b6af8037b6bf0037b6ce8037b67e0037b69d0037b68c8033308409569e003956ac0037b62c0038267180133007201951160ff7b1098007b1590007b1688009515a0008411e082ab7b1b3882ab087b1b3082ab107b1b2882aa187b1a20829a7b1a18829a087b1a10829a107b1a088299187b19648633000828f7d19567a00333084050207401f1cd956b000382b7b80082b8b00082b9a80082baa000d49707d48a09d47909989920d48707977720d4970751070628c8e695690001829730956b00037bb780008297387bb788008297287bb79000956880038297207bb7980064a77b6a38013300d60128c4ce956760133308405020760180cd9567b81095790002502278014e2133007a010a0b33027c0128971f50227c01941f510806285fe664799877205107062854e650227e018320502080013ed19568d818826928017a89480783779568002083882033090a0a9567d8188177480728fae79567a0163308405020820111cd9569b810829b000695970005827cf800827af0008278e800d4ba077b683801d4c808d47808988820d4c707977720d4870751070628e0e54929d8054929d0054929c805140700000000a079c308956880167b97e005826738017b6a30017b6b28017b6c200150208401e0cd956c000182c93082c72882c820d47808140a00000000010000001407fcffffff0000000082cb38d87b07949794875207062878e5826738018377047b6a2001956ab810492ac005492ab8057b682801492aa8052095686016492ab005502086017ecd956900018297209577dc50228801211e5207062834e5826738018377249569b8104929a005492998054929880516956840164929900550208a0142cd1407bcffffff000000009569000150228c01e11d52070628f4e4826738018377443a081800023a09200002956ab81095ab00057bb880007bb97814080000304e454b4f547bb87095682016492a68053300b80028e9cc9567601233084050208e01a5cb9567b8109579000150229001731f330092010a0b3302940128bc1d50229401b91d5108062884e464789877205107062879e47b68280183877b67300182673801502096015bcf9568d818826928017a89e8078377956800208388c00033090a0a9567d8188177e8072816e64916504916584916604916689568b81001956aff0795aab900956c000182c77ba7c80749084918f8826798007b87e882c7087ba7d007826790007b87f082c7107ba7d8079567c0109568a0109569801082cb187babe00750209801fc0f9569b810829720829808829318829a10826c8000d37c0bd8c707826970d8930cdbb70c8267d000d3a702d87a0a8267f800d87808db2a08d33907d4b707db7c085108cf009568ff079588b900956c000182c7958900077b97684928a00749289807826798007b97880082c7087b9770826790007b97900082c7107b9778648b95676010956840109569201082ca187bba800750209a01640f956bff0795bbb90095bc000782c7a80082c8b00082c9b80082cac0007bca207bc9187bc8107bc708826780007bc7408267707bc7388267d0007bc730956700109568ff079588e1079569ff079599c107826af8007bca2850209c01070f9567ff079577b900957c000782ca6082cb5882c85082c94828093309330b330a018267587b6838d487078268507b6930d498088269607b6b40d4b909d498088269687b6a48d4a909d49707d48707510786033309e8038260c000d69003826cb800ca9c07c873037b6328d87307d69c08c88707826b8800ca9b04c874047b6420d8740ad69b028267b000ca9708c82808d4b00bd47c0cd4cb0bc8a8077b678800510b1f82678800947ad828078268b000d698088e88d48707d4a70752079a0a8260f800d69002826bd00096b7e803c87202d87207d69b08c88707826870968ce803c8c703d8730ad69804826c800096c7e803c84707d48008d4bc0cd4c80bc8a700510b1b940ad8470782688000d698088e88d48707d4a7075207b20a8267c0009677e8038268f8009688e8039569ff079599b900959a00057ba888007ba7a8007b9290058267287ba7b0007b9398058267207ba7b8007b90a005649b9567ff07957781069568ff07958861069569ff0795994106826a88007bbac00550209e017e0e9568ff079588b900958900058297e0007b6788008297d8007b67b0008297d0007b6780008297c8007b67704928400549283805826790007b9730826798007b972849286005492858058267a0007b9750648b9567ff07957721069568ff07958801069569ff079599e105826aa8007bba48055020a001060e9567ff079577b90082728005827b78058270680582787005330a40420fd6a009caa807c87909d87907d6a80cc8c707caab04c87404d8740ccaa207d6ab03c83707d42808d4b00bd4b808c8c70b51081794bcd83707d6a2088e88d48707d4c7075207e509960740420f826870d87807826a8000d39a08d89a09da8709826cb000d84c07826a8800d3ba08d8ba0ada870ad34c07d48707da790a510a8e029567ff07957761043308405020a20140c79567ff079577b900957c000382cac00082cbb80082c9b00082c8a8005022a4016b1a510706281ee09569ff079599b900492998034929900349298803140700000000a079c3089568ff07958841047b97a003826738015020a6011ec85022a801dd1852070628dedf826738018377049569ff079599b900492980034929780349296803209568ff0795882104492970035020aa01e4c7956900018297209577dc5022ac018718520706289adf826738018377249569ff079599b9004929600349295803492950039568ff079588010449294803015020ae01a0c71407bcffffff00000000956900015022b0013f185207062852df826738018377449569ff079599b90049293803492930031408000000000000004b7b9840039568ff079588e103492928033300b800284bc79567ff079577a1073308405020b20103c69567ff079577b900827a0007957c000682cbf80082c9f00082c8e8005022b4012e1951070628e1de9569ff079599b9004929d8064929d0064929c806140700000000a079c3089568ff07958881077b97e006826738015020b601e1c65022b801a01752070628a1de826738018377049569ff079599b9004929c0064929b8064929a806209568ff07958861074929b0065020ba01a7c6956900018297209577dc5022bc014a17520706285dde826738018377249569ff079599b9004929a0064929980649298806199568ff0795884107492990065020be0163c61407bcffffff00000000956900015022c00102175207062815de826738018377443a080000023a093000023a0a380002956bff0795bbb90095bc00067bc880007bc9787bca70140900000000000000549568ff07958821077bc9683300b80028fec59567f82049074917f84917f04917e8029567ff07957781059568e0205020c201d1c68267f800987910826cd00097c830d489028269c0008498ff9569ff079599b9008099e404826ac800826bb800d2ba0a977b30d4ba0a97992097cb1098bb20d4b9099567f820491708027b72387b7a307b78287b794049172049171849171095670021956820215020c401dcc69567ff07957761053308405020c60128c49568ff079588b900958b000482b9c00082bab80082b7b00082b8a8007b67d0007b69c800d497077b68f800d4a808d478089888207b6ac000d4a707977720d4870751070628e7dc9567ff079577b900826850957a00047ba888008268587ba890008268607ba898009568ff07958841058269687ba9a0008267f8005020c801e1c48267c8008269c000d47909140700000000010000007b67c0001407e0ffffff000000008268f800d878078268d00094877b69c80094975207062871dc8267f8008377209569ff079599b900826830959b00047bb8688268387bb8708268407bb8789568ff0795882105826a487bba80005020ca016bc48267c0009577c08268f800d878078268d00094878268c80094875207062817dc8267f8008377409569ff079599b900956b000182b820959c00047bc84882b8287bc85082b8307bc8589568ff079588010582ba387bca605020cc010ec41407a0ffffff000000008268f800d878078268d00094878268c800948752070628b7db8267f800837760956aff0795aab900956b000182b895ac00047bc82882b8087bc83082b8107bc8389568ff079588e10482b9187bc9405020ce01afc38267783300d0010a058269d8003302d201288a168269d8005022d2018316d4780298aa206f99979820d4a808989920826ae0009567ff079577b9007b7ad8033a0a4000024927e003826be8007b7bd003826bf0007b7bc8037b7a20043a0a4800023a0b5000023a0c580002492700047b7a18047b7b10047b7c08047b79f8037b78f003330880009569ff079599c104956aff0795aaa104956bff0795bb81047b72e8038267f8003300d401951120ff7b10d8007b15d0007b16c8009515e0008411e082bc7b1c4082bc087b1c4882bc107b1c5082bb187b1b5833020a82ab7b1b1882ab087b1b2082ab107b1b2882aa187b1a308296829a087b1a829a107b1a088299187b19107b183833000c285fc53308b000028388330733090a0c3308b0000228da003308b00002838833070128dd003308b00002838833070128d0003308b00002838833070128c3003308b00002838833070128b6003308b00002838833070128a9003308b000028388330701289c003308b000028388330701288f003308b0000283883307012882003308b00002838833070128759569d8185247acf1020953492900024929f8014929f0014929e801956700208377c0fa0a0f01956ad81895ab000182b7f80082a8000282b9f00082bae800d49808d4a707d4870751079c003308b000028388330701281e3308b0000283883307012812838833070133090a0c3308b0000228f233090a0c3308b0000228e73308b0000228e03308b0000228d93308b0000228d23308b0000228cb956b000182b828978820988920492a600182b83095ac00017bc84882b8387bc8509568201a7bc9587b6738015020d6014bc1330820826738015020d80100c4837833092033070a0c01826738018177561703353308b000022871ff3308b0000283883307010a0c956780013300da01284e0383883307010a0c956780013300da01283c03956780015020da0135038267a0017b6738018267a8017b67300182678801826880011409ffffffffffff00007b692801d29707492678017b6768017b6860013307800095686001492670015020dc01a8c095690001829730829828d28707492658017b97488297387b97403307a00095684001492650015020de017cc03908a400025628bf000d2003a40002c000013307b000028378800033094033070a0c2826ff3308b000022847ff4926b0024926a8024926a002140700000000717b484e9568a0027b67b80233075020e00129c04926980249269002492680021133070495688002492688025020e2010bc03908a4000256183f112003a40002403308b0000228083308b000020183883307013309240a0c3308b0000228d5fe3308b0000228cdfe3308b0000228c5fe9567ff079577b9004927580649275006492748065022e4010612958801077b97600633075020e601a3bf9568ff079588b9004928400649283806492828061164893307049568ff079588e106492930065020e80177bf3908a4000256183f122003a40002403308b000022874ff3308b00002286cff9567ff079577b9004927180649271006492708065022ea0191119588c1067b97200633075020ec012ebf9568ff079588b900492800064928f8054928e8051164893307049568ff079588a1064929f0055020ee0102bf3908a4000256183f122003a40002403308b0000228fffe3308b0000228f7fe9567ff079577b9004927180549271005492708055022f0011c119588c1057b97200533075020f201b9be9568ff079588b900492800054928f8044928e8041164893307049568ff079588a1054929f0045020f4018dbe3908a4000256183f122003a40002403308b00002288afe3308b000022882fe9511c07b10387b15307b16289515408411f0828910828a18828b088288d4ba0ad4980bd4ab0b98bb20d4a909979920d4b90952091e647664175020f601f5bc5022f8010810510a0c5022fa01a1103200003308b00002838833070133093300fc010a0c019511c07b10387b15307b16289515408411e0647683173308043300fe010a033302000228c00f50220002bd0f510a0b50220202561032003308b0000283883307013309330004020a0c019511a07b10587b15507b16489515608411e064764911384911304911284911200264179518205020060286be8212821818821908821a10140bffffffffffff0000d2b90c97a710989930d4970798aa30978810d4a808d2b80833094916304916384916104916187b627b6c087b67207b68285022080229103200951170ff7b1088007b1580007b1678951590008411f064728289827408828c088273959a1fd89a00c80c0984aae07b1308c8a303d8a30bc8490ac8ba0ad39a06d89a07da6b07822b18d8c90c828610822210828818da000cc86c0cd86c06c82c09c89707d8c90cd89709c8b808c86808c8c808c8980c8ec88e79dbc809d4c7088ea6db8906520657821808d88308d34a09d84a06da9806d82708d3bc09d8bc0bda980bd32708d49808da860b520b307b13507b1a587b17603307409518507b1c6850200a027fbc955170ff821088008215800082167895119000320050220c02280f50200e025ebc491128491120491110413307049518104911185020100245bc3908a4000256183f0b2003a4000240013308b000028388330701330924330012020a0c019511807b10787b15707b1668951580008411f0829b828a829608828308829410828c10829918828818d363027b1608d863067b1b187b1a10d8ba0a7b1ada2a06d3980ad89800d84c02daa200d34c0bd4ba0adaa600520046c94c0ac99808c92808d86a09c99808c96a0a821908c99309821bc9b909821b18821c10c9bc0b7b7b7b79087b7a107b7818955180821078821570821668951180003200491150491148491140140700000000717b484e9518407b175833075020140265bb49113849113049112011330704951820491128502016024cbb3908a4000256183f0b2003a4000240013308b000028388330701330924330018020a0c01951140ff7b10b8007b15b0007b16a8009515c0008411f082908282828a087b1758829b08d60207ca0a06c86707d86706d60a0cc86c0ccab206c867077b1750d86707d6b206c86707c8c707d8c70cd6ba06c86c0ccaba06c867077b1748d86706c86c0c7b1c40829310829918828418828710ca3a0c7b1920ca2906c8c6087b1b28ca7b06ca0409c86909ca2306ca070cc8c6067b1330d6230b7b1b10c88b0bd60703c89308d8c6097b18187b1b08c8b80cc8c9097b1438d44a0cd47208d4c808821b40821c48c8c606d8c604c8b909c8490951088f00d3b9087b1948821948d8b909db89047b1640821810821908d889068ea98218208e8cd2c909d6280c8eccd4c909643b821330d63a0a8eaad4a909d469097b1910821918d8b909821b288eba8216388e6cd2ca0ad6060c8eccd4ca0ad67b0c8eccd4ca0ad4a909d4830ad4670c8216408eaa8eccd2ca0ad4a909821810d49808821948d4480784770152072dca02078218587b878217507b87087b86107b8918955140ff8210b8008215b0008216a8009511c0003200492190004921880049218000140700000000717b484e951880007b179800330750201a0277b94911784911704911601133070495186049116850201c025eb93908a4000256183f0b2003a4000240013308b00002838833070133092433001e020a0c019511f0fe7b1008017b1500017b16f800951510018411f0829310829c188296088299d4c60bd4390ad4ba0a7b177b1aa800510a3c0482871882801082820882847b1460683895884068cbdac80b7b1930689895894068687b1638da6908958980007b1c407b1348d4c30adaa90bd8890994a96808958840687cda780c6848958840682ada280a95a88000d47006da680cd8a8089468d38903d88906d8cb0ada3a06c989098864019544ffc9a90a9a63c9cb088e398e4bda490b7b18a000888900018599018eacdbac09db6b09821660d4060bd4720cd4cb0b8218a800888c0188bb01d4cb0bd4b9097b176864789498640b949b7b1258642c949c949652094d038217a0008579ff00d43902d44a09d492098217510939038219a0009598017b18a8007b1050888701c8a7077b178000d48707887701c837077b1770d83707c847077b1778330220029a96ff009a698000017b162882176082185850202202ed0a7b1798007b189000821750821868646950202402fd0a7b17880082179000d487077b1790008218a0009a897f821760821658646850202602d90a821928889a80007b1aa000821b9000dbab08821b68da9b087b18900082189800821b8800d4b808daa708821750da97087b1898008217606468502028029a0a821c70821978821a8000d49a0a8219a800d4c909d4a909821aa00093a87b18880093a77b17a000510902028216a80095698082175082186850202a02360a7b17287b1818821760821858646950202c02220a7b17107b18209a69800082175082186850202e02320a821920d49808886980007b1920821a18da9a08821a58db680a7b1a58821810d48707821828da9807821860db67087b1860821750821868646950203002cd098212583304821920939893977b1768821a3088a701821938c979077b1720d49a07887701821948c9790b7b1b18d87907821940c979097b191095aaff7b1a0882106001491128980b3f972a016426d4ba02970b018210900098093fd4b9097b1960821720d32703d8270b821708644cd89704db3b0497880182176898793fd498087b185898693f977701d497039707018218980098893fd4970797890182188800988b3fd4b909978b018216a00098603fd40b0b976601d46c0c7b1ca00086bb7b1b880086987b18980086777b179000821918c93907d84707d83909821b10821a58c9ab0bc99b0bc97b0b99bb3f821730d27b087b1850821c38d2bc0cd3c207d8c206821460d88400da7006821948d2b909c99308c968077b1768d86807d89309821640d2b606c96a08c99808c97808c9c20ac90a02821750c97400821ca80082168000d46c07887701821a70d87a09c97a0788ca01c9a606821a78c99a0a95ccff7b1680007b1a78d4a6097b1ca800d47c0ad4a90984b4017b17705209c7fe2808330449112801821a980098a73f82189000978801d48707821c880098c83f97aa01d4a8088219a000989a3f97cc01979601d46406821928d49a0ad4ac0cd4890bd47908821728058217017b767b7c087b7b107b78189551f0fe82100801821500018216f8009511100132004921e0004921d8004921d000140700000000717b484e9518d0007b17e800330750203202a7b44921c8004921c0004921b000123307049518b0004921b8005020340289b43908a4000256183f0b2003a4000240013308b000028388330701330924330036020a0c019511907b10687b15607b16589515708411f0828a187b1a08829b1882847b14828a08829608829c828310829210c8a609c8c404d8c40cc8c909d36900d86906da0c06c83208821c08c8bc0cd8280bc8cb0bc8680cd88c08c88b00d3a90bd8a90a8218d88406dbba06d83c02821808d3800bd8800adab20ad33c08d4b808db8a0652061f7b747b79087b7c107b7018955190821068821560821658951170320050223802840650203a02bab34911284911204911101133070495181049111850203c02a1b33908a4000256183f0b2003a4000240013308b00002838833070133092433003e020a0c01951120ff7b10d8007b15d0007b16c8009515e0008411f0827810827918827a088277d4a909d48707d49707510719955120ff8210d8008215d0008216c8009511e00032009517a00033084050204002f2b18219b8008216b0008217a8008218a0007b17107b1908d497077b1818d46808d47808988820d46707977720d487075207c000492190004921880049218000140700000000a079c308951880007b17980082171850204202d3b2821908d46909140600000000010000001407fcffffff00000000821818d8780782181094877b1908949751076b82171883770449117849117049116020951860491168502044028ab29567dc821818d8780782181094878218089487510739821618836724491158491150491140169518404911485020460258b21407bcffffff00000000d8760782181094878218089487520704008216188367443a088800023a099000023a0a9800027b18387b19307b1a289518204911205020480213b2330864646750204a02cab4837833070133096433004c020a0c01951150ff7b10a8007b15a0007b1698009515b0008411f0828c10828b1882860882827b1b407b1638d4b608d4c20bd48b0b98bb207b1c48d4c808978820d4b8087b17305208da00642682a7187b172882a7107b172082a7087b171882a77b17108297108298088299977720987720492188007b19707b18789518707b178000642750204e0272b1821948821a40d4a9071408e0ffffff00000000d88608821b3894b894785108799567407b1708d86707c87b087b18d8b808da7708c898087b1838d89807c8a7077b17488367208218107b18508218187b18588218207b18609518508219287b1968502050020bb18217308218387b781082187b78088218087b788218487b7818955150ff8210a8008215a000821698009511b000320000951120ff7b10d8007b15d0007b16c8009515e0008411e064760a0b01510718017b16180a0b64769517a000330840502052026daf8219b800821cb0007b1c388212a8007b12308213a0007b132895671f7b1620d8670864968477e0957920d87907c8780ad88a0bda770b4911787b19607b1698007b1c90007b1288007b1380007b1a68951780009518607b1b705020540208f3821728821930d46909821a38d4a708d49808988820d4a909979920d49808520882004911584911504911489518408219207b1940502056020eb00a0b01821a287b1620821838d468081409e0ffffff00000000d89a09821b3094b99489510943647698772052073b83a72083687b181064685020580292b27a16c00083778318c00033090a0a01821b288117c000821618821820821938821a30821c10aec70e00330a33093308330b60017b6b7b6a087b69107b6818955120ff8210d8008215d0008216c8009511e0003200330750205a026bb233070150205c0262b2888820858801dba7088ea78ea9daa709d4aa07da78093202829838d87807829830948782982894873202956a000182a72882a920d47909140700000000010000007ba7201407fcffffff0000000082a838d8780782a83094877ba92894973202956b000182b83082b920d4980882ba2882b938d4a909d48909989920d4a808978820d49808320281971082996f88978a206f77987720d47a0a9888206f97977920d4980898792083b704320282970881981082996f77977a206f88988820d48a0a9877206f98978920d4790998882083b7043202956c000182c83882c72882ca20d47a0a140b00000000010000001407fcffffff00000000d8780782c930949794a732026f99979a20987720d4a707989920826ad8007ba7087ba87aa9109567d81832026f99979a20987720d4a707989920826af0007ba7087ba87aa9109567d818320282171082181814090000000001000000d37909d48909987a2088aa01948a939a320283977b6730018267380164987b6928013202956c00017bc9307bca28d4a9077bc838d4b808d478089888207bcb20d4b707977720d48707320282a71882a81082a90882aa6f776f886f996faa330b002032026479140700000000717b484e9568ff07320282a810d487071408fcffffff00000000d88b0882a9089498947832028219821a087b697b6a087b67107b68189551c082103882153082162895114032028298c0007b6830018298b8007b6828018298b0007b6820018297a8007b6738013202491140491138491130140700000000717b484e9518307b1748330732029551a0821058821550821648951160320282970881981082996f7a97a7206f8898882032023307d818c8760a95ab00023202849a40520a195109148d9a40cfa80ad09808d09707d4a707320032009597c0d0780733083200849a40520a195109148d9a40d0a70acf9707cf9808d4a808320032009598c0cf870833073200214225a952484992244992244992244992244992244992244992244992244992244992244992542529a524292949a84a494a922449922449922449922449922449922449922449929224294955494a922849254955924249929294a4aa2a494952924a922aa5942429a594249514111125944a4a4a8a142952a448912245498a888892244108094369521a122122492422221a11912442924422a2488428540d1141448448242282880891482422222244221111894444448888442224492222124949444842922449920ca550aa50950a55aa3422222245449088102244224a2302090824209088888846244992248a44a488442291884811114992149146440049245149442212912449920410111111490410112222228a44241249224a12499292948888081111111122222222924892882489880811212249128944224912911011912449922411114044444484902422224444448824492a12111122224402484a911011114044442422222225214992245124222222422412452444444492248948128944444422222252122222922451242244442291880811914824121111111121221249928884888888489224111101444444440851e448424402881011111111218d1225112222122112214244442401249248228924912451a3498d888888882412898888085184242242442412894444448888101189244944424414114992242222028888880891231122424444444448a344498488884488441021222292482289249124d1a4498d888888244912111111441124014444041189442211918888888888281211111111111144241289444422222211452422111111894422228888884424221111211241444444449224119188484444444444101191549224499224892449928848a3444a22a948922411111111111111111111444444444444444444440491942449922422222212111111458224499244918888101144241289448248922449129148924452440289248968244992248a441091442491828808252208114ca250892212412492440411914824120922222249924424128948944844444434222292245124222244041111894422414424499224c94810912449922449009188882048a224221141244952914822124402484a911042141101440489a0a411092222222222228a0451220822a2888a18d11211419122124992242241444424491289244992888800225224884492249144222222222222222222222222224844224992888824499248124992248924499294244922222222884492248988244544041141442291245a9428891292841022222289224992888a440445441129922492249248121249124952441049a4244944444444103112894424888824499224222280888888204489232201242a22012488888888201a254a2288884804910822444444124022892492248924899a34a9111111118988888888208a2089082212894422222244041149928804114992244922221240442441e248124052114144444404d194944410119108221144888888249248922492249a34a91111898844242222114411241141442249242225128988481111114424492491441249922412111191884814118920222292241289444424884892248988081141c4482489481091248924924422499224222280881444124922894444444444444444444444444410918824492222222222459248124992481289244912499244444414442291241289448a88082282884422916829511225240921444444248a244922a9484450441491222222922492481212491249524410110922222222912449121101444444102491880811412441128988101104104112092144248988442488888888888822415292208888222a221111111111111111910411111111111111111144444444241211111189444424824892888888888888082222222291482492484a521289a4285252449224499224492222a22022242208118c482451a844118920124912112122882431221149111111441211111105112111411285082651a81449aa8a244510111111111111111111412449449244041111212288888844229188888888202222222244444444101111228248249188489224112292444444100922499224491211111111454404919400924a92284922124414910892924408214444442422222222222549929224a9241244444492244922118944248a48248808a2489094240822a248452412444444249224492222808888882092248000924a221111112282488224121121220820822412424424804444224144104582a42451441011455444922446445122894822221241244924492289244944449188882422292212414444442449248944444424888824a99a2449922449222291244924492249924894484944229224912422499212298988888888884424a28888888820222222222211914844a48888888820222222244992244992a4a42442124922912449442488888888208988880022228220894444848808220992484444448420800892484444001111918804111111112411111140444410249188881011412441128988081111041041120921444424014424122511114124924844442449928824491211442488888888884492489244242291884844109100228048142591884492242211442251944422229124894882002251944422a24892442441a288449094242222444444841022222222222222222222222549929424494a4992245485849250124a4249280925a124948452042222221a111191244229944a852a140a8542912412492211248252a30809a58894221241444444009188888820924492880842080c914a4844041051101112118408426149212121111111441444448412114188202424222282888288885022220811848444444410511011114a440421829090244992942449524190a0a1144d92a41245820485523449929244094a1240922449495292a08848a49292244992244992244992a49292244992244992244144240a822492042182a1249a24914a922449929224499224495292942449a22401240549240942044349342222524992244992244992244992244992244992244992244992489224492929252549524a4a4a92549224495292444444111140444112498210c150128d888824294911494a2929259124a994522249499224a51291922489244955aa88485244224924499288982488480a221291a4201191242292245290442289a28848122449411249904492244992242948a9244992244992649292489224254992248924912492248aa248922449922449922449922449928824499224924892a88c44124922499224d59244444411114044414448441022184aa2499224a9a42449922449922425499224294992a4204822491022184aa211119124254944441409222292244992888800221224010490a4942489244892529224922080a4944908214912a4a0241a11114952922449922849929294449228481240524992922449922449122429298988884644446aa422414422912425499244442492204992248924498226490049a524a5208a9a48926495258988880a1224a92425291549024800494a45922449925229494952522949495224490001245549122951491229511240925445144592244992925415154094049054a5244992222222224a1240524992924a29122549925452499224951400"
        },
        "methodIdentifiers": {
          "balanceOf(address)": "70a08231",
          "getReserves()": "0902f1ac",
          "mint(address)": "6a627842",
          "swap(uint256,uint256,address)": "6d9a640a",
          "token0()": "0dfe1681",
          "token1()": "d21220a7",
          "totalSupply()": "18160ddd"
        }
      },
      "hash": "05f401dd21092269f96d3e55763cb19e477098d1892da186e6fcf10aeaa49895",
      "factoryDependencies": {}
    }
  }
}